:020000040000FA
:100800006BD5FFFF0000007C41414141FFFFFFFF2E
:10081000FFFFFFFFFFFFFFFFFFFFFFFFFFFFFFFFE8
:10082000000102030405060708090A0BFFFFFFFF8A
:10083000020C79021F1BFFFFFFFFFFFFFFFFFFFFFF
:10084000FFFFFFFFFFFFFFFFFFFFFFFFFFFFFFFFB8
:10085000FFFFFFFFFFFFFFFFFFFFFF021B3EFFFF4A
:10086000FFFFFFFFFFFFFFFFFFFFFFFFFFFFFFFF98
:10087000FFFFFFFFFFFFFFFFFFFFFFFFFFFFFFFF88
:10088000FFFFFF021F8EFFFFFFFFFFFFFFFFFFFFC6
:10089000FFFFFFFFFFFFFFFFFFFFFF021AF0FFFF59
:1008A000FFFFFFFFFFFFFFFFFFFFFFFFFFFFFFFF58
:1008B000FFFFFF021DCF01FFFFFFFF0E09466C6F18
:1008C00077657220616E64204D650512100010007E
:1008D000020A0002010618FF0000000000000000EC
:1008E0000000466C6F77657220616E64204D65462E
:1008F0006C6F77657220616E64204D652326000061
:1009000029261A0A436F6C6F6D6F20436F6E7472E5
:100910006F6C0010436F6C6F6D6F20436F6E666974
:10092000726D000213840100000284023984010008
:10093000009E09023784010000A002020F8401001A
:10094000009E090239840100009F090235840300DA
:1009500000B402020F84010000A0090239840100E2
:1009600000AF09023384010000B702020F840100C6
:1009700000B009FF020202020202020202010D009F
:1009800000001001021384010000FC83023984017D
:100990000000100A022B84010000D80202398401F1
:1009A0000000110A02298401000000830239840139
:1009B0000000120A022784010000C9820239840162
:1009C0000000130A0225840100008B810239840192
:1009D0000000140A0223840100009D810239840171
:1009E0000000150A022184010000F7810239840108
:1009F0000000160A021F84010000E581023984010B
:100A00000000170A021D84010000D7820239840108
:100A10000000180A021B84010000190A01E80305FE
:100A20003F10011C021384010000F9830239840184
:100A30000000BF0A108D80020000BA03020D84037B
:100A40000000BC03020F84010000F382023984011C
:100A50000000BF0A109D80020000BB03020D84034A
:100A60000000C203020F840100000D83FFFFFF009E
:100A700001307503020106000000000000000000C4
:100A80000000000000000000000000000000000066
:100A9000000000FFFF0600800CE803FF0000B40028
:100AA0000028002800283075A000A000A000A000A9
:100AB00000080008E001F000100010001000100015
:100AC0001000100050005000500010001000D0071F
:100AD0000000000000000F00010005003075070055
:100AE0001000010081FF0000FFE12BFF2BE72BFF2F
:100AF00002020208025000A0000000E80302138472
:100B0000010000F6830239840100008C0B020B8483
:100B1000010000AA040239840100008D0B0209843F
:100B2000010000C0040239840100008E0B0207841A
:100B3000010000C2040239840100008F0B02058409
:100B4000080000C304023984010000900B021784DE
:100B5000010000910BFF0100FF200213840100003F
:100B6000FF83023984010000F50B021984000000A4
:100B70000000020D840300001005BD31BD31BD3100
:100B8000BD31BD31BD31BD31BD31BD31BD31BD31F5
:100B9000BD31BD314B3463344534303132333435BB
:100BA0003637383941424344454600286E756C6CEF
:100BB00020706F696E74657229003F3F3F0000002E
:100BC000807F0000803FF9021550B743BA51000002
:100BD000204100E7DB2E0000A040100000000800CC
:100BE0000000E5C754F84405F5C77901220000006C
:100BF00080FB120BE2B90003020C63E47921780850
:100C0000B800028004F709D8FCE479297802B8001A
:100C1000028004F709D8FCE490028078D479078038
:100C200002F0A3D8FCD9FA781C9008B67A01BA0071
:100C3000028007E493A3F608DAF9900953AA82AB7D
:100C4000839008B7782C79048015E493A3AC82AD27
:100C5000838A828B83F0A3AA82AB838C828D83D814
:100C6000E9D9E775820B7583B57407120C8B758211
:100C7000ED75830B7400120C8B75D00075813F7578
:100C80001A80751B02759F00020BF2C09FF59FE44E
:100C900073D09F22D083D082C09FE493C0E07401C0
:100CA00093C0E0740293F59F22E066701008A3E001
:100CB00066700A08A3E066700408A3E06622C00A12
:100CC000C3E096F50A08A3E096420A08A3E096421C
:100CD0000A08A3E096420AA2D265D033E50A700161
:100CE000D3D00A22C3E7960809E7960809E79608D1
:100CF00009E79622C3E09608A3E09608A3E09608C9
:100D0000A3E09622C00AC3E096F50A08A3E0964243
:100D10000A08A3E096420A08A3E096450A7001D3A8
:100D2000D00A22080808E630E7111215DF120D3B41
:100D3000080808C64480C618181822181818E97937
:100D40009EC608CAC608CBC608CCC6C37020799612
:100D5000CACBCC7019798ECBCC70137986CC700E3F
:100D6000F9802ACA33CACB33CBCC33CC331930E722
:100D7000F2CCCBCA3350147004EA30E00DE4CA3A26
:100D8000CACB3BCBCC3CCC500209C3E913C6CC1830
:100D90002313C6CB18C6CA18C6F922120DDB20F0E1
:100DA0001430E72B74FFFCFBFA747F8022E4FCFB19
:100DB000FA7480801AB48008BC00F2BB00EF800F88
:100DC00050EBF9E4C39AFAE49BFBE49CFCE499C67B
:100DD000CC18C6CB18C6CA18C6F922E4C9C608CAB8
:100DE000C608CBC6D3330308CCC63392F0C3947F76
:100DF000402E94184019C9B90704CACBCC225025FB
:100E0000C309CA33CACB33CBCC33CC33D9F422F4A5
:100E1000600DC9CCC313CB13CBCA13CAD9F6CC22ED
:100E2000E4FCFBFA2214FCFBFA22E6C33318461852
:100E300046184622E7C3331947194719472218189D
:100E400018E6084608700AE608C3337005E633F46E
:100E5000220822191919E7094709700AE709C3335B
:100E60007005E733F4220922E6084608C313460852
:100E7000336002E633F422E7094709C31347093315
:100E80006002E733F422120E686025120E776020AC
:100E9000120E2A7003020E34080808E76670101854
:100EA00019E766700A1819E76670041819E76622D0
:100EB000F422120E68601C120E776017120E2A7050
:100EC00007120E347001D322C0D0120E347006D037
:100ED000D0B322C32233D0D0501430E0F6C3E7960B
:100EE0000809E7960809E7960809E796B32220E083
:100EF000D5E6970809E6970809E6970809E697B343
:100F000022120E68601B120E776016120E2A7007EE
:100F1000120E34600CB322C0D0120E347005D0D043
:100F200022C32233D0D0501330E0EBC3E796080938
:100F3000E7960809E7960809E7962220E0E4E69795
:100F40000809E6970809E6970809E6972200120EB5
:100F500068604F120E776012E7548066F6120E3EFC
:100F60007011120E34703B090909F4F618F618F6E0
:100F700018F622120E537015120E2A08080860EA9D
:100F8000E6447FF618768018E4F618F622120E2A48
:100F90006016120E347012E4F608F608F608E654ED
:100FA00080F609090918181822EAC0E0EBC0E0EC45
:100FB000C0E0EDC0E0E687F0A4FBACF008E687F007
:100FC000A42CFCE435F0FA1809E687F0A42C4B6059
:100FD000027401CA35F0FCE433FB09E687F0D2F76E
:100FE000A42CCB35F0FC1908E687F0A42BCC35F007
:100FF000FBE433FD0819E687F0D2E7A42C4ACB3591
:10100000F0CD3400FC09E687F0D2E7A42DCC35F012
:10101000FDE433FA0918E687F0D2F7A42CCD35F0B9
:10102000CA3400FC08E687F0D2E7D2F7A42ACC3510
:10103000F07A7E20E70B0ACB33CBCD33CDCC33CC4B
:1010400033CB3350147004ED30E00ED2F1E4CD3DDB
:10105000CDCC3CCC3B5005DA05C2F1EB547FC63316
:1010600008E63392F0FBE73309E733C39A502D2BA0
:1010700070190C0D4C4D70151806E608C333700D31
:1010800020F10AA2F013F6E418800B4024E4F630B5
:10109000F002768018F618F618F68024D33B145028
:1010A0001074FFA2F013F6187680E418F618F68094
:1010B0000FA2F013F618E63303F618ECF618EDF667
:1010C000D0E0FDD0E0FCD0E0FBD0E0FA22120E77B9
:1010D0006046120E68603DE9687008F618F618F66A
:1010E00018F622748067F7121101090909748067E4
:1010F000F722120E68601D120E77700519191980FB
:101100001A120E3E701F120E53C37003E667331996
:10111000191940071818182208080874FFF618F65D
:1011200018F618F622120E536017120E3470219220
:10113000F0120E2A7019501720F014080808090937
:1011400009E7F61819E7F61819E7F61819E7F6226D
:10115000120E2A60E6E869701F0808E62480F60887
:10116000E436F618547FB47F0CE654806007F6E44A
:1011700018F618F622181822E9C6CC08C6CD08C6FB
:10118000CE08C6CFC0E0E8C0E0EAC0E0EBC0E009AE
:10119000E9F809E7FA09E7FBE6F918E6F8C3EC987D
:1011A000ED99EE9AEBC2E7F5F0EFC2E795F0500E3D
:1011B000600CEBCFFBEACEFAE9CDF9E8CCF8EAA275
:1011C000E7D2E7FAEB33FB13F5F0EEA2E7D2E7FE46
:1011D000EF33FFC5F013A2E730E601B313C5F0C348
:1011E000C0E0C0F07F00C39BFB605B9418600C40C4
:1011F0001AD0E023F9D0E0F80212D08AF0E9486072
:1012000003D2F0E4AFF0FAF9F8803BEB30E40D895B
:10121000F0EA6003D2F0E4AFF0F9CAF8EB30E30D86
:1012200088F0EF6002D2F0AFF0E4CAC9F8EB5407DF
:101230006014FBC3EA13FAE913F9E813F8EF13504B
:1012400002D2E0FFDBEDD0E0C0E030E739C3E49F3D
:10125000FFF5F0EC98FC42F0ED99FD42F0EE9AFEBD
:1012600042F0D0E0F9D0E0F8E5F0607AE923F9EE59
:1012700020E742D8028067C3EF33FFEC33FCED3345
:10128000FDEE33FE80EAEC28FCED39FDEE3AFED0AF
:10129000E023F9D0E0F84002801BC3EE13FEED130B
:1012A000FDEC13FCEF135002D2E0FF08B800067FFC
:1012B0007F74FF802EEF3350178CF020F002601007
:1012C0000CBC000C0DBD00080EBE000408E860DF79
:1012D000E933E813FFEE2313FE4F4D4C8008E95429
:1012E00080FFE4FEFDFCEE33EF33F47004FCFD7E82
:1012F00080D0E0FBD0E0FAD0E0F8D0E0CFC618CE46
:10130000C618CDC618CCC6F922120E68700418187B
:101310001822120E77700D74FFF61819F61819F6C8
:101320001819F622E7548066F6120E2A700F120E74
:101330003470F014F608F608F608F680D1120E3470
:10134000700CF608F608768008E6447F80EC120EF2
:1013500056700C120E4160BFE65480F6E480BB125A
:101360000E41700519191980A5E869700C763F18AF
:10137000768018F618F6E8F922E6CDC0E018ECC041
:10138000E0E633CD33CDD313F6E719FCE719193373
:10139000CC33C3947F400ECD9D502408E65480F694
:1013A000E418F6800FF4043D14501408E6447FF668
:1013B000187680E418F618F6D0E0FCD0E0FD22CCD8
:1013C000D313CCFD18E4C6CBC0E018E4C6CAC0E015
:1013D0000808ED08C633E613F618E433C675F003C3
:1013E000C3CA97CA09CB97CB199C40047D08802EAD
:1013F000BD00030214B216B6FF050606081618C390
:10140000CA33CACB33CB33CA27CA09CB37CB193C33
:10141000C37D08803E187D0820E75CC633C6CA330A
:10142000CACB33CB33DDF1D5F0EB30E77BCA97CABB
:1014300009CB974ACB199C406F4B7025E620E021E1
:101440008066187D08C3CA97CA09CB97CB199CD36D
:10145000C633C6CA33CACB33CB3350C9DDE7D5F068
:10146000E1D3E4C636C608C636C608C636C608C6C0
:1014700036C61818188031C3CA97CA09CB97CB193A
:101480009CB34097C633C6CA33CACB33CB33DD34A3
:10149000D5F02EC6A2E0C640C8CA27CA09CB371964
:1014A0004A70BECB3CB480B90808E63308E6336026
:1014B0001F181818D0E0FAD0E0FBD0E0FCD0E0FD17
:1014C00022187D08CA27CA09CB37CB193CD38080A4
:1014D00013F618E4B67F11F618B6FF0EF618C60418
:1014E00070D20808768080CAF618F618F680C5080B
:1014F0000808EAC0E0EBC0E086F0E7A4FA18098625
:10150000F0E7A42AFA180986F0E7A42AFA1809864F
:10151000F0E7A42AFA1986F0E7A4FBE5F02AFA1905
:101520000886F0E7A42BFBE5F03AFA190886F0E705
:10153000A42BFBE5F03AFA18180986F0E7A4C5F0E9
:101540002BFBE43AFA1908E7C5F0C6A426F6E5F045
:101550003BFBE43AFA1886F0E7A4F6E5F00826F635
:10156000E43B08F6E43A08F6D0E0FBD0E0FA22E4E7
:10157000CFC0E0E4CEC0E0E4CDC0E0E4CCC0E07594
:10158000F020C3E633F608E633F608E633F608E65D
:1015900033F6181818EC33FCED33FDEE33FEEF3361
:1015A000FFC3EC9709ED9709EE9709EF9719191901
:1015B000400FFFEC97FC09ED97FD09EE97FE191916
:1015C00006D5F0BEECF709EDF709EEF709EFF719CC
:1015D0001919D0E0FCD0E0FDD0E0FED0E0FF2218E9
:1015E0001818E4C396F608E496F608E496F608E4BC
:1015F00096F6226016080808C6C313C618C613C696
:1016000018C613C618C613C6D5E0EA227009080822
:1016100008226016181818C6C333C608C633C60891
:10162000C633C608C633C6D5E0EA22E627F608095F
:10163000E637F60809E637F60809E637F622E02627
:10164000F608A3E036F608A3E036F608A3E036F67F
:1016500022E026F008A3E036F008A3E036F008A365
:10166000E036F022C3E697F60809E697F60809E6A1
:1016700097F60809E697F622C3E0C696F608A3E0B7
:10168000C696F608A3E0C696F608A3E0C696F6222C
:10169000C3E096F008A3E096F008A3E096F008A354
:1016A000E096F022E056F608A3E056F608A3E056CE
:1016B000F608A3E056F622E056F008A3E056F0083C
:1016C000A3E056F008A3E056F022E0F608A3E0F607
:1016D00008A3E0F608A3E0F622E6F008A3E6F00887
:1016E000A3E6F008A3E6F022E0FAA3E0FBA3E0FC07
:1016F000A3E0FD22EAF0A3EBF0A3ECF0A3EDF022CF
:10170000CAC0E0E6F0A308DAFAD0E0FA22CAC0E0E4
:10171000E0A3C582CCC582C583CDC583F0A3C582B5
:10172000CCC582C583CDC583DAE6D0E0CA22C3E446
:1017300098F8E499F912176F8026C3E49AFAE49BAB
:10174000FBE920E7E912176FE498F8E499F922C35E
:10175000E498F8E499F912176FE498F8E499F9C35A
:10176000E49AFAE49BFB22EB20E7CFE920E7E0B91B
:101770000010BB0008E88AF084F8AAF022E4FBC855
:10178000FA22EB70227B10C833C8C933C933500723
:10179000C39AC3DBF280069A50012ADBEAC833F40D
:1017A000C8C933F4C9FA2275F008E4C833C8C9338C
:1017B000C933C99AC99B5004C92AC93BD5F0ECFB6F
:1017C000C833F4C8E4C9FA22600D08C6A2E713C6FC
:1017D00018C613C6D5E0F322600C08C6C313C6189A
:1017E000C613C6D5E0F422700422600D18C6C333B8
:1017F000C608C633C6D5E0F41822251A10AF08F57E
:101800001A4002151B8008F51A4002151BD2AF22A0
:10181000C0D0251A10AF08F51A5002051B8008F534
:101820001A5002051BD2AFD0D022251AF58210AF74
:1018300008F51A4002151B8008F51A4002151BD244
:10184000AF851B8322251AF582E4351BF58322E43C
:1018500073251AC582C0E0E51B34FFC583C0E0E5EF
:101860001AC3958224F810AF0885831B85821A80DD
:101870000885831B85821AD2AFCEF0A3E520F0A3A2
:10188000780AE608F0A3DEFAEFF0A3E58124FAF87F
:10189000E608F0A3E608F0A3E608F0A30808E608C7
:1018A000F0A3E608F0A315811581D0E0FED0E0F8A2
:1018B000158115811581E8C0E0EEC0E022251AC52A
:1018C00082C0E0E51B34FFC583C0E0E51AC3958202
:1018D00024F910AF0885831B85821A800885831B35
:1018E00085821AD2AFCEF0A3E520F0A3780AE608ED
:1018F000F0A3DEFAEFF0A3E58124FBF8E608F0A3FD
:10190000E608F0A30808E608F0A3E608F0A31581AE
:101910001581D0E0FED0E0F815811581E8C0E0EE39
:10192000C0E022851B83851A82E0A3FEE0A3F52098
:10193000780AE0A3F608DFFAE0A3FFE0A3C0E0E046
:10194000A3C0E0E0A3C0E0E0A3C0E0E0A3C0E010DB
:10195000AF0885821A85831B800885821A85831BC0
:10196000D2AFD083D082020C91851B83851A82E08E
:10197000A3FEE0A3F520780AE0A3F608DFFAE0A3CF
:10198000FFE0A3C0E0E0A3C0E0E0A3C0E0E0A3C0AC
:10199000E010AF0885821A85831B800885821A852E
:1019A000831BD2AFD083D08222740480067402805D
:1019B000027401C0E0F40412182AD0E012170022C9
:1019C0007404800474028000CCC0E0EDC0E0E51A2D
:1019D000C39CCCAD1B50011D10AF068C1A8D1B8013
:1019E000068C1A8D1BD2AF12170DD0E0FDD0E0FC93
:1019F00022D083D082E9C0E0E493A3C386F0C5F08F
:101A000095F0F908E493A386F0C5F095F0700BE427
:101A100093A3C3994005E9048002A3E475F002A4EE
:101A20002582F582E5F03583F583D0E0F9E493A3D0
:101A3000C0E0E493C0E022D083D082ECC0E0EDC0EF
:101A4000E0E493A3FCE493A3FDED4C600D121A8334
:101A5000EC24FFFCED34FFFD80EFE493A3FCE49362
:101A6000A3FDED4C600D121AC2EC24FFFCED34FF17
:101A7000FD80EFD0E0FDD0E0FCE493A3C0E0E49370
:101A8000C0E022C0E0C3E493960874019396184026
:101A90000FE493667008087401936618700070195B
:101AA000A3A3C3E49396087401939618A3A3400DCF
:101AB000D0E0D0E0D0E0021A73A3A3A3A3A3A3D0E5
:101AC000E022C0E0C0F088F0E4936670080874017A
:101AD0009366187000A8F0A3A3700BD0F0D0E0D0EC
:101AE000E0D0E0021A73A3A3D0F0D0E022FFFFFF02
:101AF000C0E0C0D0E8C0E0C082C083A2AFE433F849
:101B0000D2AFE589A2E550095389DF9002D4740170
:101B1000F0C2C5751C00E8A2E092AFD083D082D09D
:101B2000E0F8D0D0D0E03274F81218BDEAFEEBFF36
:101B3000EEF91227BBEEFAEFFB7F01021969C0E054
:101B4000C0D0E8C0E0E5A8D2AFC2C7751C00A2E7CC
:101B500092AFD0E0F8D0D0D0E03274F51218BDEAE0
:101B6000FEEBFFEE2434F8EF3400F9880A890BEE1F
:101B70002435F582EF3400F583E0F8EE2437F58262
:101B8000EF3400F583E0F50CEC850CF0A4FCAAF032
:101B9000850CF0EDA42AFDE82CF8E43DF97A257BCC
:101BA0000012176FEA850A82850B83F05407F874D8
:101BB00001B800028004C333D8FCC0E0E013131363
:101BC000541FF8EE28F8EF3400F9E8245DF582E9B7
:101BD0003400F583D0E0F8E0586008EE2434F58254
:101BE000EF801EEE2436F582EF3400F583E0F5F049
:101BF000EA84A8F0EE28F8EF3400F9E82438F582FA
:101C0000E93400F583E0F97F0402196974F51218CC
:101C1000BDEAFEEBFFEE2434F582EF3400F583E0FD
:101C2000C0E0EE2435F582EF3400F583D0E0F08E8D
:101C3000828F83A3A3A3A3A3A3A3C082C0838E8206
:101C40008F83A3A3A3A3A3E0F8A3E0F9D083D0825A
:101C5000E0C398F50AA3E099F50BEE2480F582EF36
:101C60003400F583E064017069EE2481F582EF347D
:101C700000F583E0F8A3E0F98E828F83A3A3A3A3EA
:101C8000A3A3A3E0FCA3E0FD8E828F83A3A3A3A361
:101C9000A3E0FAA3E0FBC3EA9CEB9D5027C3EC98BA
:101CA000ED99402EC3EA98EB9950277CF57D06EE1E
:101CB000FAEFFB12311BEE2480F582EF3400F5833E
:101CC000E4F0800EC3EA98EB9940E0C3EC98ED99FC
:101CD00050D9EE2434F8EF3400F9E8FCE9FDEE24A5
:101CE00035F582EF3400F583E0F8EE2437F582EF26
:101CF0003400F583E0F50CE50A850CF0A4F50AAA9A
:101D0000F0850CF0E50BA42AF50BE8250AF8E4357C
:101D10000BF97A257B0012176FEA8C828D83F054C1
:101D200007F87401B800028004C333D8FCC0E0E0B7
:101D3000131313541FF8EE28F8EF3400F9E8245D6C
:101D4000F582E93400F583D0E0F8E0586008EE242D
:101D500034F582EF801EEE2436F582EF3400F583F1
:101D6000E0F5F0EA84A8F0EE28F8EF3400F9E82472
:101D700038F582E93400F583E0F9122609021C07E0
:101D8000C082C083851A82851B83E0F8A3E0F9C373
:101D9000EA9CEB9D5012C3EC98ED994019C3EA9868
:101DA000EB99501279018010C3EA98EB9940F5C382
:101DB000EC98ED9950EE7900D083D08222EAC39C52
:101DC000FAEB9DFB22FFFFFF8521878522C622C0FB
:101DD000E0C0D0E8C0E0E9C0E0EAC0E0EBC0E0EC81
:101DE000C0E0EDC0E0C00AC00BC00CC00DC082C096
:101DF00083C0F0759B00906182E0A2E64003021E62
:101E0000ADE591A2E64003021EAD7591BF9005BA03
:101E1000E06405700812325312325F8003123259A7
:101E20007521001232B9E99005BBF079001232AD8C
:101E30001230917A017B009005B9E0F91226B99031
:101E40007803E064426003021EF6900757E014F046
:101E50006003021EF6C2AF121E5A00782AD0E0F6C6
:101E600018D0E0F6E59F5407F970059083B280031F
:101E700090834E780A1216CAE9C4C0E07829E65564
:101E80000AF50A08E6550BF50B740B780A1217D8F9
:101E9000D0E0250AF8906270E0A2E740F8E8C3338A
:101EA000906272F0906270E0D2E0F08049E0A2E5CA
:101EB0005024E591A2E5501E7591DF9005BAE064CB
:101EC0000D70139005DCE004F064287002E4F07AF1
:101ED00000E0F912332B906181E0A2E35009E5E9BB
:101EE000A2E3500375E9F7A3E0A2E75009E591A248
:101EF000E7500375917FD0F0D083D082D00DD00C05
:101F0000D00BD00AD0E0FDD0E0FCD0E0FBD0E0FA6E
:101F1000D0E0F9D0E0F8D0D0D0E032C0E0C0D0C0FE
:101F200082C083906183E0A2E05009E5BFA2E05047
:101F30000375BFFEE0A2E15009E5BFA2E1500375C1
:101F4000BFFDE0A2E25009E5BFA2E2500375BFFB6E
:101F5000E0A2E35009E5BFA2E3500375BFF7E0A29A
:101F6000E45009E5BFA2E4500375BFEFE0A2E550DD
:101F700009E5BFA2E5500375BFDFE0A2E65009E521
:101F8000BFA2E6500375BFBFD083D0828088C0E077
:101F9000C0D0E8C0E0E9C0E0EAC0E0EBC0E0ECC0DF
:101FA000E0EDC0E0C0F0E5A7A2E6500FE5A1A2E693
:101FB000500953A7BF75A1BF121FF3E5A7A2E550B3
:101FC0000CE5A1A2E5500653A7DF75A1DFE5A7A2A6
:101FD000E15009E5A1A2E1500375A1FDE5A7A2E248
:101FE000500CE5A1A2E2500653A7FB75A1FBD0F06F
:101FF000021F0474F81218BD7521019005BAE0643F
:102000000670151231E78A828B83A3A3A3A3A3A32F
:10201000E0FAA3E0FB123241A2AFE433FED2AF906C
:1020200005C0E0640170187A207B009005B9E0F9E2
:102030001227497A207B009005B9E0F91226BF905B
:102040006182E0D2E6F0900756E0602185C62280EA
:10205000169005BFE064017008E5C654F84405F524
:10206000C653BEFC121DC87401652160E4EEA2E0F7
:1020700092AF7F01021969FF8E238F248582288504
:102080008327851A82851B83E0CEA3E0CF85288233
:10209000852783EBC9EAC8EDCBECCA75F010C3E81D
:1020A00033C8E933C9EA33CAEB33CBC3EA9EF5261A
:1020B000EB9FF525B35004AB25AA26EC33CCED33CA
:1020C000CDD5F0DAAE23AF242274EB1218BD74FA2A
:1020D0001217FA8A0A8B0B8C168D179005BAE0241A
:1020E000F7C3940550069083F202222B1231E78A3F
:1020F0000C8B0DAE0CAF0DEE4F7003022228AC0A14
:10210000AD0B851A82851B83AA82AB831232718E36
:10211000828F83A3A3780A1216CA908392780A1238
:1021200016A4851A82851B83780E1216CA90839294
:10213000780E1216A4780A790E120CE4501F780A51
:10214000790E1216649083A2780A120D0440478516
:102150000A12850B13850C14850D158041850E120E
:10216000850F138510148511157812790A121664DB
:102170009083A27812120D04501C75120075130082
:102180007514007515017812790E1216647812799B
:102190000A12162B80089083F278121216CA74095C
:1021A000781212160C9083A6780A1216CA78127941
:1021B0000A12156F8E828F83A3A3A3A3A3A3E0F8B3
:1021C000A3E0F97AD07B0312176F880A890BE4F534
:1021D0000CF50D7812790A12162B7404121845E0CA
:1021E000F8A3E0F97AD07B0312176FE8FA8A0AE4C1
:1021F000F50B7812790A120CE450077812790A125A
:1022000016649005BAE06408600AE064066005E0C0
:102210006405701C9083CA7812120D0450129083CA
:10222000D2781212163E800890836278121216CA73
:1022300085168285178378121216D9740612181023
:102240007F0E02196974F71218BD12328390075479
:10225000E064017010906245E4F0A3F053F4F3439E
:10226000FE0C5390F312322FE5C654804449F5C654
:10227000E59E547F644970F8906185740FF0900773
:1022800052E0F47002A3E0604E900753E06008143F
:10229000601B14602E8040750A01750B0090075278
:1022A000E0780A1217E7E50AF45280802A750A01DD
:1022B000750B00900752E0780A1217E7E50AF4520E
:1022C000908014750A01750B00900752E0780A128D
:1022D00017E7E50AF452A079007F0202196974F742
:1022E0001218BDE9FEEAFF74016E700C7A807B0063
:1022F0009005B9E0F91226B990354CE493F46008E2
:10230000E493F9123085800953C680E59E547F70AE
:10231000FA123235900754E06401700312309D9038
:102320000752E0F47002A3E0604B900753E06008AE
:1023300014601A14602C803D750A01750B0090071B
:1023400052E0780A1217E7E50A42808028750A01F0
:10235000750B00900752E0780A1217E7E50A4290E1
:102360008013750A01750B00900752E0780A121766
:10237000E7E50A42A01232831231E78A0A8B0BA8E2
:102380000AA90BE8496015E5E170FCE82414F58220
:10239000E93400F583E0F46003E0F5E174016F7067
:1023A0000A7A019005B9E0F91227190222D974F1CD
:1023B0001218BD8A0A8B0B8C0C8D0D740F121845E8
:1023C000780E1216CA908392780A1216A4908392FD
:1023D000780E1216A4780A790E120CE45015780AB9
:1023E000790E1216649083A2780A120D04401579B2
:1023F000018013780E790A1216649083A2780E1267
:102400000D0440EB79007F0802196974ED1218BDC4
:102410008A0A8B0B8C0C8D0D7413121845780E12D2
:1024200016CA908392780A1216A4908392780E129C
:1024300016A4780E790A120CE44011780A790E126B
:102440001664AA0AAB0BAC0CAD0D80227512007598
:1024500013007514007515017812790E1216647840
:1024600012790A12162BAA12AB13AC14AD157F0CFD
:10247000021969908392780A1216CA8A828B83782D
:102480000A1216B77F0402196974F51218BD8C82FE
:102490008D83780A1216CA8A828B83780A12169064
:1024A000EA2404F8EB3400F98C828D83A3A3A3A360
:1024B000E0FCA3E0FD88828983C3E09CF0A3E09D5B
:1024C000F088828983C3E09420A3E0944E40229058
:1024D000835E780A1216CA8A828B83780A12165192
:1024E0008A828B83A3A3A3A3E02420F0A3E0344E2D
:1024F000F0808074F51218BDE9FE90070CE0FAA395
:10250000E0FBEEC333F8E433F9749B28F582748260
:1025100039F583E02AF50AA3E03BF50B780A121996
:10252000AD9083721216E812207874021218108A85
:102530000A8B0B8C0C8D0D7410780A1215F3AA0AF5
:10254000AB0B7F0402196974F11218BD8A0E8B0F50
:102550008C108D11740F121845E0FAA3E0FB741172
:10256000121845E0F50AA3E0F50B7413121845E0C4
:10257000FEA3E0FF780A1219ADEA2401F50AEB3454
:1025800000F50BE4F50CF50D780E790A1214EF90B6
:1025900083DA780A1216CA780E790A1214EFAA0E94
:1025A000AB0FAC10AD1112207874021218108B0B07
:1025B000EA450B60047A0180027A00EC2AFCED34D3
:1025C00000FDECF8EDF97A717B0212176F880A8929
:1025D0000BE4F50CF50D8E828F83780A1216D9EC78
:1025E000F8EDF97A717B0212176F8A0A8B0B74056A
:1025F000780A1217E78E828F83A3A3A3A3E50AF0BC
:10260000A3E50BF07F08021969C082C083E99060DE
:1026100000F0D083D08222120C9469CC06120C9464
:1026200092CE06120C9486D306120C94BAD40612DB
:102630000C9482D506120C948F9807120C94CD98A6
:1026400007120C94F19807120C94289907120C9415
:10265000C09907120C94DC9A07120C94319B071254
:102660000C94D1EA06120C94DBEA06120C941CEBD3
:1026700006120C9465EB06120C949FEB06120C9458
:10268000F5EB06120C9416EC06120C941FEC0612D5
:102690000C9473EC06120C949CEC06120C94A6ECB1
:1026A00006120C9414ED06120C94A4ED06120C9470
:1026B000FFED06120C942DEE06120C94B5EE0612E8
:1026C0000C94F4EE06120C9429EF06120C943BEFD6
:1026D00006120C945AEF06120C9463EF06120C9437
:1026E0002AF006120C9465B107120C945CB2071222
:1026F0000C948E3F00120C9450A807120C9486A8DC
:1027000007120C94BAA807120C9407AA07120C948B
:102710006FB307120C9485B307120C948FB3071292
:102720000C94D9B307120C94008007120C941380F8
:1027300007120C94D48007120C94138107120C9486
:10274000308107120C94698107120C94B68107122C
:102750000C94E88107120C941F8207120C942884B1
:1027600007120C94D1B607120C94E3B607120C941E
:10277000DFB507120C94F8B507120C9459B0071284
:102780000C9476B007120C94D9B007120C9409B1CE
:1027900007120C9412B707120C9439B707120C9455
:1027A0004DFF04120C9461FF04120C9488B60712BA
:1027B0000C948EB607120C9472B707120C9495B74E
:1027C00007120C94BC9E07120C94E19E07120C9405
:1027D0000B9F07120C9432B607120C943C8405121E
:1027E0000C941A8605120C94B98705120C9464880F
:1027F00005120C94E48805120C94698905120C9456
:10280000928905120C946D8D05120C94E48D0512BD
:102810000C94FB8E05120C94358F05120C94768F58
:1028200005120C94BD9005120C94139105120C9492
:102830005C9105120C94CB9105120C943792051201
:102840000C94689205120C94809205120C94999342
:1028500005120C94A99305120C945F9505120C9423
:10286000769505120C94A89505120C944A970512BA
:102870000C94DE9705120C94B9B707120C94BCB7F0
:1028800007120C94C3B707120C949DB707120C944F
:10289000A8B707120C94ADB707120C94EFFF0412FF
:1028A0000C9445AF07120C9455AF07120C9470AFFF
:1028B00007120C9453B007120C946DB207120C94CB
:1028C000F2B207120C9456B307120C94ECFF0612E6
:1028D0000C94F83F00120C943DA607120C94A9A783
:1028E00007120C940AA807120C942DE406120C94FB
:1028F0006FE406120C948AE406120C945BE506124F
:102900000C943DE606120C944AE806120C94BCE8BE
:1029100006120C94A6E906120C948DEA06120C9489
:10292000ADAD07120C94FFAD07120C9472AE0712F6
:102930000C94DFAE07120C94F6A307120C9420A49B
:1029400007120C94EFA407120C94CBA507120C9459
:10295000D1F605120C949DF705120C94DEF70512C2
:102960000C9418F805120C9476F805120C94CAF819
:1029700005120C9428F905120C94BEF905120C945A
:10298000C6FA05120C9450FC05120C94EEFC0512CC
:102990000C9455FD05120C9468FD05120C945CFE18
:1029A00005120C94A5FE05120C945E9B06120C9465
:1029B000A79E06120C9438A006120C948FA0061243
:1029C0000C94ACA006120C942CA106120C94A8A294
:1029D00006120C9477A306120C94D8A606120C9437
:1029E000C2A706120C94FAAB07120C9411AC071292
:1029F0000C9440AC07120C9479AC07120C94A1AC67
:102A000007120C94CFAC07120C94E6AC07120C948E
:102A1000FDAC07120C9413AD07120C943AAD0712DB
:102A20000C944DAD07120C9463AD07120C9476AD67
:102A300007120C949BAD07120C94503500120C94A5
:102A40004F3600120C94843600120C94A5360012F6
:102A50000C94B53600120C94D63600120C94E23762
:102A600000120C94AF3800120C94223900120C940E
:102A7000A83900120C94EB3900120C94223A00127F
:102A80000C94A83A00120C947A3B00120C94D83B98
:102A900000120C94F03B00120C946A3C00120C944F
:102AA0006D3C00120C94703C00120C94173D001207
:102AB0000C942F3D00120C945F3D00120C947F3D4E
:102AC00000120C946D3E00120C94233F00120C94E3
:102AD00028FA06120C9450FA06120C947EFA06128A
:102AE0000C94B5FA06120C941DFB06120C9466FBAE
:102AF00006120C94B1FB06120C94EFFB06120C9418
:102B00002CFC06120C945AFC06120C9401FD0612C1
:102B10000C940BFD06120C9418FD06120C944BFD40
:102B200006120C940DFE06120C9419FE06120C945B
:102B300031FE06120C943BFE06120C9407FF0512A0
:102B40000C9415FF05120C942DFF05120C9445FFF3
:102B500005120C9479CB05120C9417CC05120C9429
:102B60008FCC05120C94A4CD05120C94DECD051269
:102B70000C9487CE05120C945CCF05120C94C0D037
:102B800005120C9417D105120C949ED105120C94C9
:102B900085D205120C94D2D205120C9460D3051282
:102BA0000C9484D305120C9459D505120C949AD523
:102BB00005120C94BCD505120C943DD605120C944C
:102BC00027D705120C94EDD705120C9421DD0612BF
:102BD0000C94F3DD06120C949CDE06120C94DFDEDE
:102BE00006120C946CDF06120C94F8DF06120C949B
:102BF000D9E006120C9408E106120C9404E20612C5
:102C00000C944CE206120C944EE306120C9492E3E0
:102C100006120C94B8E306120C9405B407120C9437
:102C2000219107120C94379107120C945D910712B1
:102C30000C94859207120C948F9207120C94E893CF
:102C400007120C94E89407120C9458F006120C9496
:102C50008DF106120C94C0F106120C940AF20612C1
:102C60000C94C8F306120C941CBC05120C947FBC87
:102C700005120C94C4BD05120C94D4BD05120C941D
:102C8000F7BD05120C9442BE05120C94E7BE051266
:102C90000C94DDBF05120C94A7C005120C941FC242
:102CA00005120C9461C205120C94FFC205120C941B
:102CB0004CC305120C9472C305120C9460C5051226
:102CC0000C9465C505120C9446C705120C949AC75E
:102CD00005120C94FCC705120C9424C805120C9420
:102CE000C8C805120C948AC905120C94BBC90512F8
:102CF0000C94BEC905120C9406CA05120C9448CA5D
:102D000005120C94AFCA05120C94A0A107120C94E2
:102D1000B3A107120C94CCA107120C9417A20712AE
:102D20000C94F2A207120C9481A307120C94CCA36A
:102D300007120C9400B004120C940CB004120C9402
:102D400045B004120C948AB004120C9441B10412E0
:102D50000C94C7B104120C942CB204120C9458B207
:102D600004120C9491B204120C94A5B404120C94A5
:102D700081B604120C946CB804120C94A3B904121A
:102D80000C9403BC04120C94EFBC04120C9435BEDA
:102D900004120C9442BF04120C945FBF04120C94F2
:102DA00097BF04120C94B1BF04120C9419C0041202
:102DB0000C94B3C404120C9454C504120C94A5C50D
:102DC00004120C94CCC504120C941AC604120C9470
:102DD00038C604120C948CC604120C9494C70412C6
:102DE0000C941CC804120C947EF506120C9488F501
:102DF00006120C9453F606120C946EF606120C94FE
:102E000094F606120C94D8F606120C9410F70612DB
:102E10000C9439F706120C94B2F706120C94C7F70B
:102E200006120C94DCF706120C9413F806120C949C
:102E300027F806120C9458F806120C9492F8061211
:102E40000C94BEF806120C9414F906120C9468F94E
:102E500006120C94B1F906120C94DBF906120C94CC
:102E600000FA06120C94358D07120C94FF8D071290
:102E70000C94E28E07120C94588F07120C949A8FC0
:102E800007120C94C79007120C9458A806120C94C1
:102E900081A806120C949AA806120C94DFA90612B7
:102EA0000C94BDAA06120C94DCAA06120C9469AB11
:102EB00006120C94ACAB06120C94F9AC06120C94EE
:102EC00098AD06120C9417B006120C94AEB0061210
:102ED0000C9482B106120C9464B206120C94D0B316
:102EE00006120C9463B406120C94D0FE06120C94D5
:102EF00039FF06120C948DFF06120C94B4FF0612D3
:102F00000C94948407120C94018507120C944C8540
:102F100007120C94418607120C943D8707120C94FB
:102F2000278807120C94DFF604120C9421F7041280
:102F30000C94FBF704120C94D4F804120C94CFF9FF
:102F400004120C94AEFA04120C941AFB04120C94A2
:102F5000E1FB04120C944CFC04120C94B3FC04121C
:102F60000C94DEFC04120C944FFD04120C94E2FD50
:102F700004120C944BFE04120C9460FE04120C9488
:102F8000A8FE04120C94C1FE04120C9426FF041235
:102F90000C9429FF04120C94C29B07120C94EA9B18
:102FA00007120C94289C07120C94E69C07120C94B0
:102FB000519D07120C946D9D07120C94959D07125C
:102FC0000C94C59D07120C94D49D07120C944E9E30
:102FD00007120C94749E07120C94A0E805120C942E
:102FE0007DEA05120C9478EC05120C944BED051259
:102FF0000C9496ED05120C94E1ED05120C94F3ED92
:1030000005120C9433EE05120C9468EE05120C9424
:10301000B4EE05120C94E3EE05120C9406EF0512C3
:103020000C9453EF05120C94DCEF05120C94E9F1AB
:1030300005120C94D4F305120C9417F405120C9499
:103040007CF505120C94BDF505120C9430F60512B2
:103050000C947CF605120C94A7F605120C94DAB4C5
:1030600006120C9405B506120C94ECBB06120C94D7
:1030700010BE06120C94CBBF06120C9428C1061287
:103080000C9483C804120C941AC904120C9447C9F6
:1030900004120C948DC904120C94CCCA04120C9422
:1030A00063CC04120C94DDCC04120C94F8CC041202
:1030B0000C946DCD04120C949CCE04120C94F7CF9A
:1030C00004120C94F9D004120C9456D204120C94ED
:1030D0006FD204120C94CCD204120C94AED304120E
:1030E0000C94E1D304120C9451D404120C94CBD45C
:1030F00004120C941AD504120C94E6D504120C9404
:10310000EBD604120C94CAD704120C9455D80412AE
:103110000C94C3D804120C9437D904120C9460D9BF
:1031200004120C941FDA04120C9499DB04120C9410
:10313000B6DB04120C94D5DB04120C9466DC04128A
:103140000C948BDC04120C94B3DC04120C942EDD72
:1031500004120C9488DD04120C94DCDE04120C942E
:1031600099DF04120C946CE004120C940080061297
:103170000C94508006120C945C8006120C943981D9
:1031800006120C94698106120C94A18106120C940B
:10319000208206120C94588206120C94AA820612FF
:1031A0000C94E78206120C940C8506120C94388756
:1031B00006120C94338906120C940E8B06120C9492
:1031C000ED3F00120C941C9805120C9466980512A1
:1031D0000C94459E05120C94C69F05120C9425A6CE
:1031E00005120C9420A705120C945DA705120C94EF
:1031F00080A705120C94C2A705120C94CBA7051248
:103200000C94D5A705120C94C1A805120C94B5A96D
:1032100005120C949AE004120C9412EB04120C9414
:1032200018EB04120C9424F204120C94F29407127A
:103230000C94889507120C949E9507120C9418967E
:1032400007120C946E9607120C94AC9607120C940D
:10325000099707120C94869707120C948F97071200
:103260000C949B9707120C94AE9707120C94EA9754
:1032700007120C94009807120C945F9807120C9494
:10328000E98807120C94F68807120C94108907122B
:103290000C944F8907120C948D8907120C94F289B3
:1032A00007120C94078A07120C94128A07120C94C6
:1032B0001F8A07120C94368A07120C94448A07124C
:1032C0000C944F8A07120C945B8A07120C946A8A3A
:1032D00007120C94758A07120C94988A07120C94A2
:1032E000418B07120C94518B07120C946B8B0712B5
:1032F0000C94888B07120C94A48B07120C94C98B26
:1033000007120C94D38B07120C94E78B07120C94C2
:10331000068C07120C94678C07120C946D8C0712A4
:103320000C94738C07120C94798C07120C94858C76
:1033300007120C94B88C07120C94D48D06120C94BE
:10334000568E06120C94FF8E06120C9447900612AD
:103350000C94559206120C943B9306120C947093A5
:1033600006120C94929306120C943B9406120C9441
:103370000B9606120C94349606120C94AC96061218
:103380000C94DE9606120C94EB9606120C9436976B
:1033900006120C945A9706120C94AB9906120C94D0
:1033A000B59A06120C94119B06120C9422DA05129F
:1033B0000C9433DB05120C9417DC05120C9421DC01
:1033C00005120C9443DC05120C944FDC05120C948E
:1033D000F3DD05120C9420DE05120C9436DF051285
:1033E0000C948BDF05120C94DAE005120C94AFE11B
:1033F00005120C940BE205120C9476E205120C9463
:10340000ABE205120C94EEE205120C94B8E505123D
:103410000C94D0E505120C9461E605120C946FE64D
:1034200005120C94BCE605120C94CAE605120C9425
:1034300036E705120C94B1E705120C9408E8051262
:103440000C944BC106120C946DC106120C947EC3F1
:1034500006120C943DC606120C9467C706120C9413
:1034600025C806120C9411C906120C9441AA071221
:103470000C9466AA07120C94DCAA07120C9404D6CA
:1034800006120C940DD606120C9416D606120C9445
:10349000EED606120C949FD806120C94CFD80612C2
:1034A0000C94FAD806120C942AD906120C9455D909
:1034B00006120C9489D906120C94B5D906120C94F4
:1034C000F8D906120C9423DA06120C946ADA061262
:1034D0000C94BFDA06120C9401DB06120C945BDB31
:1034E00006120C9486DB06120C94D5DB06120C94A3
:1034F00005DC06120C9430DC06120C945EDC06121D
:103500000C9481DC06120C948EB407120C94BAB49D
:1035100007120C94E7B407120C94F1B407120C9440
:1035200001B507120C9445B707120C947DB507122C
:103530000C948EB507120C94DEFF05120C94CDABE3
:1035400005120C94EBB005FFFFFFFFFFFFFFFFFF2D
:1035500074F2121851ECFEEDFF8A828B83A3A3A3B1
:10356000A3A3A3A3A3E0F50C6027EA2406F8EB3499
:1035700000F9880A890B8882F583E0FCA3E0FD8CC2
:10358000828D83E0F50DA2E7504EE50CC3940D50FB
:1035900005790102364A74F4250CF50CF50EEC257C
:1035A0000EF50EED3400F50F780E1219ADE50CF5A1
:1035B0000E780E1219B179018A828B83A3A3123B74
:1035C0002B1233497403121810E98E828F83700412
:1035D00074018009740280058E828F83E4F0E50D0A
:1035E000A2E65004D2F08002C2F0A2F0E433A3F0CD
:1035F000743F550D8E828F83A3A3F0EE2403F8EF62
:103600003400F9E50C24FFFAE434FFFB8882898357
:10361000EAF0A3EBF0EE2405FAEF3400FB88828990
:1036200083123913496019850A82850B83E02401CE
:10363000F8A3E03400F98A828B83E8F0A3E98007DD
:103640008A828B83E4F0A3F079007F060219237449
:10365000F7121851123D23A3AA82AB838C828D836B
:10366000A3A882A98312390B8C828D83A3A3A312F2
:103670003D277A047B000236B0C082C083123B5AD9
:103680007A02802374F71218517409121845123AFD
:1036900014121845123A0D7001EB7005123A1C8095
:1036A000027904800B80D27B00D083D082020C91FF
:1036B0007F0102192374F712185174091218451268
:1036C0003A14121845123B9C7001EB7005123BA393
:1036D0008002790480DA74EE121851EAFEEBFF8C56
:1036E0000E8D0F750A01750B008C828D83A3858268
:1036F000108583111237D9750C008036E51275F0EC
:1037000012A4F512E5F0F513123796751210751321
:103710000078121219AD123788121810EE2410FE1C
:10372000EF3400FFE50A2412F50AE50B3400F50B2F
:10373000050C850E82850F83E0F8E50CC398504197
:103740008E828F83A3AA82AB83850C8285821275B9
:103750001300851082851183E06401709F740278E4
:10376000121217E7123796751202751300781212AB
:1037700019AD1237881218101237CFE50A240480C9
:10378000A7AA0AAB0B023E68EC2404FCED3400FD52
:103790000AEF123CF722E50E2512FCE50F3513FD6A
:1037A0001237B21237C8EAFEEBFF888289831237DC
:1037B000BF22EC2402F8ED3400F98882898322A329
:1037C0001237C8A30EAF8322E08E828F83F022EEE1
:1037D00024020E0EEF3400FF221237C8A3AE82AFD0
:1037E000832274F2121851ECFEEDFF740E1218458C
:1037F000E0F50CA3E0F50D74101218451238A7C3BC
:10380000E50C9406E50D940050030238A28E828FD9
:1038100083E0FAA3E0F9EA850A82850B83F0A3E945
:10382000F08E828F83A3A3E0FA8E828F83A3A3A35B
:10383000E0F8E4C8F9EA850A82850B83A3A3F0A324
:10384000E9123F81A3A3A37402F0F50E880F780E4E
:103850001219ADEE2404FCEF3400FDE50A2405FA4C
:10386000E50B123CE7121810E50C24FAF50C850A5A
:1038700082850B83A3A3A3A3A3A3A3F0C394115096
:1038800021750D00780C1219ADEE2406FCEF340002
:10389000FDE50A2408FAE50B123CE712181079003E
:1038A0008002790402364AE0F50AA3E0F50B22749F
:1038B000F5121851750C008030850C0A750B0074D8
:1038C00002780A1217E7EC250AF8ED350BF9888221
:1038D0008983A3AE82AF83123BDBE8240308080888
:1038E000E91237B712390B050C8C828D83E0F8E5AD
:1038F0000CC39840C4E0F50A750B007402780A12F4
:1039000017E7AA0AAB0B7F03021923123A99A30AFD
:10391000AB8322123C64E82274101218107F040258
:10392000192374F6121851740A121845123D0F1219
:103930001845123B2BEA2404F8EB3400F974066EA8
:103940007001EF7046888289837402F08C828D83C7
:1039500012399F8A828B83F0A3EF123CFEA3E0FE14
:10396000E4CEFFE50A8A828B83A3A3F0A3EFF0885D
:10397000828983E0F50A8E0B780A1219AD123CD0C9
:10398000123CE61218107900023A7474146E700139
:10399000EF700888828983741080B0790480E9E030
:1039A000F50AA3E0FFE50A2274F61218518C828D05
:1039B00083A3E0F8F5F08C828D83E0A4FEE88A8290
:1039C0008B83F0A3AA82AB838E0A750B00780A1250
:1039D00019ADEC24021239E1121810EE2401023A5A
:1039E0006F0C0CED3400FD123CF82274F7121851E4
:1039F0007409121845123A14121845123A0D700142
:103A0000EB7005123A1C800279040236B0123C6455
:103A100074026A22E0FAA3E0FB740B22123BC57920
:103A2000002274F6121851ECFEED123A7D1219AD17
:103A30008E828F83A3AC82AD83123F8A1218108EC0
:103A4000828F83E0FA7B00802B74F6121851123AB1
:103A50008BA30AAB83EC2404123A791219ADEC243F
:103A600005FC1239E31218108E828F83E02404FAC9
:103A7000E43400FB7F02021923FEED3400FF8E8246
:103A80008F83E0F50A750B00780A22123B5EA30AC9
:103A9000AB831237B2123A9922123B73A30AAB835B
:103AA00088828983123B722274F4121851890A8A1F
:103AB0000B740C121845123C60740E121845123B20
:103AC0002BC3E89402E9940040548C828D83E0F586
:103AD0000CA3E0FFE50C8A828B83F0A3EFF0EA24CD
:103AE00017123B23E50AF0EA2418123B23E50BF0FA
:103AF000E50A70047E1480027E08E824FEF50C8A34
:103B0000828B83A3A3F0EEC3950C4012750D007851
:103B10000C1219AD123CDD121810790080027904E4
:103B200002391DF582EB3400F58322E0FAA3E0FBB5
:103B30002274F6121851123B5AA30AAB83EC2402EA
:103B4000123A791219ADEC24030C1239E112181053
:103B50008E828F83E02402023A6F123B5E228C82B7
:103B60008D83123B73A3AA82AB838C828D83123B1D
:103B70007222A3E08A828B83F02274F712185174A8
:103B800009121845123A14121845123B9C7001EBA9
:103B90007005123BA3800279040236B0123C6474B3
:103BA000046A22123BC58C828D83A3A3E0FE8C8223
:103BB0008D83A3A3A3E0FBEE88828983A3A3F0A354
:103BC000EBF07900228C828D83E0FEA3E0FBEE888F
:103BD000828983F0A3EBF022023A22123D2BA3AAA2
:103BE00082AB838E828F83A3123D2BA30AAB8322E9
:103BF00074F6121851740A121845123C60740C12B3
:103C00001845123B2BE8A2E04051E9C313E813F535
:103C10000B74FE250BC3940A5041EA2416123B2371
:103C2000E50BF0750A0080288C828D83E0FEA3E00E
:103C3000F9EE2400E439FFE50A33F8E433F9EA2821
:103C4000F582EB39F583EEF0A3EFF0123CED050AB7
:103C5000E50AC3950B40D1790080027904023A74D9
:103C6000123C6422E0F8A3E0F922023A220239A8C9
:103C700074F6121851740A121845123D0F121845A5
:103C8000123D6F9404EF940040418C828D83123D6D
:103C90001A8A828B83F0A3E9123CFE123D62A3A331
:103CA000F0A3E9F0EE24FCF50A8A828B83A3A3A398
:103CB000A3F0C394135014880B780A1219AD123C68
:103CC000D0123CE6121810790080027904023A748E
:103CD000EC2404FCED3400FDEA2405FA22123CED4C
:103CE000EA24030A0A0AEB3400123CF722EC24020D
:103CF0000C0CED3400FD22FB122665740222F08CC0
:103D0000828D83A3A3E0F50A8C828D83A3A322E096
:103D1000FEA3E0FF740C22023A49E0F50AA3E0F9A1
:103D2000E50A228C828D83123D2B22123B7322C026
:103D300082C083851A82851B83123B2B7402121862
:103D400045123C6074016A7001EB700E8C828D83A9
:103D5000E088828983F07900800279040236A90222
:103D60003B31A3E0F8E4C8F9E50A8A828B8322128A
:103D70003D74EE22E0F8A3E0F9E8FAE9FBC322740F
:103D8000EE12185174FA1217FA8A108B118C0C8DDE
:103D90000D890E7418121845E0F512A3E0F5137A98
:103DA000177B00122F8F8A0A8B0BAE0AAF0BEE4FD8
:103DB0007003023E5E8E828F83750A01750B00E5EB
:103DC0000EF0A3E50C450D601BAC12AD13AA82AB3F
:103DD00083850C82850D8312184FEA2401F50AEBC6
:103DE0003400F50BE50EA2E7502E7910AA10AB11A6
:103DF000122FB9E97063EE250AFCEF350BFDA90A15
:103E0000EEFAEFFB123343E9F50C7044E50A240C9B
:103E1000F50AE50B3400F50B851A82851B837404C3
:103E2000F0A3E4F07402121845EEF0A3EFF074046E
:103E3000121845E50AF0A3E50BF0851A82851B836D
:103E4000AC82AD83AA10AB11122EEDE9F50C601116
:103E5000EEFAEFFB1229238008750C1980F2750C1D
:103E600013A90C74061218107F0A02192374F41295
:103E7000185174F01217FAEAFEEBFF741C12184581
:103E80001238A7741E121845123F1C7001ED600C09
:103E900074106C7001ED60047900807D74026870AC
:103EA00001E960087410687001E970ECE86C700258
:103EB000E96D700F8C0C8D0D780C1219ADAC0AAD3C
:103EC0000B804E74106C7001ED851A82851B83ACDB
:103ED00082AD837021AA0AAB0B122AC7750A10752E
:103EE0000B00780A1219AD7402121845AC82AD832A
:103EF000EEFAEFFB801B122AC7750C10750D0078C7
:103F00000C1219AD7402121845AC82AD83AA0AAB2B
:103F10000B1226777402121810023918123C6474BE
:103F2000026C2274F41218518A0A8B0BECFEEDFF1E
:103F3000EA450B6047EE4F6043750C10750D007835
:103F40000C1219AD7C4B7D82EEFAEFFB123F8A1208
:103F50001810850A82850B83E0C0E0EE240CF58200
:103F6000EF123B26D0E0123F81E0C0E0EE240DF5D9
:103F700082EF123B26D0E0F079018002790002390D
:103F80001DF0850A82850B83A322123CF822C08291
:103F9000C0837A187B001227019002C4EAF0A3EBD9
:103FA000F07C187D00790012267D7900122FD779D8
:103FB0000112289F790212350579031229357904F7
:103FC000122EFF7905122C237906122D0D79071276
:103FD000346979081229BF790912284B790A122D00
:103FE00037790B122617D083D082020C91020C91E4
:103FF000FFFFFFFFFFFFFFFF851C87C2AF020C9191
:020000040002F8
:10300000C082C083E9900BF4F002B28474F7121806
:1030100051E99004D8F07C107D057AFF7BFF122DDA
:10302000C19004D974FFF0A3F0A3E4F0A3F07905F4
:10303000122D499004D8E0F9122C717AD97B2D1207
:103040002F9B02BF9274F41218518A0A8B0BEB5417
:103050008060309004D8E0F91226A18A0C8B0DAE66
:103060000CAF0DEE4F60138E828F83E064B070035F
:10307000122D61EEFAEFFB12268FAA0AE50B64808F
:10308000FB80047A007B0002B25374F21218517470
:10309000FC1217FAEAFEEBFF741212184512C479FB
:1030A000EE4F700302B12D7402121845EEF0A3EF3B
:1030B00012B48EECF0A3ED12B48EAA82AB83122C64
:1030C0006BE9F50C706AE50A450B60648E828F83AC
:1030D00012C45FEE4F60567A067B001227018A0EFB
:1030E0008B0FA80EA90FE8497005750C1380418855
:1030F000828983E412B13AEEF0A3EF12C48AE50AA2
:10310000F0A3E50BF09004DE12B1C19004DE70056F
:1031100012BF3C801B12BF2A8003EAFCEBFD8C82AD
:103120008D8312B1C170F38C828D8380E3750C02A4
:10313000A90C740412181002C679F0A312C430A3AB
:103140002274F2121851890CE975F017A4FEAFF041
:103150009004DDE4F09004DB12B1C1600A1227078D
:103160009004DBE4F0A3F0EEFAEFFB1227018A0AE9
:103170008B0BEA450B602FEEFCEFFD790012267DEC
:103180009004DBE50AF0A3E50BF07B00800812B1A8
:10319000ABE4F0A3F00BEBC3950C40F2E50C90040C
:1031A000DDF079008002791302C679EB75F017A47F
:1031B000F8A9F09004DBE028FAA3E0398A82F583CD
:1031C0002212BBCEEA4B2274F4121851740C12185E
:1031D0004512C454FEE9FF750A00750B00800CE52A
:1031E0000A2401F50AE50B3400F50BC3E50A9CE55A
:1031F0000B9D5032850A0C850B0D7403780C121749
:10320000E7EA250CF8EB350DF988828983A3A3A39F
:10321000A3A3A312C011EE650C7003EF650D70BF80
:10322000E8FAE9FB80047A007B00802774F4121826
:10323000517900EAA2E0501B750A3E750B83780AAB
:103240001219AD7C047D007AF67B0B122D437402BB
:103250001218107F04021923C082C0839004DE126A
:10326000B28B601C88828983A3A3E06A7003A3E009
:103270006B8882898370E8A3A3A3A312BBCA8004CE
:103280007A007B00D083D082020C9112C75FE8499C
:103290002274EE12185174FC1217FAEAFEEBFF8545
:1032A0001A82851B83E4F0A3F0EE240212BF1CEE09
:1032B000240512C437EE2404F510EF12B843E024BD
:1032C000FE603924FC604624FE605224FE605E24C9
:1032D000FE700302B3A424FE700302B40824FE703F
:1032E0000302B41724FE700302B42624FC70030208
:1032F000B43524FE700302B44402B4819004F77420
:1033000017F0A3E412B4961229E902B481851A8257
:10331000851B83AC82AD83122D6702B451851A825E
:10332000851B83AC82AD83122D6D02B451850E0ACC
:10333000850F0B7402121845AC82AD83850A828515
:103340000B8312BBCA122C8F8A0E8B0FAC0EAD0FE3
:10335000EC4D603BE4F50EF50F780E1219AD750ECD
:10336000F7750F04780E1219AD750EF8750F047805
:103370000E1219AD74081218451219C412C783121F
:103380001810E9F50E700B12BBC0122A01800F75E0
:103390000E01850A82850B8312B48412BF3C850E10
:1033A0000A02B4547402121845AC82AD83850E82B1
:1033B000850F8312B995603C850E82850F83A3A388
:1033C0001219C47512F775130478121219AD75121B
:1033D000F875130478121219AD74081218451219F1
:1033E000C412C783121810E9F50B700B12BBC01280
:1033F0002A07800F750B01850E82850F8312B48416
:1034000012BF3C850B0A804C851A82851B83AC82D7
:10341000AD83122D73803A851A82851B83AC82ADF1
:1034200083122D79802B851A82851B83AC82AD8314
:10343000122D7F801C851A82851B83AC82AD83127E
:103440002D85800D851A82851B83AC82AD83122D5C
:103450008BE9F50AE50A60298E828F83A3E0641464
:10346000601F851082851183E09004F712B48E12DC
:10347000C75B9004F812BF3CE50AA312B496122968
:10348000E302BE2B12C75F851A82851B8322F0855B
:103490001A82851B8322F07CF77D04850C82850DC2
:1034A0008312BBCE2274EE12185174FC1217FA8AE2
:1034B0000C8B0D8C108D11EA2405F50AEB3400F508
:1034C0000B7C157D0079007AF77B0412267DE50AD6
:1034D0002402F50EE50B12C43A851A82851B8385FA
:1034E000821285831378121219AD850A82850B83A7
:1034F000A3A3A3A312B98C1219ADE50A2405F512F2
:10350000E50B3400F51378121219AD850E82850F84
:103510008312BCE1122C8974061218108A128B13C4
:10352000AE12AF13E50C2402F50CE50D12BF1FEE31
:103530004F700302B6638017740212184512BBCA9B
:1035400088828983EAF0A3EBF09004F7E004F0901E
:1035500004F7E0C39405400302B663E4F512F513E3
:1035600078121219AD7512E075130478121219ADA4
:103570007512E175130478121219AD74061218450C
:103580001219C47910EEFCEFFD12C785121810E96C
:10359000705E850A82850B83A3A3A3A3A3A3A3E0E4
:1035A000F89004E0E068704812B98C1219AD7CE123
:1035B0007D04E50A2408FAE50B3400FB1226777433
:1035C00002121810E960298E828F83A3A3A3A3128D
:1035D000BBCA9004F7E0F512740278121217E77470
:1035E000F82512F58274043513F583EAF0A3EBF0A5
:1035F000740212184585821285831378121219AD50
:1036000074021218451219C4850E82850F8312BBED
:10361000F01218108A128B13AE12AF139004F7E059
:10362000F512751300740278121217E774F7251259
:10363000F874043513F988828983A312B1C1700329
:1036400002B52FE82403080808E93400F9EE4F60BA
:103650000302B5388882898374FFF0A3F09004F7E1
:10366000E004F09004F7E0600A12BBC01229F5797B
:1036700000800B850A82850B8312BF33790A02BE54
:103680002B74EA12185174FE1217FA8C148D15EA75
:103690002405F50EEB12C76D12C463750A00750B95
:1036A00000EA2402F512EB3400F513851A82851B1B
:1036B0008385820C85830D780C1219AD850E828569
:1036C0000F83A3A3A3A312B8591219ADE50E2405C5
:1036D000F50CE50F12BF1F780C1219AD850E82850F
:1036E0000F8312B85D122C8974061218108A0C8B85
:1036F0000DEA450D700302B7FEEA2404F510EB1243
:10370000B84312C4638A828B83A3A3A3E0F9851212
:103710008285138312BBD4600302B7FEE4F516F56D
:103720001778161219AD7516E07517047816121968
:10373000AD7516E175170478161219AD74061218D6
:10374000451219C47913AC0CAD0D85128285138313
:1037500012C78B121810E9F50B600302B7FE900434
:10376000E0E0F8E50A7009E024029004F8F0801423
:103770009004F8E0FCE82402FAE43400FBEA6C7000
:1037800001EB707E850A82AA8212B983941412B961
:103790007B506B851082851183E0C0E074F92A129A
:1037A000B83AD0E0F0050A851082851183A3E0C005
:1037B000E0850A0C74F9250C12B83AD0E0F0050A3D
:1037C0009004E012B8591219AD7CE17D04850A0C11
:1037D00074F9250C12B84D1218109004E0E0250A77
:1037E000F50A74FF6E700374FF6F6012EE24010E11
:1037F000EF3400FFE50AC39414500302B6ABE50AA8
:10380000601312BBDE85128285138312BBCA122994
:10381000FB79008014E50B7003750B0A8514828513
:103820001583EEF0A3EFF0A90B74021218107F0EAF
:10383000021923850A0E74F9250EF58274043400EA
:10384000F583223400F511851082F58322FA740481
:103850003400FB12266574022212C49922A3A3121B
:10386000B8632212BF2AFDEEFAEFFB2274EE1218A3
:103870005174FE1217FA8C108D11EA2405F50EEB27
:1038800012C43A750D009004F7E4F0F50CEA240236
:10389000F50AEB3400F50B80449004F7E0FA90044D
:1038A000E0E0F812B983941712B97B400D9004F749
:1038B000E0F87416C3989004E0F012B98C1219ADB8
:1038C0007CE17D0474F82AFA740412B850121810BE
:1038D0009004E0E0F89004F7E028F0050CE50E24F1
:1038E00016F582E50F12B83EE0F8E50CC398507467
:1038F0009004F7E0C39416506BE50CC333F8E4333F
:10390000F9E50E28FEE50F39FF851A82851B83AC89
:1039100082AD838E828F8312B9957008750D011266
:10392000BF2F8050E4F512F51378121219AD7512FD
:10393000E075130478121219AD7512E1751304784D
:10394000121219AD74061218451219C47916850A97
:1039500082850B8312C78B121810E9F50D700302D4
:10396000B89980BB7CF77D04850A82850B8312BBE6
:10397000CA122A0DA90D740202BE2DE99400C36576
:10398000D03322EA28F8E43400F9E822E0F5127591
:10399000130078122212BE228A128B13AC12AD13BE
:1039A000EC4D2274EA12185174FC1217FA8A0E8B2D
:1039B0000F8C148D15EA2405F50CEB12BF1F750A48
:1039C00000750B00E50C2402F512E50D3400F5132B
:1039D000740212184585821085831178101219AD72
:1039E000850C82850D83A3A3A3A312C43F1219AD36
:1039F000E50C2405F510E50D3400F51178101219C9
:103A0000AD85128285138312BF2512BBC4122C8987
:103A100074061218108A108B11AE10AF11E50E2427
:103A200002F510E50F3400F511803888828983741F
:103A3000FFF0050A12B83374FFF0050A9004E0E0C5
:103A4000F50E750F00780E1219AD7CE17D04850A24
:103A50000E74F9250E12B84D1218109004E0E025EE
:103A60000AF50AEE4F60278E828F83A3A3A3E0F9A5
:103A700085108285118312BBD4EE240412C437E969
:103A80006027850E82850F8312BBB612BF3CE50A04
:103A9000700302BB9C12BBDE85108285118312BBB2
:103AA000CA122A13790002BBB1E4F516F51778168D
:103AB0001219AD7516E075170478161219AD751642
:103AC000E175170478161219AD7408121845121909
:103AD000C47911EEFCEFFD85108285118312C78B2E
:103AE000121810E9F50B709A850A82AA82EA9004EE
:103AF000E07009E024049004F8F08025E0F89004D8
:103B0000F8E0F516E82404FCE43400FDEC651670DA
:103B100001ED708112B983941212B97B400302BA8D
:103B200095850E82850F83E0C0E074F92A12B83AB9
:103B3000D0E0F0050A850E82850F83A3E0C0E01275
:103B4000B833D0E012BBF985820E85830F780E1250
:103B500019AD74041218451219C485128285138395
:103B600012BBF01218108A0E8B0FAE0EAF0F850A23
:103B70000E74F9250EF874043400F9EE4F70030248
:103B8000BA2B851A82851B83E08882898312BBF950
:103B9000A3E0C0E012B833D0E002BA39E50B7003FD
:103BA000750B0A850C82850D8312BBB612BF3CA92A
:103BB0000B740402B82B12C75F851482851583220B
:103BC0007CF77D04850C82850D8312BBCE22E0FA42
:103BD000A3E0FB2212BBCE122C77E9F50B22900456
:103BE000F8E0F5F0E50A849004F7F07CF77D042214
:103BF00012B863122C95740422F0050A851A828586
:103C00001B832274EC12185174FE1217FA8A0A8B65
:103C10000B8C108D11EA2405FEEB3400FF12BE0C54
:103C2000EE241812C437EA450D700302BCAF12BD72
:103C3000F5502912BCD48A128B13EA4513606B79B4
:103C400012AC0CAD0D850A82850B8312BBCA85129E
:103C50008285138312184FE9F50C7058E4F50CF5C2
:103C60000D780C1219AD8E828F83A3A3E0F50C782A
:103C70000C1219ADEE240312BF1C780C1219AD8E74
:103C8000828F8312BCE1122DAF7406121810E9F571
:103C90000C7021850E82850F83E0701F850A828556
:103CA0000B8312BBCA122A198011750C0E8009757C
:103CB0000C018004E50C600312BF2F850E82850F76
:103CC00083E0600479008002A90C74021218107F4E
:103CD0000C021923851A82851B8312BBCE122D9DDF
:103CE0002212BF2AFD850A82850B8312BBCE227465
:103CF000EE12185174FE1217FA8A0A8B0B8C0E8D75
:103D00000FEA2405FEEB3400FF75100012BE0CEA2A
:103D1000450D700302BDD312BDF5502C12BCD48AE0
:103D2000108B11EA4511604A7912AC0CAD0D850A71
:103D300082850B8312BBCA85108285118312184FAE
:103D4000E9F510600302BDD6850A82850B8312C097
:103D500011AA0CFB12BDE770147AFF7BFF12BDE7BE
:103D6000606C88828983E50CF0A3E50DF0750C008A
:103D7000800775100E805F050C9004DDE0FAE50CFD
:103D8000C39A504AE50C75F017A4FAABF088828903
:103D900083A3A3E02AFAA3E03BFB8A828B8312BFB2
:103DA00025EC4D70D2750C17750D00780C1219ADFD
:103DB000EEFCEFFD1226657402121810EEFCEFFD0A
:103DC000850A82850B8312BBCA122A1F80147510C4
:103DD00009800375100112C757850E82850F831263
:103DE000BF3CA91002B976122D918A128B13A8122A
:103DF000A913E84922E50A2402F50AE50B3400F587
:103E00000B8A828B83A3A3A3E0A2E522851A828575
:103E10001B83AC82AD838E828F8312BE228A0C8B71
:103E20000D22E0FAA3E0FB122C8F2274041218106A
:103E30007F0A02192374EC1218518C128D13EA2494
:103E400005F50EEB12C43A751100EA2402F50CEBED
:103E500012BF1F850C82F58312BBCA12C8117003F2
:103E600002BF117510008071850E82850F83E0649A
:103E700001704F8E828F83A3A31219C48E828F8309
:103E8000A3A3A3A3E0F51475150078141219ADEEE1
:103E90002405F514EF3400F51578141219AD12BB92
:103EA000C4122DAF7406121810E9F5116014850EB6
:103EB00082850F83E4F012C757851282851383121F
:103EC000BF3C7C177D007900EEFAEFFB12267D8E59
:103ED000828F83E4F0A3F005109004DDE0F8E51094
:103EE000C398501EE51075F017A4F8A9F0850A8252
:103EF000850B83A3A312C77712BF25EC4D60030285
:103F0000BE68850A82850B8374FFF0A3F0E511700B
:103F10000612BBC4122A25A91102BCCFF50CEF343E
:103F200000F50D22A312BF2AFD22E0FCA3E0228EA1
:103F3000828F8312C75F851082851183E8F0A3E921
:103F4000F022C082C0839004D9E06A7003A3E06BC2
:103F500070067AD97B0480047A007B0002B28474F4
:103F6000F71218517F00EF75F003A4F8A9F0EC28C0
:103F7000F8ED39F988828983E06A7003A3E06B70F9
:103F800006E8FAE9FB800B0FEFC3940240D87A00F1
:103F90007B007F0102192374F612185112C5487074
:103FA000067A007B008007A3A3A3A312BBCA02C6A4
:103FB0000974F2121851E9FE740E12184512C0115C
:103FC000741012184512C4798C828D83E0640270DB
:103FD0003BA312C75B88828983E0F50EA3E0F9A8B2
:103FE0000E74026870037429697021750E02750FD2
:103FF00000780E1219AD780A1219AD780C1219ADAD
:10400000EEF9122DD374061218108002790102C63F
:1040100079E0F50CA3E0F50D2274E812185174FB59
:104020001217FAE9851A82851B83F08A188B198C7E
:10403000108D11741F12184512C47974211218457D
:1040400012C011742312184512C4637512008C82B9
:104050008D83A3A3A3E0A2E4502A741D1218451275
:10406000BCDA8A828B83E5824583700302C125799D
:104070000AAC10AD11AA18AB1912184FE9F512606D
:104080000302C128851082851183E0640260030267
:10409000C3DEA312C75B850A82850B83A3858214C6
:1040A000858315E5102406F50EE51112C43A8882C1
:1040B0008983E0FAA3E0F9EA2400F516E439F5175C
:1040C0007816121A37010000280128EDC0070002F7
:1040D00028C4C1032834C10029EEC2012916C30235
:1040E00029BDC20329EEC204297FC3DEC3EE4F708F
:1040F0003E850E82850F8312C454FAE9FB8A828BB7
:1041000083E0850C82850D8312C4901219AD8A82DA
:104110008B83A312BF2AFDAA0AAB0B122665740279
:10412000121810800375120EA912740502C7657566
:10413000120B80F4EE4F70F7850C82850D837401AD
:10414000F012C469850A82850B83F07C007D0085AE
:104150001082851183A3A3A3A3E02401FAA3E03472
:1041600000FB122C8FEA4B60418A828B83E0240291
:10417000F8850C82850D83E028F0EA2404F8EB34FE
:1041800000F988828983E085148285158312C4A290
:1041900012C4901219AD8A828B8312BF24E50A24BF
:1041A00003FAE50B3400FB02C11B850C82850D83ED
:1041B000E02404F07C047D007900AA14AB151226DB
:1041C0007D02C128EE4F600302C12F12C469FEA315
:1041D000E0FF850C82850D837404F0EE850A8285EC
:1041E0000B83F0EF851482851583F0740312184554
:1041F000AC82AD83EEFAEFFB12C536700302C29AB1
:104200008A828B83A3A312C45F740112184585822E
:104210001085831178101219AD7405121845121902
:10422000C47CFF7DFF122C9574041218108B11EAC8
:1042300045117033850E82850F8312C43F1219AD6C
:10424000850E82850F83A31219C47C027D007A112A
:104250007B84122AC17404121810E9700A740112C6
:10426000184574FFF0A3F08E828F83E064027034EF
:10427000750E02750F00780E1219AD8E828F8312A3
:10428000BF24E50A2404FAE50B12B8501218108571
:104290000C82850D83E0240280097401121845EE1A
:1042A000F0A3EFF0740112184512C450F07401121B
:1042B0001845A312C448A3A3A3F002C128EE4F607F
:1042C0000302C12F850E82850F8312BF25AA18AB6A
:1042D00019122DC7850C82850D837402F0EA850AB8
:1042E00082850B83F0851482851583EB80CBEE4F9E
:1042F000600302C12F12C469F8A3E0F9850C82851E
:104300000D837402F0E8850A82850B83F0E9851439
:104310008285158380A3850E82850F8312BBCA1206
:10432000265FEAFC8C82A882C39EE49F404BE86E25
:104330007001EF70047C00801F851A82851B83E06A
:10434000FAEE2AFAEF3400FBC3EA98EB940050032C
:10435000E08004EECCC39CFCEC850C82850D83F0E0
:104360008C0C750D00780C1219AD850E82850F83AB
:10437000E02EFCA3E03F02C11675120702C128EE31
:104380004F600302C12F850E82850F8312C75B85A4
:104390000C82850D837407F08882898312C44812C9
:1043A000C430E0851482851583F0E82402FAE934EC
:1043B00000FB8A828B8312C44812C48112C450A3AA
:1043C00012C48A12C459F0E82405F8E93400F988C7
:1043D00082898312C459A312C4A2A302C2B6741D57
:1043E00012184512C541700302C12512C75B880E21
:1043F000890FE8450F700302C1258E128F137812C2
:104400001219AD780C1219AD780A1219AD74061292
:104410001845E0F9AC10AD11AA18AB19850E8285CC
:104420000F8312184F7406121810E9F51202C128F2
:10443000F088828983A322F50EEF3400F50F22E085
:10444000F510751100781022E0850A82850B832211
:1044500012C4A92212C75FE82212C4A9A3A322A3EF
:10446000A3A3A3E0FEA3E0FF22850E82850F83E0D5
:10447000F8A3E0F5838882E022E0F50AA3E0F50BDB
:1044800022A3A3F08A828B83A32212B13CA3A3228E
:10449000F08A828B8312C49922E0F50C750D0078A6
:1044A0000C2212C43012C4A922E0850A82850B8333
:1044B000A3A32274EE12185174FE1217FA8A0C8B01
:1044C0000DECFAEDFB7414121845E0F512A3E0F5BB
:1044D000137416121845E0FE7418121845E0F51012
:1044E000A3E0F511851A82851B83AC82AD8312C5CA
:1044F00036603E851A82851B8312C541602FA3A3B7
:1045000012C479E50A450B602478101219AD7812AF
:104510001219ADEEF9AC0EAD0FAA0CAB0D850A82E7
:10452000850B8312184F74041218108006790E80C0
:1045300002790102B976122C8F8A0E8B0FEA450F91
:104540002212BBCE12C54822122D5B8A828B83E5D4
:104550008245832274F612185174FE1217FA740CF5
:1045600012184512C454851A82851B83F0740112F7
:104570001845E9F0E4F50AF50B780A1219AD750A49
:1045800002780A1219AD740412184585820A8583CF
:104590000B780A1219AD122DAF740612181074029E
:1045A000121810806474F7121851EAFEEBFF890AA2
:1045B0007C107D05122DC7EA5402600BA90AEEFAA1
:1045C000EFFB122C838002790102BF9274F612185D
:1045D0005174FF6A700374FF6B701C7B00EB75F005
:1045E00003A4F8A9F0EC28F8ED39F912C60E0BEB8C
:1045F000C39402501480E6122D978A0A8B0BA80AE6
:10460000A90BE849600312C60E7F020219238882B3
:10461000898374FF12B13AE4F02274F61218511231
:104620002D978A828B83E58245836006A3A3E0FAF7
:1046300080027A007B0080D174F21218518A0A8BB2
:104640000BECFEEDFF740E121845E0F50C12C67E61
:10465000701CEEFCEFFD7AFF7BFF12C67E700479C2
:1046600011801688828983E50AF0A3E50BF0888221
:104670008983A3A3E50CF079007F06021923122D8C
:10468000978A0E8B0FA80EA90FE8492274EE121814
:1046900051EAFEEBFF8C0A8D0B890E74121218453D
:1046A00012C75B741412184512BF257416121845F0
:1046B00012BBCA750F00EC4D600302C74F74026550
:1046C0000E600302C74A8882898312BF2AF9EC244C
:1046D00000F510E439F511EAF4F8EBF4F9EC58F8C8
:1046E000E51159F9E849705DE50A2406F8E50B344F
:1046F00000F9880C890D8882F58312B85F122DC7E6
:104700008A128B13E51065127004E511651360427F
:1047100078101219AD850C82850D8312B85F122DA9
:10472000CD7402121810E9F50F702778101219AD28
:10473000850A82850B83A3A312B85D122DDF740254
:10474000121810800D750F808008750F0D8003758D
:104750000F0BA90F02BE308E828F8312C75F22E03B
:10476000F8A3E0F9221218107F100219233400F583
:104770000F850E82F58322E028FEA3E039FF8E82AA
:104780008F83227916850C82850D8312BBCE122D64
:10479000A974082274F2121851EAFEEBFF890D7415
:1047A00001650D600E7402650D70637901122FB9F9
:1047B000E9705BEEFAEFFB12C8116047750C0080E0
:1047C0000B7C177D00790012267D050C9004DDE03E
:1047D000F8E50CC3985021E50C75F017A4F8A9F082
:1047E000850A82850B83A3A3E028FAA3E039FB8A1C
:1047F000828B8312B28B70C9850A82850B8374FF0A
:10480000F0A3F07C107D05EEFAEFFB122DC102C67D
:1048100079122D918A0A8B0BEA450B2274F2121839
:10482000518A0A8B0BECFEEDFF740E12184512C074
:1048300011900BF4E0F4603D7A097B00122689EABE
:104840004B60328A828B8374B1F0A3E412C483A3D9
:1048500012C481A3E50AF0A3E50B12C878EEF0A319
:10486000EF12C878A3A3E50CF0A3E50DF0900BF4CC
:10487000E0F912269502C679F08A828B83A3A3A35E
:10488000A3A322C082C0839061907404F0A37448F3
:10489000F0A37402F09061807440F09061BC7403E6
:1048A000F09061877419F0906265741BF090619CC0
:1048B000740DF090619A7433F0A37455F09061A078
:1048C000743AF0900754E064017009C2919005BEFB
:1048D000746780059005BE7461F090354AE493904A
:1048E0006186F090354CE493F46027E493540FF81C
:1048F000906185E0686012E5C654804449F5C6E5DC
:104900009E547F644970F8E8F053C680E59E547F5A
:1049100070FA790512330D02CAC5C082C083E9540A
:104920000FF9906185E0696012E5C654804449F54D
:10493000C6E59E547F644970F8E9F053C680E59E51
:10494000547F70FA02CAC5C082C083E5A8F853A894
:104950007E906181E4F0A3F0A3F0C2BA539AFEC244
:1049600089759B00C2C275E90075910075BF00751D
:10497000A91175B905906181F0A374C0F0A3E4F0AA
:10498000D2BA439A0174805842A802CAC5C082C0F4
:104990008374F81217FA9005BCE0F8A3E0F9E8492F
:1049A000700302CABB9005BCE054406023790885BF
:1049B0001A82851B83AA82AB83123175851A828580
:1049C0001B83AA82AB83122E4B9005BCE054BFF030
:1049D000E054806010790C7A787B0712317590056D
:1049E000BCE0547FF0E0A2E0503190619A7433F063
:1049F000A37455F09061A0743AF0900754E06401FC
:104A00007009C2919005BE746780059005BE7461FF
:104A1000F0122E519005BCE054FEF0E054026031DB
:104A200090619A743FF0A3745AF09061A0747FF083
:104A3000900754E064017009D2919005BE747180B2
:104A4000059005BE746AF0122E519005BCE054FD2D
:104A5000F0E054046013903548E493906186F012BE
:104A60002E579005BCE054FBF0E0540860139035DD
:104A700049E493906186F0122E579005BCE054F7FC
:104A8000F0E05410601390354AE493906186F01280
:104A90002E579005BCE054EFF0E05420600A122E2F
:104AA000579005BCE054DFF0A3E05401600D1230D4
:104AB0009D122E5D9005BDE054FEF0740812181092
:104AC0008003F0A3F0D083D082020C9174EC121812
:104AD0005174F41217FA851A82851B83AC82AD8358
:104AE00075838375828A740412170D90354893F488
:104AF000600302CC59907808E0C39402500302CCC2
:104B0000397404121845AC82AD8375838375821E97
:104B1000740812170D851A82851B8385821485837C
:104B2000157404121845AC82AD837510FF7511FF22
:104B30007FFF7E00750E48750F78801574086E70C3
:104B40000302CBCC74096E700302CBCC740A6E6086
:104B50007B850E82850F83780A1216CA8C828D831C
:104B6000A90BE50CC9F888127418780A1215F3E538
:104B700012450AF8C3E098A3E099850E82850F8359
:104B8000780A1216CA40188C828D837418780A121B
:104B900015F3E512450AF8E0C398F8A3E0801C7409
:104BA00018780A1215F3E512450AFAE9FB8C828D92
:104BB00083E0F8A3E0F9EAC398F8EB99F9C3E89524
:104BC00010E99511500688108911EEFF0EE50E24AC
:104BD00004F50EE50F3400F50FEEC39413500302F5
:104BE000CB3C74FF6510700474FF651160238F0A5D
:104BF0007402780A1217E77448250AF5827478352A
:104C00000BF583780A1216CA851482851583E50A86
:104C1000F0EC24020C0CED3400FD85148285158324
:104C2000A3858214858315740C121845E5826C7077
:104C300003E5836D600302CB2A750A01750B0078CA
:104C40000A1219AD7402121845AC82AD837A527BF8
:104C50000D1228BD7402121810740C1218107F0C5B
:104C6000021923C082C0839061AE7468F0A3746A95
:104C7000F090624574FBF0A304F053F4FD43FE0290
:104C80009007547401F09061A0E0643A90619A70CA
:104C9000237433F0A37455F09061A0743AF074015A
:104CA00064017009C2919005BE746780289005BEAA
:104CB00074618021743FF0A3745AF09061A0747FF6
:104CC000F0740164017009D2919005BE7471800581
:104CD0009005BE746A02CAC47F04021923C082C050
:104CE00083900706E06401700A90070BE060047986
:104CF0000C8002790002CAC5C082C08375E1F190C0
:104D00000709E06055146008146059146051805917
:104D10001230AF9006FFE0F97A007B0712328F90D5
:104D2000837E1216E81232C590839A1216E8123268
:104D30009B90070AE0F91232A7790112330190061D
:104D4000FDE02416F8A3E03400F98882898374C753
:104D5000F0A37430F0790002CAC51230B580B412E5
:104D600030BB80AF1230C180AA791280EA74F4128D
:104D7000185175D90D9006EEE0A2E0E4331313F854
:104D80009006FFE0C4333354C0484401F5D978FDA0
:104D9000790688828983A3A3A3E0F5D988828983D1
:104DA000A3A882A983E864037003E9640770E37829
:104DB000EE790688828983A3E0F5D988828983A366
:104DC000A882A983E864F47003E9640670E575E1DC
:104DD000959006EEE0F97AEF7B06123295900C166C
:104DE000745BF0A37430F0A374BDF0A37431F0A32E
:104DF00074BDF0A37431F0A374BDF0A37431F0A3BB
:104E00007461F0A37430F0A374BDF0A37431F0A307
:104E10007479F0A37430F0900C2474BDF0A3743155
:104E2000F0A374BDF0A37431F0A374BDF0A374318A
:104E3000F0A374BDF0A37431F0A374BDF0A374317A
:104E4000F0A374BDF0A37431F09006FDE0F8A3E088
:104E5000F5838882A3A3780A1216CA90837A780A07
:104E600012163E908392780A1216A49006FDE02452
:104E70000EF8A3E03400F988828983780A1216D9E3
:104E80009006FDE02414F8A3E03400F988828983B9
:104E90007413F09005BA7402F002CCD8C082C083BB
:104EA00090070FE02407F5D99006FFE0C433335490
:104EB000C0F5D978FD790688828983A3A3A3E0F59C
:104EC000D988828983A3A882A983E864037003E94F
:104ED000640770E390070FE0601F78FD7906FAE839
:104EE0002413F582E93400F583E0F5D988828983BB
:104EF000A3A882A9831AEA70E690072FE02407F599
:104F0000D99006FFE0C4333354C04404F5D978FD8A
:104F1000790688828983A3A3A3E0F5D9888289834F
:104F2000A3A882A983E864037003E9640770E3908F
:104F3000072FE0601F78FD7906FAE82433F582E94F
:104F40003400F583E0F5D988828983A3A882A983F8
:104F50001AEA70E675E195900C167467F0A3743048
:104F6000F0A374BDF0A37431F0A374BDF0A3743149
:104F7000F0A374BDF0A37431F0A37461F0A3743096
:104F8000F0A374BDF0A37431F0A37479F0A374306E
:104F9000F0900C2474BDF0A37431F0A374BDF0A3A1
:104FA0007431F0A374BDF0A37431F0A374BDF0A309
:104FB0007431F0A374BDF0A37431F0A374BDF0A3F9
:104FC0007431F090835E1216E89006FDE0240EF82E
:104FD000A3E03400F9888289831216F49006FDE07C
:104FE0002414F8A3E03400F9888289837412F090C5
:104FF00005BA740102CAC4C082C08390070FE024BE
:1050000007F5D99006FFE0C4333354C04402F5D904
:1050100078FD790688828983A3A3A3E0F5D98882E5
:105020008983A3A882A983E864037003E9640770F5
:10503000E390070FE0601F78FD7906FAE82413F586
:1050400082E93400F583E0F5D988828983A3A882B8
:10505000A9831AEA70E675E195900C167473F0A3B3
:105060007430F0A37473F0A37430F0A37473F0A3DE
:105070007430F0A37473F0A37430F0A37473F0A3CE
:105080007430F0A37473F0A37430F0A37479F0A3B8
:105090007430F0900C2474BDF0A37431F0A374BD8F
:1050A000F0A37431F0A374BDF0A37431F0A374BD08
:1050B000F0A37431F0A374BDF0A37431F0A374BDF8
:1050C000F0A37431F090835E1216E89006FDE024A0
:1050D0000EF8A3E03400F9888289831216F4900652
:1050E000FDE02414F8A3E03400F988828983741465
:1050F000F09005BA740402CAC4C082C08390070F3E
:10510000E02407F5D99006FFE0C4333354C04406C9
:10511000F5D978FD790688828983A3A3A3E0F5D920
:1051200088828983A3A882A983E864037003E96461
:105130000770E390070FE0601F78FD7906FAE82416
:1051400013F582E93400F583E0F5D988828983A3D9
:10515000A882A9831AEA70E690072FE02407F5D900
:105160009006FFE0C4333354C04404F5D978FD7988
:105170000688828983A3A3A3E0F5D988828983A3C3
:10518000A882A983E864037003E9640770E39007C9
:105190002FE0601F78FD7906FAE82433F582E934C0
:1051A00000F583E0F5D988828983A3A882A9831AB0
:1051B000EA70E675E195900C16746DF0A37430F00A
:1051C000A374BDF0A37431F0A374BDF0A37431F0E7
:1051D000A374BDF0A37431F0A374BDF0A37431F0D7
:1051E000A374BDF0A37431F0A37479F0A37430F00C
:1051F000900C2474BDF0A37431F0A374BDF0A374BB
:1052000031F0A374BDF0A37431F0A374BDF0A374A6
:1052100031F0A374BDF0A37431F0A374BDF0A37496
:1052200031F090835E1216E89006FDE0240EF8A39C
:10523000E03400F9888289831216F49006FDE02498
:1052400014F8A3E03400F9888289837415F090057E
:10525000BA740302CAC4C082C0839006FDE0F8A3FA
:10526000E0F5838882A3A3A3A3A3A3E402CAC27424
:10527000F71218519005E8E0F875F004A4C8AAF0F8
:105280002AF974EA28F8740539F9E82405FAE934AA
:1052900000FB8A828B83E0FCA3E0FD88828983A3E4
:1052A000A3A3A3A3A3A3A3A3ECF0A3EDF0888289F7
:1052B00083A3A3A3A3A3A3A3E024FFF8A3E034FF45
:1052C000F98A828B83E8F0A3E902D51474F71218E7
