:020000040000FA
:0600000002011A0229139F
:03002B0002300F91
:03004B0002251873
:03005300022986F9
:03006B00022490DC
:03007B000224D587
:100083000227C7E5C754F84401F5C77901220000E8
:100093000080FB120086B90003020104E479217891
:1000A30008B800028004F709D8FCE479297802B87B
:1000B30000028004F709D8FCE4900281789679085D
:1000C3008002F0A3D8FCD9FA781A90014A7A01BACF
:1000D30000028007E493A3F608DAF97A167B0A9004
:1000E300014B783A79048015E493A3AD82AE838AF9
:1000F300828B83F0A3AA82AB838D828E83D8E9D9C6
:10010300E77582FE7583E9740312012C758291757C
:100113008300740012012C75D00075813F7518811E
:10012300751902759F00020096C09FF59FE473D076
:100133009F22D083D082C09FE493C0E0740193C018
:10014300E0740293F59F2201FFFFFF32FFFFFF00E0
:1001530000B4000028002800283075A000A000A0EB
:1001630000A00000080008E001F0001000100010DB
:10017300001000100010005000500050001000103C
:1001830000D0070000000000000F00010005003050
:100193007507001000010081FF0000FF36075407B8
:1001A3003C07FF02020208025000A0000000E8031F
:1001B30002BE85010000AA8502BA85010000710A0A
:1001C30002A684010000C70202BA85010000720A78
:1001D30002C885010000DD0202BA85010000730A2E
:1001E30002CC85010000DF0202BA85010000740A17
:1001F30002E685080000E00202BA85010000750AE4
:1002030002E885010000760AFF0100FF2002BE8597
:10021300010000AD8502BA85010000DA0A02F28509
:10022300000000000002B6850300002D030C0D0C36
:100233000D0C0D0C0D0C0D0C0D0C0D0C0D0C0D0CF3
:100243000D0C0D0C0D0C0D9A0FB20F940F681008C6
:1002530009416C7068616365051210001000020AA1
:10026300000201060302E7FE11FF4D4947000000AB
:1002730000000000000000000000416C7068616332
:10028300657E10000084108A101A0A436F6C6F6D2C
:100293006F20436F6E74726F6C0010436F6C6F6DE1
:1002A3006F20436F6E6669726D0002BE85010000A8
:1002B300A78502BA85010000570B02E28501000001
:1002C300C60702B885010000570B02BA850100007A
:1002D300580B02E085030000DA0702B8850100002D
:1002E300590B02BA85010000680B02DE850100008C
:1002F300DD0702B885010000690B02020202020257
:10030300020202010D000000100102BE850100007F
:10031300B38502BA85010000C80B02DA850100002B
:10032300DE0702BA85010000C90B02D8850100006F
:10033300FD8302BA85010000CA0B02D685010000C5
:10034300C68302BA85010000CB0B02D485010000ED
:10035300BC8202BA85010000CC0B02D285010000E9
:10036300E08202BA85010000CD0B02D085010000B6
:10037300CE8202BA85010000CE0B02CE85010000B9
:10038300F28202BA85010000CF0B02EC8501000066
:10039300E28302BA85010000D00B02CA8501000086
:1003A300D10B01E803053F1001FFFF000130750386
:1003B3000201060000000000000000000000000031
:1003C300000000000000000000000000000000FF2B
:1003D300FF0600800CE803112233440102030405E5
:1003E300060708090C0008082002AABBCCAABBCC4C
:1003F30002BE85010000B08502BA85010000B50C7C
:1004030002EE85030000DC0902BA85010000B60C88
:1004130002F085000000F00902B6850300000A0A15
:1004230002BA85010000B70C02C085010000B80CB8
:100433003031323334353637383941424344454617
:1004430000286E756C6C20706F696E74657229007C
:100453003031323334353637383961626364656637
:10046300003F3F3F000000807F0000803FF90215FE
:1004730050B743BA510000204100E7DB2E0000A033
:100483004012013587E803120135C8E8031201352C
:10049300EBE80312013592EC03120135DEEC031293
:1004A3000135D0E1031201354DE20312013578E243
:1004B3000312013597E203120135AAE20312013553
:1004C300BEE20312013524ED03120135D9FF0112F7
:1004D3000135F0FF011201352FE60312013543E622
:1004E3000312013585E903120135A9E90312013528
:1004F300C7E903120135D3E903120135FCE90312FD
:10050300013520EB0312013529EB03120135B5EC5C
:1005130003120135D1EC031201356FE703120135E4
:100523008FE703120135CDE70312013560EC0312A7
:10053300013583EC031201351DE00312013534E06C
:100543000312013563E0031201359CE00312013508
:10055300C4E003120135F2E00312013509E103128D
:10056300013520E10312013536E1031201355DE166
:100573000312013570E10312013586E103120135DF
:1005830099E103120135BEE1031201353AF4021277
:10059300013539F5021201356EF5021201358FF579
:1005A300021201359FF502120135C0F50212013521
:1005B300CCF60212013599F7021201350CF802123A
:1005C300013592F802120135D5F8021201350CF902
:1005D3000212013592F90212013564FA0212013551
:1005E300C2FA02120135DAFA0212013554FB021281
:1005F300013557FB021201355AFB0212013501FC8A
:100603000212013519FC0212013549FC02120135AF
:1006130069FC0212013557FD021201350DFE02126B
:100623000135FEA70312013526A80312013554A88C
:10063300031201358BA803120135F3A80312013508
:100643003CA90312013587A903120135C5A9031279
:10065300013502AA0312013530AA03120135D7AAC4
:1006630003120135E1AA03120135EEAA0312013583
:1006730021AB03120135E3AB03120135EFAB0312D8
:10068300013507AC0312013511AC0312013502FF2A
:100693000112013510FF0112013528FF0112013546
:1006A30040FF01120135D7EA0112013575EB011242
:1006B3000135EDEB0112013502ED011201353CED7F
:1006C30001120135E5ED01120135BAEE01120135D2
:1006D3001EF00112013575F001120135FCF0011213
:1006E3000135E3F10112013530F201120135BEF299
:1006F30001120135E2F201120135B7F4011201359D
:10070300F8F4011201351AF5011201359BF50112B6
:10071300013585F6011201354BF701120135229798
:1007230003120135F497031201359D980312013525
:10073300E098031201356D9903120135F9990312FB
:100743000135DA9A03120135099B03120135059C21
:10075300031201354D9C031201354F9D03120135E0
:10076300939D03120135B99D03120135FEE7031270
:100773000135B0BD03120135C6BD03120135ECBD11
:100783000312013514BF031201351EBF03120135D5
:1007930077C00312013577C1031201352E9E031270
:1007A3000135639F03120135969F03120135E09FC4
:1007B300031201359EA1031201357ADB01120135C3
:1007C300DDDB0112013522DD0112013532DD0112BB
:1007D300013555DD01120135A0DD0112013545DE7C
:1007E300011201353BDF0112013505E0011201352C
:1007F3007DE101120135BFE1011201355DE2011214
:100803000135AAE201120135D0E201120135BEE43D
:1008130001120135C3E401120135A4E601120135C9
:10082300F8E6011201355AE70112013582E7011298
:10083300013526E801120135E8E80112013519E90D
:10084300011201351CE90112013564E90112013578
:10085300A6E9011201350DEA01120135F8D303129D
:1008630001350BD40312013524D4031201356FD49F
:10087300031201354AD503120135D9D503120135C7
:1008830024D6031201354030001201354C300012DA
:100893000135853000120135CA300012013581312E
:1008A30000120135073200120135333200120135CF
:1008B3006C32001201358034001201355C360012AF
:1008C30001354738001201357E3900120135DE3B10
:1008D30000120135CA3C00120135103E00120135E9
:1008E3001D3F001201353A3F00120135723F0012DD
:1008F30001358C3F00120135F43F001201358E445F
:10090300001201352F4500120135804500120135D3
:10091300A74500120135F5450012013513460012B3
:1009230001356746001201356F4700120135F7475D
:100933000012013554A3031201355EA303120135DE
:1009430029A40312013544A4031201356AA4031236
:100953000135AEA403120135E6A4031201350FA538
:100963000312013588A5031201359DA50312013534
:10097300B2A503120135E9A503120135FDA5031242
:1009830001352EA60312013568A60312013594A67C
:1009930003120135EAA6031201353EA703120135FE
:1009A30087A703120135B1A703120135D6A7031296
:1009B3000135C4B9031201358EBA0312013571BB77
:1009C30003120135E7BB0312013529BC03120135BC
:1009D30056BD031201355EC50212013587C50212E9
:1009E3000135A0C502120135E5C602120135C3C7A0
:1009F30002120135E2C7021201356FC80212013536
:100A0300B2C802120135FFC9021201359ECA021291
:100A130001351DCD02120135B4CD0212013588CE48
:100A2300021201356ACF02120135D6D00212013506
:100A330069D1021201350CE30312013575E3031288
:100A43000135C9E303120135F0E30312013523B184
:100A53000312013590B103120135DBB103120135E5
:100A6300D0B203120135CCB303120135B6B403126D
:100A73000135BA7600120135FC7600120135D677BE
:100A830000120135AF7800120135AA790012013541
:100A9300897A00120135F57A00120135BC7B001208
:100AA3000135277C001201358E7C00120135B97C9B
:100AB300001201352A7D00120135BD7D001201357A
:100AC300267E001201353B7E00120135837E001223
:100AD30001359C7E00120135017F00120135047F30
:100AE30000120135D4C803120135FCC803120135C5
:100AF3003AC903120135F8C90312013563CA031257
:100B030001357FCA03120135A7CA03120135D7CABB
:100B130003120135E6CA0312013560CB0312013516
:100B230086CB031201357E8E021201355B900212D1
:100B3300013556920212013529930212013574933D
:100B430002120135BF9302120135D193021201350E
:100B53001194021201354694021201359294021245
:100B63000135C19402120135E49402120135319525
:100B730002120135BA9502120135C79702120135E7
:100B8300B29902120135F599021201355A9B0212EC
:100B930001359B9B021201350E9C021201355A9CB2
:100BA30002120135859C02120135E0D10212013592
:100BB3000BD202120135F2D80212013516DB0212F2
:100BC3000135D1DC021201352EDE021201355E48F9
:100BD30000120135F5480012013522490012013592
:100BE300684900120135A74A001201353E4C001234
:100BF3000135B84C00120135D34C00120135484D74
:100C030000120135774E00120135D24F0012013523
:100C1300D450001201353152001201354A520012EC
:100C23000135A75200120135895300120135BC5317
:100C3300001201352C5400120135A654001201355F
:100C4300F55400120135C15500120135C656001284
:100C53000135A557001201353058001201359E5851
:100C6300001201351259001201353B5900120135AA
:100C7300FA5900120135745B00120135915B0012C1
:100C83000135B05B00120135415C00120135665C31
:100C9300001201358E5C00120135095D0012013529
:100CA300635D00120135B75E00120135745F0012F7
:100CB3000135476000120135AF9C02120135FF9CDC
:100CC300021201350B9D02120135E89D0212013516
:100CD300189E02120135509E02120135CF9E021258
:100CE3000135079F02120135599F02120135969F64
:100CF30002120135BBA102120135E7A3021201352D
:100D0300E2A502120135BDA702120135EF7F0012E1
:100D13000135F585011201353F86011201351E8C1F
:100D2300011201359F8D01120135FE930112013528
:100D3300F9940112013536950112013559950112C5
:100D430001359B9501120135A49501120135AE952C
:100D5300011201359A96011201358E970112013560
:100D6300756000120135ED6A00120135F36A001255
:100D73000135FF710012013537C503120135CDC5A9
:100D830003120135E3C5031201355DC603120135B4
:100D9300B3C603120135F1C6031201354EC7031260
:100DA3000135CBC703120135D4C703120135E0C7A0
:100DB30003120135F3C7031201352FC8031201359E
:100DC30045C803120135A4C80312013578B50312CF
:100DD300013585B5031201359FB503120135DEB523
:100DE300031201351CB60312013581B60312013516
:100DF30096B603120135A1B603120135AEB603123E
:100E03000135C5B603120135D3B603120135DEB67B
:100E130003120135EAB603120135F9B6031201359F
:100E230004B70312013527B703120135D0B70312F4
:100E33000135E0B703120135FAB70312013517B8CC
:100E43000312013533B80312013558B803120135C3
:100E530062B80312013576B80312013595B803124F
:100E63000135F6B803120135FCB80312013502B996
:100E73000312013508B90312013514B90312013500
:100E830047B90312013583AA0212013505AB0212D9
:100E93000135AEAB02120135F6AC0212013504AFD7
:100EA30002120135EAAF021201351FB002120135F9
:100EB30041B002120135EAB002120135BAB2021290
:100EC3000135E3B2021201355BB3021201358DB372
:100ED300021201359AB302120135E5B3021201354C
:100EE30009B4021201355AB60212013564B702126F
:100EF3000135C0B70212013500800212013511819C
:100F030002120135F58102120135FF81021201350A
:100F13002182021201352D8202120135D183021280
:100F23000135FE83021201351485021201356985EC
:100F330002120135B886021201358D87021201357E
:100F4300E987021201355488021201358988021299
:100F53000135CC8802120135968B02120135AE8B16
:100F6300021201353F8C021201354D8C02120135FC
:100F73009A8C02120135A88C02120135148D0212CB
:100F830001358F8D02120135E68D0212013551DED6
:100F93000212013573DE0212013584E002120135BB
:100FA30043E3021201356DE4021201352BE502120F
:100FB300013517E60212013564DE0312013589DEBD
:100FC30003120135FFDE03120135059003120135CB
:100FD3000E9003120135179003120135EF9003129F
:100FE3000135A09203120135D09203120135FB9211
:100FF300031201352B930312013556930312013566
:101003008A9303120135B69303120135F993031240
:1010130001352494031201356B9403120135C094F6
:10102300031201350295031201355C950312013554
:10103300879503120135D6950312013506960312DF
:1010430001353196031201355F96031201358296FD
:101053000312013508E90312013534E9031201359E
:1010630061E9031201356BE9031201357BE90312D0
:101073000135ADAB011201350BAF01120135B9B723
:101083000112013597B9011201358ABB01120135ED
:10109300C7CE0312013503CF0312013527CF031245
:1010A300013560CF03120135EBCF031201350FD1A8
:1010B30003120135CECB03120135F3CB03120135F5
:1010C3001DCC03120135138803120135E289031283
:1010D3000135788A03120135A88A03120135D78AAC
:1010E300031201356B8B03120135758B0312013526
:1010F300958B03120135498C031201355E8C031263
:101103000135668C03120135DA8C03120135B78D74
:1011130003120135F38D03120135148E03120135C9
:101123004B8E031201355E8E03120135758E031249
:101133000135308F03120135338F031201355E8F72
:1011430003120135D58F03120135C5CB01120135C9
:10115300F2CB01120135A6CC01120135F7CC0112F5
:1011630001353ACE01120135ADD0011201357BD1E3
:10117300011201357ED101120135FAD10112013577
:101183004AD30112013519D6011201351CD60112B9
:1011930001358FD6011201359FD70112013580D851
:1011A3000112013583D801120135B3D9011201357A
:1011B300D2D901120135B5DA01120135B8DA0112BB
:1011C300013577DB01120135B4EB03120135A69922
:1011D30001120135869B01120135429D0112013531
:1011E3002F9E01120135B69E01120135309F011267
:1011F3000135619F01120135D8A20112013554A3B3
:101203000112013545A4011201357DA401120135F6
:10121300C0A401120135F7A5011201354CA6011234
:10122300013583A601120135F5A6011201351CA76C
:101233000112013536A70112013528A80112013523
:1012430038A801120135D4A901120135EBA9011205
:1012530001351DAA011201356EAB01120135287F3C
:1012630000120135387F00120135D37F001201359A
:10127300DE7F001201354ED6031201355ED603120E
:1012830001357CD60312013580D8031201352CE5D4
:1012930003120135B0E50312013516E603120135D9
:1012A30089DC03120135BFDC03120135E8DC0312CC
:1012B3000135A9DD0312013518DE03120135F87F6C
:1012C3000012013588DA03120135E2DB031201351E
:1012D30043DC03120135F9EB031201350BEC031266
:1012E300013580F9011201358AF901120135CAF974
:1012F3000112013513FA011201354DFA01120135BC
:10130300A7FA01120135C6FA01120135CFFA01120B
:10131300013520FB0112013549FB0112013553FB55
:1013230001120135BFFB011201354DFC01120135DC
:10133300A6FC01120135D4FC0112013554FD011242
:10134300013597FD01120135D2FD01120135E4FD8E
:101353000112013503FE011201350CFE01120135A4
:10136300D6FE0112013578FE02120135CBFE0212C0
:10137300013537FF021201359FFF021201358DD16E
:1013830003120135B7D1031201358CD20312013593
:1013930080D30312013521E40312013516E503124C
:1013A30001356AEA0312013586D803120135BCD828
:1013B30003120135F5D8031201354EDA0312013554
:1013C300D4E603120135EAE603120135F4E603120B
:1013D30001353EE703120135008003120135BD805C
:1013E30003120135F8800312013520810312013500
:1013F300828103120135CE81031201353282031239
:101403000135AC8203120135AE83031201356185C8
:1014130003120135E38503120135488603120135B2
:101423005F8603120135688703120135A68703120D
:101433000135A6AC03120135BFAC0312013560AD13
:1014430003120135A0AD03120135B9AD0312013505
:10145300ECAD0312013539AE031201356DAE031243
:101463000135AFAE03120135B9B0031201350DB822
:101473000212013581BB02120135FDBC0212013596
:1014830054BD0212013571BD02120135EFBD0212C6
:1014930001357ABF021201355EC002120135EBC37A
:1014A30002120135BBC4021201356FE90212013584
:1014B3007FE9021201358BE90212013510EB0212AA
:1014C3000135CCEB02120135EFED02120135E4F2E6
:1014D3000212013528F30212013587F30212013596
:1014E300F4F30212013581C103120135CEC1031297
:1014F3000135EBC1031201353CC2031201357AC237
:10150300031201352DC3031201355AC403120135E9
:10151300A9C403120135EABB0112013508C1011246
:1015230001356EEB0312013534EC03120135C9EAC0
:1015330003120135D9EA0312013506ED03E766709C
:10154300100809E766700A0809E76670040809E7E6
:101553006622E066701008A3E066700A08A3E066DE
:10156300700408A3E06622C008C3E096F50808A348
:10157300E096420808A3E096420808A3E0964208D2
:10158300A2D265D033E5087001D3D00822C3E79611
:101593000809E7960809E7960809E79622C3E09643
:1015A30008A3E09608A3E09608A3E09622C008C328
:1015B300E096F50808A3E096420808A3E0964208DF
:1015C30008A3E09645087001D3D00822080808E66E
:1015D30030E711121E891215E7080808C64480C6B1
:1015E30018181822181818E9799EC608CAC608CB15
:1015F300C608CCC6C370207996CACBCC7019798E35
:10160300CBCC70137986CC700EF9802ACA33CACB3F
:1016130033CBCC33CC331930E7F2CCCBCA335014B1
:101623007004EA30E00DE4CA3ACACB3BCBCC3CCCE5
:10163300500209C3E913C6CC182313C6CB18C6CA74
:1016430018C6F92212168720F01430E72B74FFFC1A
:10165300FBFA747F8022E4FCFBFA7480801AB48066
:1016630008BC00F2BB00EF800F50EBF9E4C39AFA19
:10167300E49BFBE49CFCE499C6CC18C6CB18C6CA11
:1016830018C6F922E4C9C608CAC608CBC6D33303B1
:1016930008CCC63392F0C3947F402E94184019C9E6
:1016A300B90704CACBCC225025C309CA33CACB33EA
:1016B300CBCC33CC33D9F422F4600DC9CCC313CBD8
:1016C30013CBCA13CAD9F6CC22E4FCFBFA2214FCCE
:1016D300FBFA22E62618461846184622E72719473A
:1016E3001947194722181818E60846087009E6260C
:1016F300087005E633F4220822191919E709470986
:101703007009E727097005E733F4220922E6084642
:1017130008C3134608336002E633F422E709470996
:10172300C3134709336002E733F42212171060250D
:1017330012171F60201216D670030216DF0808085E
:10174300E76670101819E766700A1819E7667004DF
:101753001819E76622F422121710601C12171F6073
:10176300171216D670071216DF7001D322C0D012DB
:1017730016DF7006D0D0B322C32233D0D05014303A
:10178300E0F6C3E7960809E7960809E7960809E72C
:1017930096B32220E0D5E6970809E6970809E6976D
:1017A3000809E697B322121710601B12171F601661
:1017B3001216D670071216DF600CB322C0D01216B1
:1017C300DF7005D0D022C32233D0D0501330E0EBEA
:1017D300C3E7960809E7960809E7960809E79622FA
:1017E30020E0E4E6970809E6970809E6970809E682
:1017F300972200121710604F12171F6012E75480D0
:1018030066F61216E870111216DF703B090909F427
:10181300F618F618F618F6221216FC70151216D6DC
:1018230008080860EAE6447FF618768018E4F6189C
:10183300F6221216D660161216DF7012E4F608F6B8
:1018430008F608E65480F609090918181822EAC0B0
:10185300E0EBC0E0ECC0E0EDC0E0E687F0A4FBAC59
:10186300F008E687F0A42CFCE435F0FA1809E687C3
:10187300F0A42C4B60027401CA35F0FCE433FB097D
:10188300E687F0D2F7A42CCB35F0FC1908E687F0F5
:10189300A42BCC35F0FBE433FD0819E687F0D2E73F
:1018A300A42C4ACB35F0CD3400FC09E687F0D2E70F
:1018B300A42DCC35F0FDE433FA0918E687F0D2F70E
:1018C300A42CCD35F0CA3400FC08E687F0D2E7D269
:1018D300F7A42ACC35F07A7E20E70B0ACB33CBCDA5
:1018E30033CDCC33CC33CB3350147004ED30E00E16
:1018F300D2F1E4CD3DCDCC3CCC3B5005DA05C2F171
:10190300EB547FC63308E63392F0FBE73309E73342
:10191300C39A502D2B70190C0D4C4D70151806E6FB
:1019230008C333700D20F10AA2F013F6E418800BFC
:101933004024E4F630F002768018F618F618F680A4
:1019430024D33B14501074FFA2F013F6187680E4EE
:1019530018F618F6800FA2F013F618E63303F618FC
:10196300ECF618EDF6D0E0FDD0E0FCD0E0FBD0E0E3
:10197300FA2212171F6046121710603DE9687008BB
:10198300F618F618F618F622748067F71219A909E3
:101993000909748067F722121710601D12171F7050
:1019A30005191919801A1216E8701F1216FCC37054
:1019B30003E667331919194007181818220808088D
:1019C30074FFF618F618F618F6221216FC601712B2
:1019D30016DF702192F01216D67019501720F014EA
:1019E300080808090909E7F61819E7F61819E7F6C8
:1019F3001819E7F6221216D660E6E869701F080880
:101A0300E62480F608E436F618547FB47F0CE654D7
:101A1300806007F6E418F618F622181822E9C6CCF7
:101A230008C6CD08C6CE08C6CFC0E0E8C0E0EAC00D
:101A3300E0EBC0E009E9F809E7FA09E7FBE6F91882
:101A4300E6F8C3EC98ED99EE9AEBC2E7F5F0EFC236
:101A5300E795F0500E600CEBCFFBEACEFAE9CDF937
:101A6300E8CCF8EAA2E7D2E7FAEB33FB13F5F0EEA2
:101A7300A2E7D2E7FEEF33FFC5F013A2E730E6019A
:101A8300B313C5F0C3C0E0C0F07F00C39BFB605E2F
:101A93009418600F401D14601AD0E023F9D0E0F8C9
:101AA300021B7B8AF0E9486003D2F0E4AFF0FAF955
:101AB300F8803BEB30E40D89F0EA6003D2F0E4AF49
:101AC300F0F9CAF8EB30E30D88F0EF6002D2F0AF23
:101AD300F0E4CAC9F8EB54076014FBC3EA13FAE94C
:101AE30013F9E813F8EF135002D2E0FFDBEDD0E077
:101AF300C0E030E739C3E49FFFF5F0EC98FC42F017
:101B0300ED99FD42F0EE9AFE42F0D0E0F9D0E0F814
:101B1300E5F0607AE923F9EE20E742D8028067C353
:101B2300EF33FFEC33FCED33FDEE33FE80EAEC28BC
:101B3300FCED39FDEE3AFED0E023F9D0E0F84002A7
:101B4300801BC3EE13FEED13FDEC13FCEF135002E9
:101B5300D2E0FF08B800067F7F74FF802EEF33507A
:101B6300178CF020F00260100CBC000C0DBD0008B7
:101B73000EBE000408E860DFE933E813FFEE231329
:101B8300FE4F4D4C8008E95480FFE4FEFDFCEE332C
:101B9300EF33F47004FCFD7E80D0E0FBD0E0FAD09C
:101BA300E0F8D0E0CFC618CEC618CDC618CCC6F91B
:101BB3002212171070041818182212171F700D74B0
:101BC300FFF61819F61819F61819F622E754806665
:101BD300F61216D6700F1216DF70F014F608F60818
:101BE300F608F680D11216DF700CF608F608768038
:101BF30008E6447F80EC1216FF700C1216EB60BFF0
:101C0300E65480F6E480BB1216EB700519191980AF
:101C1300A5E869700C763F18768018F618F6E8F98F
:101C230022E6CDC0E018ECC0E0E633CD33CDD313CC
:101C3300F6E719FCE7191933CC33C3947F400ECD73
:101C43009D502408E65480F6E418F6800FF4043D12
:101C530014501408E6447FF6187680E418F618F654
:101C6300D0E0FCD0E0FD22CCD313CCFD18E4C6CBEE
:101C7300C0E018E4C6CAC0E00808ED08C633E6139E
:101C8300F618E433C675F003C3CA97CA09CB97CBDA
:101C9300199C40047D08802EBD0003021D5D16B60D
:101CA300FF050606081618C3CA33CACB33CB33CA9B
:101CB30027CA09CB37CB193CC37D08803E187D0862
:101CC30020E75CC633C6CA33CACB33CB33DDF1D589
:101CD300F0EB30E77BCA97CA09CB974ACB199C40F4
:101CE3006F4B7025E620E0218066187D08C3CA97F4
:101CF300CA09CB97CB199CD3C633C6CA33CACB33D5
:101D0300CB3350C9DDE7D5F0E1D3E4C636C608C608
:101D130036C608C636C608C636C61818188031C374
:101D2300CA97CA09CB97CB199CB34097C633C6CA87
:101D330033CACB33CB33DD34D5F02EC6A2E0C64055
:101D4300C8CA27CA09CB37194A70BECB3CB480B97D
:101D53000808E63308E633601F181818D0E0FAD0F5
:101D6300E0FBD0E0FCD0E0FD22187D08CA27CA09B9
:101D7300CB37CB193CD3808013F618E4B67F11F62A
:101D830018B6FF0EF618C60470D20808768080CA0B
:101D9300F618F618F680C5080808EAC0E0EBC0E0BC
:101DA30086F0E7A4FA180986F0E7A42AFA18098648
:101DB300F0E7A42AFA180986F0E7A42AFA1986F0AC
:101DC300E7A4FBE5F02AFA190886F0E7A42BFBE564
:101DD300F03AFA190886F0E7A42BFBE5F03AFA1873
:101DE300180986F0E7A4C5F02BFBE43AFA1908E7D3
:101DF300C5F0C6A426F6E5F03BFBE43AFA1886F0F4
:101E0300E7A4F6E5F00826F6E43B08F6E43A08F61C
:101E1300D0E0FBD0E0FA22E4CFC0E0E4CEC0E0E4BF
:101E2300CDC0E0E4CCC0E075F020E626F608E6334A
:101E3300F608E633F608E633F6181818EC33FCED2B
:101E430033FDEE33FEEF33FFC3EC9709ED9709EE55
:101E53009709EF97191919400FFFEC97FC09ED97B4
:101E6300FD09EE97FE191906D5F0BFECF709EDF75A
:101E730009EEF709EFF7191919D0E0FCD0E0FDD00E
:101E8300E0FED0E0FF22181818E4C396F608E496A3
:101E9300F608E496F608E496F6226016080808C6E3
:101EA300C313C618C613C618C613C618C613C6D599
:101EB300E0EA227009080808226016181818C6C339
:101EC30033C608C633C608C633C608C633C6D5E00C
:101ED300EA22E627F60809E637F60809E637F608A0
:101EE30009E637F622E026F608A3E036F608A3E073
:101EF30036F608A3E036F622E026F008A3E036F033
:101F030008A3E036F008A3E036F022C3E697F6080C
:101F130009E697F60809E697F60809E697F622C355
:101F2300E096F008A3E096F008A3E096F008A3E09B
:101F330096F022E056F608A3E056F608A3E056F61C
:101F430008A3E056F622E056F008A3E056F008A3F3
:101F5300E056F008A3E056F022E647F60809E64704
:101F6300F60809E647F60809E647F622E667F608A3
:101F730009E667F60809E667F60809E667F622E068
:101F8300F608A3E0F608A3E0F608A3E0F622E6F0DD
:101F930008A3E6F008A3E6F008A3E6F022E0FAA31C
:101FA300E0FBA3E0FCA3E0FD22EAF0A3EBF0A3EC4B
:101FB300F0A3EDF022E0F8A3E0F9A3E0FAA3E0FB3D
:101FC30022E8F0A3E9F0A3EAF0A3EBF022CAC0E011
:101FD300E6F0A308DAFAD0E0FA22CAC0E0E0A3C52B
:101FE30082CCC582C583CDC583F0A3C582CCC5820F
:101FF300C583CDC583DAE6D0E0CA22C3E498F8E40A
:1020030099F912203F8026C3E49AFAE49BFBE92066
:10201300E7E912203FE498F8E499F922C3E498F839
:10202300E499F912203FE498F8E499F9C3E49AFAA1
:10203300E49BFB22EB20E7CFE920E7E0B90010BBEC
:102043000008E88AF084F8AAF022E4FBC8FA22EB3D
:1020530070227B10C833C8C933C9335007C39AC32E
:10206300DBF280069A50012ADBEAC833F4C8C9338D
:10207300F4C9FA2275F008E4C833C8C933C933C9AF
:102083009AC99B5004C92AC93BD5F0ECFBC833F469
:10209300C8E4C9FA22600D08C6A2E713C618C6131E
:1020A300C6D5E0F322600C08C6C313C618C613C610
:1020B300D5E0F422700422600D18C6C333C608C6E7
:1020C30033C6D5E0F41822251810AF08F518400CD4
:1020D30015198008F51840021519D2AF2200C0D097
:1020E300251810AF08F518500C05198008F518507D
:1020F300020519D2AFD0D0222518F58210AF08F50A
:1021030018400C15198008F51840021519D2AF852F
:102113001983222518F582E43519F583222518F849
:10212300E43519F9222518FAE43519FB222518FCA0
:10213300E43519FD22E4732518C582C0E0E519349E
:10214300FFC583C0E0E518C3958224F810AF088566
:1021530083198582188008858319858218D2AFCEAA
:10216300F0A3E520F0A37808E608F0A3DEFAEFF089
:10217300A3E58124FAF8E608F0A3E608F0A3E6084D
:10218300F0A30808E608F0A3E608F0A3158115817B
:10219300D0E0FED0E0F8158115811581E8C0E0EEAE
:1021A300C0E0222518C582C0E0E51934FFC583C00D
:1021B300E0E518C3958224F910AF08858319858259
:1021C300188008858319858218D2AFCEF0A3E52045
:1021D300F0A37808E608F0A3DEFAEFF0A3E5812484
:1021E300FBF8E608F0A3E608F0A30808E608F0A366
:1021F300E608F0A315811581D0E0FED0E0F8158143
:102203001581E8C0E0EEC0E022851983851882E0DD
:10221300A3FEE0A3F5207808E0A3F608DFFAE0A325
:10222300FFE0A3C0E0E0A3C0E0E0A3C0E0E0A3C000
:10223300E0E0A3C0E010AF08858218858319800809
:10224300858218858319D2AFD083D082020132856B
:102253001983851882E0A3FEE0A3F5207808E0A3A4
:10226300F608DFFAE0A3FFE0A3C0E0E0A3C0E0E0EC
:10227300A3C0E0E0A3C0E010AF08858218858319EE
:102283008008858218858319D2AFD083D08222C07B
:10229300D02518C582C0E0E51934FFC583C0E0E549
:1022A30018C3958224F310AF08858319858218809B
:1022B30008858319858218D2AFC8F0A3E9F0A3EA91
:1022C300F0A3EBF0A37908E709F0A3D8FAECF0A3A5
:1022D300EDF0A3EEF0A3EFF0A3D0E0F0A3D0E0F095
:1022E300A3D0E0F0A3E520F0A3E5F0F0A322851945
:1022F30083851882E0C0E0A3E0F9A3E0FAA3E0FB42
:10230300A37808E0F608A3DFFAE0FCA3E0FDA3E06E
:10231300FEA3E0FFA3E0C0E0A3E0C0E0A3E0F5D0AC
:10232300A3E0F520A3E0A3F5F010AF08858319859A
:1023330082188008858319858218D2AFD082D08312
:10234300D0E0F8D0E0327404800674028002740195
:10235300C0E0F4041220FBD0E0121FD022740480EA
:102363000474028000CCC0E0EDC0E0E518C39CCC4F
:10237300AD1950011D10AF068C188D1980068C18ED
:102383008D19D2AF121FDDD0E0FDD0E0FC22D08347
:10239300D082E9C0E0E493A3C386F0C5F095F0F9D9
:1023A30008E493A386F0C5F095F0700BE493A3C300
:1023B300994005E9048002A3E475F002A42582F59F
:1023C30082E5F03583F583D0E0F9E493A3C0E0E43C
:1023D30093C0E022D083D082ECC0E0EDC0E0E49370
:1023E300A3FCE493A3FDED4C600D122423EC24FF26
:1023F300FCED34FFFD80EFE493A3FCE493A3FDED38
:102403004C600D122462EC24FFFCED34FFFD80EFE1
:10241300D0E0FDD0E0FCE493A3C0E0E493C0E0226D
:10242300C0E0C3E49396087401939618400FE493B5
:1024330066700808740193661870007019A3A3C32B
:10244300E49396087401939618A3A3400DD0E0D0AB
:10245300E0D0E0022413A3A3A3A3A3A3D0E022C04C
:10246300E0C0F088F0E4936670080874019366187E
:102473007000A8F0A3A3700BD0F0D0E0D0E0D0E0C0
:0A248300022413A3A3D0F0D0E0223E
:10249000C0E074F2122292A2AFE433FED2AFE5891B
:1024A000A2E7502253897F900290E0640370179056
:1024B000850B1223607A087B009008BBE0F91214A8
:1024C0004A74041220E0C2C5751A00EEA2E092AF71
:1024D0007F010222F1C0E0C0D0E8C0E0E9C0E0C066
:1024E00082C083A2AFE433F8D2AFE58AA2E3500FF3
:1024F000538AF7900285E02401F0A3E03400F0C293
:10250000EB751A00E8A2E092AFD083D082D0E0F958
:10251000D0E0F8D0D0D0E032C0E0C0D0E8C0E0E9F0
:10252000C0E0A9A8D2AFC2C153AFFE538DF7751A50
:1025300000E9A2E7E433F8E9A2E792AF80CF74F8AC
:102540001221A6EAFEEBFFEEF9120532EEFAEFFBDE
:102550007F0102225274F51221A6EAFEEBFFEE245F
:1025600034F8EF3400F988088909EE2435F582EF54
:102570003400F583E0F8EE2437F582EF3400F5837C
:10258000E0F50AEC850AF0A4FCAAF0850AF0EDA4B7
:102590002AFDE82CF8E43DF97A257B0012203FEA79
:1025A000850882850983F05407F87401B800028019
:1025B00004C333D8FCC0E0E0131313541FF8EE2813
:1025C000F8EF3400F9E8245DF582E93400F583D0B2
:1025D000E0F8E0586008EE2434F582EF801EEE2427
:1025E00036F582EF3400F583E0F5F0EA84A8F0EEEA
:1025F00028F8EF3400F9E82438F582E93400F5834F
:10260000E0F97F0402225274F51221A6EAFEEBFFE4
:10261000EE2434F582EF3400F583E0C0E0EE24359B
:10262000F582EF3400F583D0E0F08E828F83A3A390
:10263000A3A3A3A3A3C082C0838E828F83A3A3A3DB
:10264000A3A3E0F8A3E0F9D083D082E0C398F50813
:10265000A3E099F509EE2480F582EF3400F583E0DC
:1026600064017069EE2481F582EF3400F583E0F8AF
:10267000A3E0F98E828F83A3A3A3A3A3A3A3E0FC6B
:10268000A3E0FD8E828F83A3A3A3A3A3E0FAA3E01C
:10269000FBC3EA9CEB9D5027C3EC98ED99402EC3F9
:1026A000EA98EB9950277C127D05EEFAEFFB120CAD
:1026B0006AEE2480F582EF3400F583E4F0800EC3E7
:1026C000EA98EB9940E0C3EC98ED9950D9EE2434A8
:1026D000F8EF3400F9E8FCE9FDEE2435F582EF343B
:1026E00000F583E0F8EE2437F582EF3400F583E05F
:1026F000F50AE508850AF0A4F508AAF0850AF0E5D0
:1027000009A42AF509E82508F8E43509F97A257BB2
:102710000012203FEA8C828D83F05407F87401B8D0
:1027200000028004C333D8FCC0E0E0131313541F2D
:10273000F8EE28F8EF3400F9E8245DF582E934007A
:10274000F583D0E0F8E0586008EE2434F582EF809D
:102750001EEE2436F582EF3400F583E0F5F0EA84CE
:10276000A8F0EE28F8EF3400F9E82438F582E934CF
:1027700000F583E0F9123001022602C082C0838591
:102780001882851983E0F8A3E0F9C3EA9CEB9D5019
:1027900012C3EC98ED994019C3EA98EB995012795D
:1027A000018010C3EA98EB9940F5C3EC98ED99507D
:1027B000EE7900D083D08222EAC39CFAEB9DFB2203
:1027C0008521878522C622C0E0C0D0E8C0E0E9C0EC
:1027D000E0EAC0E0EBC0E0ECC0E0EDC0E0C008C063
:1027E00009C00AC00BC082C083C0F0759B00906115
:1027F00082E0A2E640030228A5E591A2E64003029A
:1028000028A57591BF9003D7E064057008120DA24A
:10281000120DAE8003120DA8752100120E08E9906A
:1028200003D8F07900120DFC120BE07A017B0090C6
:1028300003D6E0F912133C907803E064426003028F
:1028400028EE900574E014F060030228EEC2AF1287
:10285000285200782AD0E0F618D0E0F6E59F540719
:10286000F9700590852F80039085337808121F82B8
:10287000E9C4C0E07829E65508F50808E65509F5E9
:1028800009740B78081220A8D0E02508F89062702F
:10289000E0A2E740F8E8C333906272F0906270E023
:1028A000D2E0F08049E0A2E55024E591A2E5501E77
:1028B0007591DF9003D7E0640D70139003F9E00485
:1028C000F064287002E4F07A00E0F9120E7A906168
:1028D00081E0A2E35009E5E9A2E3500375E9F7A31B
:1028E000E0A2E75009E591A2E7500375917FD0F08F
:1028F000D083D082D00BD00AD009D008D0E0FDD050
:10290000E0FCD0E0FBD0E0FAD0E0F9D0E0F8D0D0A5
:10291000D0E032C0E0C0D0C082C083906183E0A22A
:10292000E05009E5BFA2E0500375BFFEE0A2E15010
:1029300009E5BFA2E1500375BFFDE0A2E25009E541
:10294000BFA2E2500375BFFBE0A2E35009E5BFA2BE
:10295000E3500375BFF7E0A2E45009E5BFA2E450DD
:102960000375BFEFE0A2E55009E5BFA2E55003758E
:10297000BFDFE0A2E65009E5BFA2E6500375BFBF86
:10298000D083D0828088C0E0C0D0E8C0E0E9C0E059
:10299000EAC0E0EBC0E0ECC0E0EDC0E0C0F0E5A7CD
:1029A000A2E6500FE5A1A2E6500953A7BF75A1BF4B
:1029B0001229EBE5A7A2E5500CE5A1A2E5500653CC
:1029C000A7DF75A1DFE5A7A2E15009E5A1A2E150CB
:1029D0000375A1FDE5A7A2E2500CE5A1A2E2500615
:1029E00053A7FB75A1FBD0F00228FC74F81221A6B6
:1029F0007521019003D7E064067015120D368A82A6
:102A00008B83A3A3A3A3A3A3E0FAA3E0FB120D90DF
:102A1000A2AFE433FED2AF9003DDE0640170187A18
:102A2000207B009003D6E0F91214567A207B0090A8
:102A300003D6E0F9121342906182E0D2E6F09005ED
:102A400073E0602185C62280169003DCE06401708B
:102A500008E5C654F84405F5C653BEFC1227C074F9
:102A600001652160E4EEA2E092AF7F0102225200F4
:102A70008E238F2485822885832785188285198354
:102A8000E0CEA3E0CF852882852783EBC9EAC8ED95
:102A9000CBECCA75F010C3E833C8E933C9EA33CACE
:102AA000EB33CBC3EA9EF526EB9FF525B35004AB81
:102AB00025AA26EC33CCED33CDD5F0DAAE23AF2406
:102AC0002274EB1221A674FA1220CA8A088B098C90
:102AD000148D159003D7E024F7C394055006908514
:102AE0004F022C23120D368A0A8B0BAE0AAF0BEE67
:102AF0004F7003022C20AC08AD098518828519831C
:102B0000AA82AB83120DC08E828F83A3A378081292
:102B10001F8290850F7808121F36851882851983C9
:102B2000780C121F8290850F780C121F3678087966
:102B30000C121590501F7808790C121F0E90856F9B
:102B400078081215B04047850810850911850A12CA
:102B5000850B138041850C10850D11850E12850F94
:102B60001378107908121F0E90856F78101215B027
:102B7000501C751000751100751200751301781046
:102B8000790C121F0E78107908121ED580089085D6
:102B90004F7810121F8274097810121EB690859714
:102BA0007808121F8278107908121E1A8E828F837D
:102BB000A3A3A3A3A3A3E0F8A3E0F97AD07B031215
:102BC000203F88088909E4F50AF50B781079081286
:102BD0001ED57404122116E0F8A3E0F97AD07B0325
:102BE00012203FE8FA8A08E4F509781079081215EE
:102BF00090500778107908121F0E9003D7E06408F0
:102C0000600AE064066005E06405701C90859B78AE
:102C1000101215B0501290859F7810121EE880088F
:102C200090854B7810121F82851482851583781049
:102C3000121F9174061220E07F0E02225274F712C6
:102C400021A6120DD2900571E064017010906245CA
:102C5000E4F0A3F053F4F343FE0C5390F3120D7E13
:102C6000E5C654804449F5C6E59E547F644970F832
:102C7000906185740FF090056FE0F47002A3E0603E
:102C80004E900570E0600814601B14602E80407543
:102C9000080175090090056FE078081220B7E50873
:102CA000F45280802A75080175090090056FE0785C
:102CB000081220B7E508F4529080147508017509D0
:102CC0000090056FE078081220B7E508F452A0796B
:102CD000007F0202225274F71221A6E9FEEAFF7475
:102CE000016E700C7A807B009003D6E0F912133CE1
:102CF000903038E493F46008E493F9120BD480091F
:102D000053C680E59E547F70FA120D84900571E0E1
:102D100064017003120BEC90056FE0F47002A3E005
:102D2000604B900570E0600814601A14602C803DC0
:102D300075080175090090056FE078081220B7E565
:102D4000084280802875080175090090056FE078B9
:102D5000081220B7E5084290801375080175090034
:102D600090056FE078081220B7E50842A0120DD256
:102D7000120D368A088B09A808A909E8496015E5EB
:102D8000E170FCE82414F582E93400F583E0F46096
:102D900003E0F5E174016F700A7A019003D6E0F95F
:102DA0001213CC022CD174F11221A68A088B098C43
:102DB0000A8D0B740F122116780C121F8290850F4A
:102DC0007808121F3690850F780C121F3678087914
:102DD0000C12159050157808790C121F0E90856F03
:102DE00078081215B0401579018013780C79081213
:102DF0001F0E90856F780C1215B040EB79007F089C
:102E000002225274ED1221A68A088B098C0A8D0BBE
:102E10007413122116780C121F8290850F780812F5
:102E20001F3690850F780C121F36780C7908121512
:102E30009040117808790C121F0EAA08AB09AC0A51
:102E4000AD0B80227510007511007512007513010D
:102E50007810790C121F0E78107908121ED5AA105E
:102E6000AB11AC12AD137F0C02225290850F780883
:102E7000121F828A828B837808121F497F040222E4
:102E80005274F51221A68C828D837808121F828AD3
:102E9000828B837808121F22EA2404F8EB3400F9AD
:102EA0008C828D83A3A3A3A3E0FCA3E0FD88828989
:102EB00083C3E09CF0A3E09DF088828983C3E09403
:102EC00020A3E0944E40229084FF7808121F828A4B
:102ED000828B837808121EFB8A828B83A3A3A3A311
:102EE000E02420F0A3E0344EF0808074F51221A697
:102EF000E9FE900529E0FAA3E0FBEEC333F8E433E2
:102F0000F9748928F582748339F583E02AF508A3DA
:102F1000E03BF509780812234D90856B121FA01233
:102F20002A7074021220E08A088B098C0A8D0B74B7
:102F3000107808121E9DAA08AB097F040222527461
:102F4000F11221A68A0C8B0D8C0E8D0F740F12219D
:102F500016E0FAA3E0FB7411122116E0F508A3E0D5
:102F6000F5097413122116E0FEA3E0FF780812237E
:102F70004DEA2401F508EB3400F509E4F50AF50BF8
:102F8000780C7908121D9A9085A37808121F827810
:102F90000C7908121D9AAA0CAB0DAC0EAD0F122ABB
:102FA0007074021220E08B09EA450960047A0180FE
:102FB000027A00EC2AFCED3400FDECF8EDF97A71B0
:102FC0007B0212203F88088909E4F50AF50B8E82FE
:102FD0008F837808121F91ECF8EDF97A717B021259
:102FE000203F8A088B09740578081220B78E828FDB
:102FF00083A3A3A3A3E508F0A3E509F07F080222B9
:1030000052C082C083E9906000F0D083D08222C099
:10301000E0C0D0E8C0E0E9C0E0A9A8D2AFC2C7755F
:103020001A00E9A2E7E433F8E9A2E792AFD0E0F9A9
:10303000D0E0F8D0D0D0E032FFFFFFFFFFFFFFFF6E
:10304000C082C083E9900AD9F002325F74F712217E
:103050003AE99002F5F07C2D7D037AFF7BFF12099F
:10306000109002F674FFF0A3F0A3E4F0A3F079054A
:1030700012089E9002F5E0F91207C67A287B091221
:103080000AEA023F6D74F412213A8A088B09EB5464
:103090008060309002F5E0F91213248A0A8B0BAE9F
:1030A0000AAF0BEE4F60138E828F83E064B0700323
:1030B0001208B0EEFAEFFB121312AA08E5096480B9
:1030C000FB80047A007B0002322E74F212213A74E3
:1030D000FC1220CAEAFEEBFF7412122116124454AD
:1030E000EE4F700302316D7402122116EEF0A3EF61
:1030F000123469ECF0A3ED123469AA82AB83120793
:10310000C0E9F50A706AE508450960648E828F831C
:1031100012443AEE4F60567A067B001213B48A0CC2
:103120008B0DA80CA90DE8497005750A138041881C
:10313000828983E412317AEEF0A3EF124465E50848
:10314000F0A3E509F09002FB1232019002FB70053A
:10315000123F17801B123F058003EAFCEBFD8C82B7
:103160008D8312320170F38C828D8380E3750A02A5
:10317000A90A74041220E0024654F0A312440BA3DF
:103180002274F212213A890AE975F017A4FEAFF011
:103190009002FAE4F09002F8123201600A1213BAB7
:1031A0009002F8E4F0A3F0EEFAEFFB1213B48A08F1
:1031B0008B09EA4509602FEEFCEFFD790012130040
:1031C0009002F8E508F0A3E509F07B0080081231D1
:1031D000EBE4F0A3F00BEBC3950A40F2E50A900292
:1031E000FAF0790080027913024654EB75F017A4C7
:1031F000F8A9F09002F8E028FAA3E0398A82F58372
:1032000022123BA9EA4B2274F412213A7900EAA275
:10321000E0501B7508C5750984780812234D7C049D
:103220007D007ADB7B0A12089874021220E07F048A
:1032300002220CC082C0839002FB123266601C889E
:10324000828983A3A3E06A7003A3E06B88828983E9
:1032500070E8A3A3A3A3123BA580047A007B00D04F
:1032600083D08202013212473AE8492274EE1221D9
:103270003A74FC1220CAEAFEEBFF85188285198396
:10328000E4F0A3F0EE2402123EF7EE2405124412FD
:10329000EE2404F50EEF12381EE024FE603924FC03
:1032A000604624FE605224FE605E24FE70030233FA
:1032B0007F24FE70030233E324FE70030233F22402
:1032C000FE700302340124FC700302341024FE70EB
:1032D0000302341F02345C9003147417F0A3E41249
:1032E000347112053E02345C851882851983AC82E4
:1032F000AD831208B602342C851882851983AC82FE
:10330000AD831208BC02342C850C08850D097402AB
:10331000122116AC82AD83850882850983123BA5F4
:103320001207E48A0C8B0DAC0CAD0DEC4D603BE448
:10333000F50CF50D780C12234D750C14750D0378F2
:103340000C12234D750C15750D03780C12234D745A
:103350000812211612236412475E1220E0E9F50CD0
:10336000700B123B9B120556800F750C018508826D
:1033700085098312345F123F17850C0802342F74BD
:1033800002122116AC82AD83850C82850D83123921
:1033900070603C850C82850D83A3A3122364751095
:1033A00014751103781012234D75101575110378DB
:1033B0001012234D740812211612236412475E1254
:1033C00020E0E9F509700B123B9B12055C800F753C
:1033D0000901850C82850D8312345F123F17850920
:1033E00008804C851882851983AC82AD831208C28F
:1033F000803A851882851983AC82AD831208C88013
:103400002B851882851983AC82AD831208CE801C6F
:10341000851882851983AC82AD831208D4800D850E
:103420001882851983AC82AD831208DAE9F508E5C4
:103430000860298E828F83A3E06414601F850E824A
:10344000850F83E0900314123469124736900315F8
:10345000123F17E508A3123471120538023E061216
:10346000473A85188285198322F085188285198349
:1034700022F07C147D03850A82850B83123BA922EE
:1034800074EE12213A74FC1220CA8A0A8B0B8C0E3D
:103490008D0FEA2405F508EB3400F5097C157D0055
:1034A00079007A147B03121300E5082402F50CE579
:1034B0000912441585188285198385821085831128
:1034C000781012234D850882850983A3A3A3A31234
:1034D000396712234DE5082405F510E5093400F598
:1034E00011781012234D850C82850D83123CBC127D
:1034F00007DE74061220E08A108B11AE10AF11E5C2
:103500000A2402F50AE50B123EFAEE4F700302366A
:103510003E80177402122116123BA588828983EA25
:10352000F0A3EBF0900314E004F0900314E0C394D4
:1035300005400302363EE4F510F511781012234DD4
:103540007510FD751102781012234D7510FE75115E
:1035500002781012234D740612211612236479107A
:10356000EEFCEFFD1247601220E0E9705E850882F4
:10357000850983A3A3A3A3A3A3A3E0F89002FDE07E
:1035800068704812396712234D7CFE7D02E50824DD
:1035900008FAE5093400FB1212FA74021220E0E97D
:1035A00060298E828F83A3A3A3A3123BA59003144B
:1035B000E0F510740278101220B774152510F5820A
:1035C00074033511F583EAF0A3EBF07402122116AF
:1035D000858210858311781012234D7402122116F2
:1035E000122364850C82850D83123BCB1220E08A66
:1035F000108B11AE10AF11900314E0F5107511008F
:10360000740278101220B774142510F87403351161
:10361000F988828983A3123201700302350AE824F3
:1036200003080808E93400F9EE4F600302351388F7
:1036300082898374FFF0A3F0900314E004F09003F8
:1036400014E0600A123B9B12054A7900800B850842
:1036500082850983123F0E790A023E0674EA12211E
:103660003A74FE1220CA8C128D13EA2405F50CEB75
:1036700012474812443E750800750900EA2402F515
:1036800010EB3400F51185188285198385820A852F
:10369000830B780A12234D850C82850D83A3A3A387
:1036A000A312383412234DE50C2405F50AE50D125A
:1036B0003EFA780A12234D850C82850D8312383824
:1036C0001207DE74061220E08A0A8B0BEA450B70A3
:1036D000030237D9EA2404F50EEB12381E12443ED9
:1036E0008A828B83A3A3A3E0F985108285118312BC
:1036F0003BAF60030237D9E4F514F51578141223B3
:103700004D7514FD751502781412234D7514FE7550
:103710001502781412234D740612211612236479AF
:1037200013AC0AAD0B8510828511831247661220F7
:10373000E0E9F50960030237D99002FDE0F8E508F9
:103740007009E02402900315F08014900315E0FC4A
:10375000E82402FAE43400FBEA6C7001EB707E8529
:103760000882AA8212395E9414123956506B850E63
:1037700082850F83E0C0E074162A123815D0E0F07D
:103780000508850E82850F83A3E0C0E085080A74D2
:1037900016250A123815D0E0F005089002FD1238FF
:1037A0003412234D7CFE7D0285080A7416250A1208
:1037B00038281220E09002FDE02508F50874FF6E1D
:1037C000700374FF6F6012EE24010EEF3400FFE50A
:1037D00008C394145003023686E5086013123BB9FF
:1037E000851082851183123BA51205507900801443
:1037F000E509700375090A851282851383EEF0A32B
:10380000EFF0A90974021220E07F0E02220C850855
:103810000C7416250CF58274033400F583223400F1
:10382000F50F850E82F58322FA74033400FB121221
:10383000E874022212447422A3A312383E22123FDB
:1038400005FDEEFAEFFB2274EE12213A74FE12200F
:10385000CA8C0E8D0FEA2405F50CEB124415750B7E
:1038600000900314E4F0F50AEA2402F508EB3400B2
:10387000F5098044900314E0FA9002FDE0F8123953
:103880005E9417123956400D900314E0F87416C375
:10389000989002FDF012396712234D7CFE7D027470
:1038A000152AFA740312382B1220E09002FDE0F87A
:1038B000900314E028F0050AE50C2416F582E50DC6
:1038C000123819E0F8E50AC3985074900314E0C365
:1038D0009416506BE50AC333F8E433F9E50C28FE7F
:1038E000E50D39FF851882851983AC82AD838E8200
:1038F0008F831239707008750B01123F0A8050E4F3
:10390000F510F511781012234D7510FD7511027820
:103910001012234D7510FE751102781012234D748C
:1039200006122116122364791685088285098312EE
:1039300047661220E0E9F50B700302387480BB7C07
:10394000147D03850882850983123BA5120562A9AF
:103950000B7402023E08E99400C365D03322EA28C2
:10396000F8E43400F9E822E0F5107511007810222F
:10397000123DFD8A108B11AC10AD11EC4D2274EA92
:1039800012213A74FC1220CA8A0C8B0D8C128D13F2
:10399000EA2405F50AEB123EFA750800750900E500
:1039A0000A2402F510E50B3400F5117402122116F9
:1039B00085820E85830F780E12234D850A82850B32
:1039C00083A3A3A3A312441A12234DE50A2405F5E9
:1039D0000EE50B3400F50F780E12234D851082850D
:1039E0001183123F00123B9F1207DE74061220E083
:1039F0008A0E8B0FAE0EAF0FE50C2402F50EE50D0F
:103A00003400F50F80388882898374FFF00508122E
:103A1000380E74FFF005089002FDE0F50C750D00FE
:103A2000780C12234D7CFE7D0285080C7416250C43
:103A30001238281220E09002FDE02508F508EE4F2C
:103A400060278E828F83A3A3A3E0F9850E82850F62
:103A500083123BAFEE2404124412E96027850C82E6
:103A6000850D83123B91123F17E5087003023B77E7
:103A7000123BB9850E82850F83123BA5120568792A
:103A800000023B8CE4F514F515781412234D7514DF
:103A9000FD751502781412234D7514FE7515027804
:103AA0001412234D74081221161223647911EEFCAE
:103AB000EFFD850E82850F831247661220E0E9F53F
:103AC00009709A850882AA82EA9002FD7009E024B2
:103AD00004900315F08025E0F8900315E0F514E854
:103AE0002404FCE43400FDEC65147001ED708112D7
:103AF000395E94121239564003023A70850C828561
:103B00000D83E0C0E074162A123815D0E0F00508E5
:103B1000850C82850D83A3E0C0E012380ED0E01240
:103B20003BD485820C85830D780C12234D740412CE
:103B30002116122364851082851183123BCB12203B
:103B4000E08A0C8B0DAE0CAF0D85080C7416250C9D
:103B5000F874033400F9EE4F7003023A06851882B8
:103B6000851983E088828983123BD4A3E0C0E012E8
:103B7000380ED0E0023A14E509700375090A850A87
:103B800082850B83123B91123F17A90974040238F6
:103B90000612473A851282851383227C147D0385A1
:103BA0000A82850B83123BA922E0FAA3E0FB2212D2
:103BB0003BA91207CCE9F50922900315E0F5F0E5E1
:103BC0000884900314F07C147D032212383E1207FF
:103BD000EA740422F005088518828519832274ECA2
:103BE00012213A74FE1220CA8A088B098C0E8D0F9E
:103BF000EA2405FEEB3400FF123DE7EE24181244E0
:103C000012EA450B7003023C8A123DD05029123C47
:103C1000AF8A108B11EA4511606B7912AC0AAD0BBB
:103C2000850882850983123BA58510828511831240
:103C30002138E9F50A7058E4F50AF50B780A1223E1
:103C40004D8E828F83A3A3E0F50A780A12234DEEEE
:103C50002403123EF7780A12234D8E828F83123C82
:103C6000BC1208FE74061220E0E9F50A7021850CEA
:103C700082850D83E0701F850882850983123BA52C
:103C800012056E8011750A0E8009750A018004E51F
:103C90000A6003123F0A850C82850D83E060047977
:103CA000008002A90A74021220E07F0C02220C8517
:103CB0001882851983123BA91208EC22123F05FDD8
:103CC000850882850983123BA92274EE12213A7479
:103CD000FE1220CA8A088B098C0C8D0DEA2405FE81
:103CE000EB3400FF750E00123DE7EA450B7003024E
:103CF0003DAE123DD0502C123CAF8A0E8B0FEA45E0
:103D00000F604A7912AC0AAD0B85088285098312CF
:103D10003BA5850E82850F83122138E9F50E6003DD
:103D2000023DB1850882850983123FECAA0AFB1285
:103D30003DC270147AFF7BFF123DC2606C8882899D
:103D400083E50AF0A3E50BF0750A008007750E0EF7
:103D5000805F050A9002FAE0FAE50AC39A504AE544
:103D60000A75F017A4FAABF088828983A3A3E02A2E
:103D7000FAA3E03BFB8A828B83123F00EC4D70D2AA
:103D8000750A17750B00780A12234DEEFCEFFD1231
:103D900012E874021220E0EEFCEFFD85088285092E
:103DA00083123BA51205748014750E098003750EED
:103DB00001124732850C82850D83123F17A90E022E
:103DC00039511208E08A108B11A810A911E8492274
:103DD000E5082402F508E5093400F5098A828B8399
:103DE000A3A3A3E0A2E522851882851983AC82AD46
:103DF000838E828F83123DFD8A0A8B0B22E0FAA309
:103E0000E0FB1207E42274041220E07F0A02220C75
:103E100074EC12213A8C108D11EA2405F50CEB128A
:103E20004415750F00EA2402F50AEB123EFA850AE2
:103E300082F583123BA51247EC7003023EEC750E2F
:103E4000008071850C82850D83E06401704F8E8245
:103E50008F83A3A31223648E828F83A3A3A3A3E0E3
:103E6000F512751300781212234DEE2405F512EFAA
:103E70003400F513781212234D123B9F1208FE7482
:103E8000061220E0E9F50F6014850C82850D83E4AD
:103E9000F0124732851082851183123F177C177DFF
:103EA000007900EEFAEFFB1213008E828F83E4F0AC
:103EB000A3F0050E9002FAE0F8E50EC398501EE557
:103EC0000E75F017A4F8A9F0850882850983A3A3CD
:103ED000124752123F00EC4D6003023E43850882B8
:103EE00085098374FFF0A3F0E50F7006123B9F1263
:103EF000057AA90F023CAAF50AEF3400F50B22A3BC
:103F0000123F05FD22E0FCA3E0228E828F83124740
:103F10003A850E82850F83E8F0A3E9F022C082C0C3
:103F2000839002F6E06A7003A3E06B70067AF67B7A
:103F30000280047A007B0002325F74F712213A7F1C
:103F400000EF75F003A4F8A9F0EC28F8ED39F98832
:103F5000828983E06A7003A3E06B7006E8FAE9FBEC
:103F6000800B0FEFC3940240D87A007B007F0102E0
:103F7000220C74F612213A12452370067A007B0057
:103F80008007A3A3A3A3123BA50245E474F2122168
:103F90003AE9FE740E122116123FEC74101221162B
:103FA0001244548C828D83E06402703BA312473626
:103FB00088828983E0F50CA3E0F9A80C740268708C
:103FC000037429697021750C02750D00780C122399
:103FD0004D780812234D780A12234DEEF91209226A
:103FE00074061220E080027901024654E0F50AA32B
:103FF000E0F50B2274E812213A74FB1220CAE9851D
:104000001882851983F08A168B178C0E8D0F741FFA
:104010001221161244547421122116123FEC7423FB
:1040200012211612443E7510008C828D83A3A3A327
:10403000E0A2E4502A741D122116123CB58A828B2C
:1040400083E58245837003024100790AAC0EAD0F0F
:10405000AA16AB17122138E9F51060030241038557
:104060000E82850F83E0640260030243B9A3124706
:1040700036850882850983A3858212858313E50E20
:104080002406F50CE50F12441588828983E0FAA313
:10409000E0F9EA2400F514E439F51578141223D771
:1040A000010000280128C840070002289F4103287A
:1040B0000F410029C9420129F142022998420329EE
:1040C000C94204295A43B943EE4F703E850C82859C
:1040D0000D8312442FFAE9FB8A828B83E0850A82E2
:1040E000850B8312446B12234D8A828B83A3123F6C
:1040F00005FDAA08AB091212E874021220E0800341
:1041000075100EA910740502474075100B80F4EE6F
:104110004F70F7850A82850B837401F01244448541
:104120000882850983F07C007D00850E82850F83DF
:10413000A3A3A3A3E02401FAA3E03400FB1207E445
:10414000EA4B60418A828B83E02402F8850A8285EB
:104150000B83E028F0EA2404F8EB3400F988828924
:1041600083E085128285138312447D12446B1223EF
:104170004D8A828B83123EFFE5082403FAE5093459
:1041800000FB0240F6850A82850B83E02404F07C64
:10419000047D007900AA12AB13121300024103EE52
:1041A0004F600302410A124444FEA3E0FF850A82E5
:1041B000850B837404F0EE850882850983F0EF8512
:1041C0001282851383F07403122116AC82AD83EE44
:1041D000FAEFFB12451170030242758A828B83A3AA
:1041E000A312443A740112211685820E85830F783A
:1041F0000E12234D74051221161223647CFF7DFFDD
:104200001207EA74041220E08B0FEA450F70338521
:104210000C82850D8312441A12234D850C82850D64
:1042200083A31223647C027D007ABC7B8512061670
:1042300074041220E0E9700A740112211674FFF070
:10424000A3F08E828F83E064027034750C02750DCA
:1042500000780C12234D8E828F83123EFFE50824D6
:1042600004FAE50912382B1220E0850A82850B83B7
:10427000E0240280097401122116EEF0A3EFF0741D
:104280000112211612442BF07401122116A31244BC
:1042900023A3A3A3F0024103EE4F600302410A856A
:1042A0000C82850D83123F00AA16AB1712091685E2
:1042B0000A82850B837402F0EA850882850983F0FF
:1042C000851282851383EB80CBEE4F600302410A97
:1042D000124444F8A3E0F9850A82850B837402F046
:1042E000E8850882850983F0E98512828513838039
:1042F000A3850C82850D83123BA51212E2EAFC8C89
:1043000082A882C39EE49F404BE86E7001EF700468
:104310007C00801F851882851983E0FAEE2AFAEF67
:104320003400FBC3EA98EB94005003E08004EECC29
:10433000C39CFCEC850A82850B83F08C0A750B000C
:10434000780A12234D850C82850D83E02EFCA3E0B4
:104350003F0240F1751007024103EE4F6003024136
:104360000A850C82850D83124736850A82850B8368
:104370007407F08882898312442312440BE085126B
:1043800082851383F0E82402FAE93400FB8A828BE9
:104390008312442312445C12442BA312446512443A
:1043A00034F0E82405F8E93400F98882898312445E
:1043B00034A312447DA3024291741D1221161245AA
:1043C0001C7003024100124736880C890DE8450D28
:1043D00070030241008E108F11781012234D780A5D
:1043E00012234D780812234D7406122116E0F9AC01
:1043F0000EAD0FAA16AB17850C82850D83122138DE
:1044000074061220E0E9F510024103F088828983E6
:10441000A322F50CEF3400F50D22E0F50E750F0028
:10442000780E22E0850882850983221244842212B4
:10443000473AE822124484A3A322A3A3A3A3E0FE45
:10444000A3E0FF22850C82850D83E0F8A3E0F583CD
:104450008882E022E0F508A3E0F50922A3A3F08A10
:10446000828B83A32212317CA3A322F08A828B83C6
:1044700012447422E0F50A750B00780A2212440BEC
:1044800012448422E0850882850983A3A32274EE66
:1044900012213A74FE1220CA8A0A8B0BECFAEDFB49
:1044A0007414122116E0F510A3E0F5117416122110
:1044B00016E0FE7418122116E0F50EA3E0F50F8544
:1044C0001882851983AC82AD83124511603E851830
:1044D0008285198312451C602FA3A3124454E5085A
:1044E00045096024780E12234D781012234DEEF901
:1044F000AC0CAD0DAA0AAB0B85088285098312218D
:104500003874041220E08006790E800279010239A5
:10451000511207E48A0C8B0DEA450D22123BA912B9
:104520004523221208AA8A828B83E582458322745E
:10453000F612213A74FE1220CA740C12211612448B
:104540002F851882851983F07401122116E9F0E491
:10455000F508F509780812234D750802780812232A
:104560004D74041221168582088583097808122368
:104570004D1208FE74061220E074021220E08064DE
:1045800074F712213AEAFEEBFF89087C2D7D0312B5
:104590000916EA5402600BA908EEFAEFFB1207D8DD
:1045A00080027901023F6D74F612213A74FF6A703D
:1045B0000374FF6B701C7B00EB75F003A4F8A9F08B
:1045C000EC28F8ED39F91245E90BEBC394025014CD
:1045D00080E61208E68A088B09A808A909E849605C
:1045E000031245E97F0202220C8882898374FF123C
:1045F000317AE4F02274F612213A1208E68A828BAC
:1046000083E58245836006A3A3E0FA80027A007BFB
:104610000080D174F212213A8A088B09ECFEEDFF7A
:10462000740E122116E0F50A124659701CEEFCEFCA
:10463000FD7AFF7BFF12465970047911801688823B
:104640008983E508F0A3E509F088828983A3A3E5BF
:104650000AF079007F0602220C1208E68A0C8B0D04
:10466000A80CA90DE8492274EE12213AEAFEEBFFEC
:104670008C088D09890C7412122116124736741495
:10468000122116123F007416122116123BA5750D49
:1046900000EC4D600302472A7402650C6003024778
:1046A0002588828983123F05F9EC2400F50EE43950
:1046B000F50FEAF4F8EBF4F9EC58F8E50F59F9E8DE
:1046C00049705DE5082406F8E5093400F9880A898F
:1046D0000B8882F58312383A1209168A108B11E57D
:1046E0000E65107004E50F65116042780E12234DBF
:1046F000850A82850B8312383A12091C7402122033
:10470000E0E9F50D7027780E12234D8508828509A2
:1047100083A3A312383812092E74021220E0800DF0
:10472000750D808008750D0D8003750D0BA90D02A8
:104730003E0B8E828F8312473A22E0F8A3E0F922E3
:104740001220E07F1002220C3400F50D850C82F55A
:104750008322E028FEA3E039FF8E828F8322791620
:10476000850A82850B83123BA91208F8740822740B
:10477000F212213AEAFEEBFF890B7401650B600E21
:104780007402650B70637901120B08E9705BEEFA35
:10479000EFFB1247EC6047750A00800B7C177D0029
:1047A0007900121300050A9002FAE0F8E50AC398AE
:1047B0005021E50A75F017A4F8A9F085088285094B
:1047C00083A3A3E028FAA3E039FB8A828B83123209
:1047D0006670C985088285098374FFF0A3F07C2D7B
:1047E0007D03EEFAEFFB1209100246541208E08A2C
:1047F000088B09EA45092274F212213A8A088B09CA
:10480000ECFEEDFF740E122116123FEC900AD9E077
:10481000F4603D7A097B0012130CEA4B60328A8205
:104820008B8374B1F0A3E412445EA312445CA3E54D
:1048300008F0A3E509124853EEF0A3EF124853A382
:10484000A3E50AF0A3E50BF0900AD9E0F9121318DA
:10485000024654F08A828B83A3A3A3A3A322C0821F
:10486000C0839061907404F0A37448F0A37402F0C4
:104870009061807440F09061BC7403F09061877423
:1048800019F0906265741BF090619C740DF090615A
:104890009A7433F0A37455F09061A0743AF09005C7
:1048A00071E064017009C2919003DB746780059028
:1048B00003DB7461F090303EE493906186F09030B9
:1048C00038E493F46027E493540FF8906185E0682E
:1048D0006012E5C654804449F5C6E59E547F64499C
:1048E00070F8E8F053C680E59E547F70FA7905129F
:1048F0000E5C024AA0C082C083E9540FF990618522
:10490000E0696012E5C654804449F5C6E59E547FCF
:10491000644970F8E9F053C680E59E547F70FA024E
:104920004AA0C082C083E5A8F853A87E906181E4C4
:10493000F0A3F0A3F0C2BA539AFEC289759B00C2DD
:10494000C275E90075910075BF0075A91175B905AB
:10495000906181F0A374C0F0A3E4F0D2BA439A014D
:1049600074805842A8024AA0C082C08374F8122002
:10497000CA9003D9E0F8A3E0F9E8497003024A9627
:104980009003D9E054406023790885188285198303
:10499000AA82AB83120CC4851882851983AA82ABC4
:1049A0008312099A9003D9E054BFF0E0548060105C
:1049B000790C7A957B05120CC49003D9E0547FF0F2
:1049C000E0A2E0503190619A7433F0A37455F090F6
:1049D00061A0743AF0900571E064017009C2919091
:1049E00003DB746780059003DB7461F01209A0900B
:1049F00003D9E054FEF0E05402603190619A743FB4
:104A0000F0A3745AF09061A0747FF0900571E06497
:104A1000017009D2919003DB747180059003DB74FF
:104A20006AF01209A09003D9E054FDF0E05404604C
:104A30001390303CE493906186F01209A69003D95C
:104A4000E054FBF0E05408601390303DE493906133
:104A500086F01209A69003D9E054F7F0E0541060F4
:104A60001390303EE493906186F01209A69003D92A
:104A7000E054EFF0E05420600A1209A69003D9E058
:104A800054DFF0A3E05401600D120BEC1209AC905E
:104A900003DAE054FEF074081220E08003F0A3F083
:104AA000D083D08202013274EC12213A74F41220C5
:104AB000CA851882851983AC82AD8375838575821A
:104AC0001B7404121FDD90303C93F46003024C34DD
:104AD000907808E0C394025003024C14740412212D
:104AE00016AC82AD8375838475829E7408121FDDB7
:104AF0008518828519838582128583137404122197
:104B000016AC82AD83750EFF750FFF7FFF7E0075BB
:104B10000C48750D78801574086E7003024BA774ED
:104B2000096E7003024BA7740A6E607B850C828548
:104B30000D837808121F828C828D83A909E50AC92A
:104B4000F8881074187808121E9DE5104508F8C3FF
:104B5000E098A3E099850C82850D837808121F8266
:104B600040188C828D8374187808121E9DE51045BC
:104B700008F8E0C398F8A3E0801C74187808121EA7
:104B80009DE5104508FAE9FB8C828D83E0F8A3E0EF
:104B9000F9EAC398F8EB99F9C3E8950EE9950F5037
:104BA00006880E890FEEFF0EE50C2404F50CE50DCA
:104BB0003400F50DEEC394135003024B1774FF65D8
:104BC0000E700474FF650F60238F0874027808125A
:104BD00020B774482508F58274783509F58378087C
:104BE000121F82851282851383E508F0EC24020CE3
:104BF0000CED3400FD851282851383A38582128516
:104C00008313740C122116E5826C7003E5836D60CA
:104C100003024B05750801750900780812234D74CD
:104C200002122116AC82AD837A0F7B0C121294749F
:104C3000021220E0740C1220E07F0C02220CC082D1
:104C4000C0839061AE7468F0A3746AF0906245749A
:104C5000FBF0A304F053F4FD43FE029005717401D0
:104C6000F09061A0E0643A90619A70237433F0A3ED
:104C70007455F09061A0743AF0740164017009C237
:104C8000919003DB746780289003DB74618021744A
:104C90003FF0A3745AF09061A0747FF07401640136
:104CA0007009D2919003DB747180059003DB746A04
:104CB000024A9F7F0402220CC082C083900523E039
:104CC0006401700A900528E06004790C8002790084
:104CD000024AA0C082C08375E1F1900526E06055CC
:104CE0001460081460591460518059120BFE90052D
:104CF0001CE0F97A1D7B05120DDE90851F121FA0A6
:104D0000120E14908503121FA0120DEA900527E0E1
:104D1000F9120DF67901120E5090051AE02416F8DA
:104D2000A3E03400F9888289837416F0A3740CF030
:104D30007900024AA0120C0480B4120C0A80AF124F
:104D40000C1080AA791280EA74F412213A75D90DF8
:104D500090050BE0A2E0E4331313F890051CE0C4C7
:104D6000333354C0484401F5D9781A7905888289CB
:104D700083A3A3A3E0F5D988828983A3A882A9830A
:104D8000E864207003E9640570E3780B7905888294
:104D90008983A3E0F5D988828983A3A882A983E8BF
:104DA00064117003E9640570E575E19590050BE009
:104DB000F97A0C7B05120DE4900AFB74AAF0A37437
:104DC0000BF0A3740CF0A3740DF0A3740CF0A37497
:104DD0000DF0A3740CF0A3740DF0A374B0F0A374E1
:104DE0000BF0A3740CF0A3740DF0A374C8F0A374BB
:104DF0000BF0900B09740CF0A3740DF0A3740CF07D
:104E0000A3740DF0A3740CF0A3740DF0A3740CF054
:104E1000A3740DF0A3740CF0A3740DF0A3740CF044
:104E2000A3740DF090051AE0F8A3E0F5838882A33F
:104E3000A37808121F829085277808121EE89085B3
:104E40000F7808121F3690051AE0240EF8A3E034FC
:104E500000F9888289837808121F9190051AE0244E
:104E600014F8A3E03400F9888289837413F0900366
:104E7000D77402F0024CB3C082C08390052CE024AA
:104E800007F5D990051CE0C4333354C0F5D9781A1E
:104E9000790588828983A3A3A3E0F5D988828983D1
:104EA000A3A882A983E864207003E9640570E390F5
:104EB000052CE0601F781A7905FAE82413F582E9D9
:104EC0003400F583E0F5D988828983A3A882A98379
:104ED0001AEA70E690054CE02407F5D990051CE02D
:104EE000C4333354C04404F5D9781A7905888289CB
:104EF00083A3A3A3E0F5D988828983A3A882A98389
:104F0000E864207003E9640570E390054CE0601FDD
:104F1000781A7905FAE82433F582E93400F583E05C
:104F2000F5D988828983A3A882A9831AEA70E675D5
:104F3000E195900AFB74B6F0A3740BF0A3740CF027
:104F4000A3740DF0A3740CF0A3740DF0A3740CF013
:104F5000A3740DF0A374B0F0A3740BF0A3740CF061
:104F6000A3740DF0A374C8F0A3740BF0900B097434
:104F70000CF0A3740DF0A3740CF0A3740DF0A374E3
:104F80000CF0A3740DF0A3740CF0A3740DF0A374D3
:104F90000CF0A3740DF0A3740CF0A3740DF09084C6
:104FA000FF121FA090051AE0240EF8A3E03400F9C8
:104FB00088828983121FAC90051AE02414F8A3E0BC
:104FC0003400F9888289837412F09003D774010247
:104FD0004A9FC082C08390052CE02407F5D9900534
:104FE0001CE0C4333354C04402F5D9781A790588DB
:104FF000828983A3A3A3E0F5D988828983A3A882A9
:10500000A983E864207003E9640570E390052CE04F
:10501000601F781A7905FAE82413F582E93400F55F
:1050200083E0F5D988828983A3A882A9831AEA70CC
:10503000E675E195900AFB74C2F0A3740BF0A374BB
:10504000C2F0A3740BF0A374C2F0A3740BF0A374AA
:10505000C2F0A3740BF0A374C2F0A3740BF0A3749A
:10506000C2F0A3740BF0A374C8F0A3740BF0900B00
:1050700009740CF0A3740DF0A3740CF0A3740DF07C
:10508000A3740CF0A3740DF0A3740CF0A3740DF0D2
:10509000A3740CF0A3740DF0A3740CF0A3740DF0C2
:1050A0009084FF121FA090051AE0240EF8A3E034AC
:1050B00000F988828983121FAC90051AE02414F845
:1050C000A3E03400F9888289837414F09003D774C4
:1050D00004024A9FC082C08390052CE02407F5D9C2
:1050E00090051CE0C4333354C04406F5D9781A79CE
:1050F0000588828983A3A3A3E0F5D988828983A345
:10510000A882A983E864207003E9640570E3900530
:105110002CE0601F781A7905FAE82413F582E93447
:1051200000F583E0F5D988828983A3A882A9831A30
:10513000EA70E690054CE02407F5D990051CE0C420
:10514000333354C04404F5D9781A790588828983A9
:10515000A3A3A3E0F5D988828983A3A882A983E8C1
:1051600064207003E9640570E390054CE0601F78EB
:105170001A7905FAE82433F582E93400F583E0F57D
:10518000D988828983A3A882A9831AEA70E675E187
:1051900095900AFB74BCF0A3740BF0A3740CF0A3FD
:1051A000740DF0A3740CF0A3740DF0A3740CF0A3B1
:1051B000740DF0A3740CF0A3740DF0A3740CF0A3A1
:1051C000740DF0A374C8F0A3740BF0900B09740C69
:1051D000F0A3740DF0A3740CF0A3740DF0A3740C81
:1051E000F0A3740DF0A3740CF0A3740DF0A3740C71
:1051F000F0A3740DF0A3740CF0A3740DF09084FF71
:10520000121FA090051AE0240EF8A3E03400F988DC
:10521000828983121FAC90051AE02414F8A3E034AD
:1052200000F9888289837415F09003D77403024AC9
:105230009FC082C08390051AE0F8A3E0F5838882BE
:10524000A3A3A3A3A3A3E4024A9D74F712213A9057
:105250000405E0F875F004A4C8AAF02AF974072838
:10526000F8740439F9E82405FAE93400FB8A828BE2
:1052700083E0FCA3E0FD88828983A3A3A3A3A3A367
:10528000A3A3A3ECF0A3EDF088828983A3A3A3A337
:10529000A3A3A3E024FFF8A3E034FFF98A828B8361
:1052A000E8F0A3E90254EF74F712213AEAFEEBFFAB
:1052B0009061D0E0600302538475D90E75D90375EF
:1052C000D904EE248CF582EF3400F583E5822408BE
:1052D000F8E5833400F9E0F5D9A3E865827003E9C5
:1052E000658370F2EE2484F582EF3400F583E58265
:1052F0002404F8E5833400F9E0F5D9A3E865827069
:1053000003E9658370F275E1957908EE248CFAEF74
:105310003400FB120CB87904EE2484FAEF3400FB5D
:10532000120CB87C00EEF8EFF9ECFAC3E49AFA95A7
:10533000E0FBEE2AFAEF3BFBEA248BF582EB34002C
:10534000F583E0C0E0E824ABF582E93400F583D0D2
:10535000E0F00C88828983A3A882A983ECC3940817
:1053600040C7EE2470F582EF3400F583E0F8A3E047
:10537000F9EE2472F582EF3400F583E8F0A3E9F04A
:105380007901800279000254F0C082C08375D9028D
:1053900075D90375D90575E195EA2470F582EB346A
:1053A00000F583E0F8A3E0F9EA2472F582EB34001B
:1053B000F583E8F0A3E9F07901024AA074F612211E
:1053C0003AEAFEEBFF9005757406F07508757509ED
:1053D00005780812234D7C017903120D0074021226
:1053E00020E075D90675D903758275758305E0F5DA
:1053F000D9A3E582647A7004E583640570F075E1F1
:10540000959003D7E06408701EEE2470F582EF34A7
:1054100000F583E0F8A3E0F9EE2472F582EF3400A2
:10542000F583E8F0A3E9F079010255BC74F6122186
:105430003AEAFEEBFF9061D0E07066780190057566
:10544000740BF09003D7E06407701975087575093F
:1054500005780812234D7C017903120D00740212A5
:1054600020E07805740128F5D975D9037582757522
:105470008305E8FAE0F5D9A31AEA70F875E195EE2C
:105480002470F582EF3400F583E0F8A3E0F9EE2410
:1054900072F582EF3400F583E8F0A3E9F07901803A
:1054A0000279000255BC74F712213AEAFEEBFF754F
:1054B000D90375D90375D90DEE24DEF582EF3400DA
:1054C000F583E0F5D975E1957904120E1AEE247092
:1054D000F582EF3400F583E0F8A3E0F9EE2472F5ED
:1054E00082EF3400F583E8F0A3E9F079018001F060
:1054F0007F0102220C74F612213AEAFEEBFF906162
:10550000D0E0F87480C398FAEE2483F582EF34007B
:10551000F583E06004780480027800E8240BF8EA60
:10552000C39850030255BA7D09900575EDF0EE243D
:10553000E3F8EF3400F97A767B057C08888289836A
:10554000E08A828B83F088828983A3A882A9838AD8
:10555000828B83A3AA82AB831CEC70E0EE2483F5DC
:1055600082EF3400F583E0601D75087575090578D4
:105570000812234D7C097903EEFAEFFB120D00743B
:10558000021220E07D0D74012DF5D975D9037582C5
:10559000757583058D08E0F5D9A31508E50870F643
:1055A00075E1957904120E1AEE241DF582EF340090
:1055B000F583E4F0A3F07901800279007F020222F2
:1055C0000C74F612213AEAFEEBFF9061D0E0F87419
:1055D00080C398FAEE2483F582EF3400F583E0600F
:1055E00004780480027800E82408F8EAC39850039D
:1055F0000256C17D06900575740CF09003F4E0909E
:105600000576F07AF57B03787779057C028A828BC0
:1056100083E088828983F08A828B83A3AA82AB830A
:1056200088828983A3A882A9831CEC70E07AF77B27
:10563000037C028A828B83E088828983F08A828B52
:1056400083A3AA82AB8388828983A3A882A9831CAF
:10565000EC70E0EE2483F582EF3400F583E0601D0A
:10566000750875750905780812234D7C067903EED7
:10567000FAEFFB120D0074021220E07D0A74012D76
:10568000F5D975D9037582757583058D08E0F5D94F
:10569000A31508E50870F675E1957904120E1AEE67
:1056A0002470F582EF3400F583E0F8A3E0F9EE24EE
:1056B00072F582EF3400F583E8F0A3E9F079018018
:1056C0000279000255BC74F612213AEAFEEBFF9013
:1056D00061D0E0F87480C398FAEE2483F582EF3449
:1056E00000F583E06004780480027800E82404F880
:1056F000EAC39850030257A07802900575E8F0EECF
:1057000024F5F582EF3400F583E0900576F0EE2481
:1057100083F582EF3400F583E0601B750875750929
:1057200005780812234D7C027903EEFA120D0074FD
:10573000021220E07806740128F5D975D903758224
:10574000757583058808E0F5D9A31508E50870F696
:1057500075E195EE2474F582EF3400F583E4F0EE04
:105760002480F582EF3400F583E4F0EE241DF58209
:10577000EF3400F583E4F0A3F07904120E1AEE245E
:105780000DF582EF3400F583E0F8A3E0F9EE247222
:10579000F582EF3400F583E8F0A3E9F079018002A7
:1057A00079000255BC74F612213A9061D0E0F87489
:1057B00080C398FCEA2483F582EB3400F583E06033
:1057C00004780480027800E82404F8ECC398405B75
:1057D00079029005757407F0EA24F6F582EB34003F
:1057E000F583E0900576F0EA2483F582EB3400F54A
:1057F00083E06018750875750905780812234D7CDB
:105800000209120D0074021220E07906740129F5D4
:10581000D975D903758275758305E9F8E0F5D9A3C3
:1058200018E870F875E1957901800279000255BC9D
:1058300074F512213AE9FCA2AFE433F50AC2AF7D58
:105840000080010DEA246FF582EB3400F583E0F867
:10585000EDC398501A8D08EA2508F8EB3400F9E8F2
:10586000246BF582E93400F583E06C70D68024EA7D
:10587000246FF8EB3400F9E0FEEA2EFAEB3400FB7B
:10588000EA246BF582EB3400F583ECF0888289839F
:10589000E004F0E50AA2E092AF7F0302220C74F666
:1058A00012213AA2AFE433FDC2AFEA246FF582EBD6
:1058B0003400F583E014F07C0060368C08EA25089B
:1058C000F8EB3400F9E8246CF582E93400F583E064
:1058D000C0E0E8246BF582E93400F583D0E0F00CF9
:1058E000EA246FF582EB3400F583E0F8ECC39840CE
:1058F000CAEA246EF582EB3400F58374FFF0EA24E3
:105900006AF582EB3400F583E4F0EDA2E092AF0299
:1059100055BCC082C083E5A8F8C2AFEA246BF5820B
:10592000EB3400F583E9F0EA246AF582EB3400F504
:1059300083E4F0E8A2E792AF024AA074F312213A9E
:10594000EAFEEBFFECFAEDFB8A828B83A3A3A3A311
:10595000E0541FF0EE2436F582EF3400F583E4F0D6
:10596000F50AEEFCEFFD8A828B83E0C0E0EC245D5B
:10597000F582ED3400F583D0E0F0750B00E50A33D5
:10598000333354F8F50C8A828B83E0F508750900EF
:10599000E50B7808122098E508A2E0502FEE243697
:1059A000F8EF3400F988828983E0F508EE2508F5E0
:1059B00008EF3400F509E5082438F582E5093400DC
:1059C000F583E50CF088828983E004F0050B050C73
:1059D000E50BC3940840AF050A8A828B83A3AA8291
:1059E000AB838C828D83A3AC82AD83E50AC394051F
:1059F00050030259667F0502220C74F712213A9077
:105A00000403E0640170077A007B00025B717E0092
:105A1000900409E070F17401F0A3E4F0A3F09004A5
:105A20006904F090046CE4F0A3F090046F04F0902B
:105A3000040CE4F0A3F0A3F0A3F090041604F0909B
:105A4000043CE4F090854B121FA090041F121FAC81
:105A5000900423E4F0A3F0A3F0900487F090047B7B
:105A6000F09004707480F0A3E4F0900476F0900459
:105A70006EF09004F2F0A3F0A3F0A3F0A3F0A3F073
:105A8000A3F0A3F09004FBF090048AF09004DAF005
:105A9000A3F090854B121FA09004DC121FAC9085E0
:105AA0004B121FA09004E0121FAC9004E6E4F090AB
:105AB00004E8F09004E4F09004FEF0A3F0A3F0A357
:105AC000F0A3F0A3F0A3F0A3F078037904E8246F27
:105AD000F582E93400F58374FFF00E88828983A390
:105AE000A882A983EEC3940440E37A037B0478126E
:105AF000790588828983E0C0E0EA2461F582EB348D
:105B000000F583D0E0F088828983A3A882A9838AE4
:105B1000828B83A3AA82AB83E864177003E96405D0
:105B200070D07A037B0478EA790388828983A3E0C2
