:020000040000FA
:1008000034F9FFFF0000007C41414141FFFFFFFF41
:10081000FFFFFFFFFFFFFFFFFFFFFFFFFFFFFFFFE8
:10082000000102030405060708090A0BFFFFFFFF8A
:10083000020C23021C7BFFFFFFFFFFFFFFFFFFFFF8
:10084000FFFFFFFFFFFFFFFFFFFFFFFFFFFFFFFFB8
:10085000FFFFFFFFFFFFFFFFFFFFFF022377FFFF09
:10086000FFFFFFFFFFFFFFFFFFFFFFFFFFFFFFFF98
:10087000FFFFFFFFFFFFFFFFFFFFFF021894FFFFD7
:10088000FFFFFF021CEEFFFFFFFFFFFFFFFFFFFF69
:10089000FFFFFFFFFFFFFFFFFFFFFF02180CFFFF3F
:1008A000FFFFFFFFFFFFFFFFFFFFFF021851FFFFEA
:1008B000FFFFFF021B2F01FFFFFF32FFFFFF0000C2
:1008C000B4000028002800283075A000A000A00077
:1008D000A00000080008E001F00010001000100067
:1008E00010001000100050005000500010001000C8
:1008F000D0070000000000000F0001000500307567
:1009000007001000010081FF0000FF342652263A44
:1009100026FF02020208025000A0000000E80302C5
:1009200063820100005282026782010000E3090233
:100930006D82010000C602026782010000E4090224
:100940006F82010000DC02026782010000E50902FB
:100950007182010000DE02026782010000E60902E6
:100960007382080000DF02026782010000E70902CB
:100970007582010000E809FF0100FF200263820187
:10098000000055820267820100004C0A0295820035
:1009900000000000026B820300002C03102C102CBE
:1009A000102C102C102C102C102C102C102C102C67
:1009B000102C102C102C9E2EB62E982E6810080984
:1009C000416C7068616365051210001000020A0036
:1009D0000201060302E7FE11FF4D49470000000037
:1009E000000000000000000000416C706861636559
:1009F000822F0000882F1A0A436F6C6F6D6F20439F
:100A00006F6E74726F6C0010436F6C6F6D6F20436C
:100A10006F6E6669726D000263820100005B820284
:100A20006782010000C70A028D82010000B0070240
:100A30006982010000C70A026782010000C80A0239
:100A40008982030000C407026982010000C90A020A
:100A50006782010000D80A028782010000C70702EE
:100A60006982010000D90A020202020202020202A5
:100A7000010D00000010010263820100005E82028D
:100A80006782010000380B028182010000C8070262
:100A90006782010000390B027F8201000060810241
:100AA00067820100003A0B027D820100004581024D
:100AB00067820100003B0B027B82010000A18002E3
:100AC00067820100003C0B027982010000B38002C2
:100AD00067820100003D0B028582010000D7800281
:100AE00067820100003E0B028B82010000C580027C
:100AF00067820100003F0B029182010000378102F2
:100B00006782010000400B029382010000410B014B
:100B1000E803053F10011C026382010000588202B5
:100B20006782010000E70B103080020000AD080270
:100B30006B82030000AF080269820100005381024A
:100B40006782010000E70B104080020000AE08023F
:100B50006B82030000B5080269820100006D81FF0D
:100B6000FFFFFF00013075030201060000000000D6
:100B70000000000000000000000000000000000075
:100B800000000000000000FFFF0600800CE803E505
:100B9000C754F84405F5C779012200000080FB1214
:100BA0000B8FB90003020C0DE479217808B800021C
:100BB0008004F709D8FCE479297802B8000280049F
:100BC000F709D8FCE4900280780979088002F0A344
:100BD000D8FCD9FA781C9008B67A01BA00028007CE
:100BE000E493A3F608DAF97A887B099008B778D9F4
:100BF00079038015E493A3AD82AE838A828B83F060
:100C0000A3AA82AB838D828E83D8E9D9E775820E41
:100C10007583A77407120C3575829A75830B74005F
:100C2000120C3575D00075813F751A80751B0275E1
:100C30009F00020B9FC09FF59FE473D09F22D0833B
:100C4000D082C09FE493C0E0740193C0E07402932B
:100C5000F59F22E066701008A3E066700A08A3E022
:100C600066700408A3E06622C3E7960809E79608C1
:100C700009E7960809E79622C3E09608A3E09608DC
:100C8000A3E09608A3E09622C00AC3E096F50A08FE
:100C9000A3E096420A08A3E096420A08A3E096451C
:100CA0000A7001D3D00A22E9799EC608CAC608CBC9
:100CB000C608CCC6C370207996CACBCC7019798E81
:100CC000CBCC70137986CC700EF9802ACA33CACB8C
:100CD00033CBCC33CC331930E7F2CCCBCA335014FE
:100CE0007004EA30E00DE4CA3ACACB3BCBCC3CCC32
:100CF000500209C3E913C6CC182313C6CB18C6CAC1
:100D000018C6F922120D4420F01430E72B74FFFCB2
:100D1000FBFA747F8022E4FCFBFA7480801AB480B2
:100D200008BC00F2BB00EF800F50EBF9E4C39AFA65
:100D3000E49BFBE49CFCE499C6CC18C6CB18C6CA5D
:100D400018C6F922E4C9C608CAC608CBC6D33303FD
:100D500008CCC63392F0C3947F402E94184019C932
:100D6000B90704CACBCC225025C309CA33CACB3336
:100D7000CBCC33CC33D9F422F4600DC9CCC313CB24
:100D800013CBCA13CAD9F6CC22E4FCFBFA2214FC1A
:100D9000FBFA22E62618461846184622E727194786
:100DA0001947194722181818E60846087009E62658
:100DB000087005E633F4220822191919E7094709D2
:100DC0007009E727097005E733F4220922E608468F
:100DD00008C3134608336002E633F422E7094709E3
:100DE000C3134709336002E733F42200120DCD60CC
:100DF0004F120DDC6012E7548066F6120DA57011DB
:100E0000120D9C703B090909F4F618F618F618F64D
:100E100022120DB97015120D9308080860EAE64415
:100E20007FF618768018E4F618F622120D936016F5
:100E3000120D9C7012E4F608F608F608E65480F6E7
:100E400009090918181822EAC0E0EBC0E0ECC0E07C
:100E5000EDC0E0E687F0A4FBACF008E687F0A42C38
:100E6000FCE435F0FA1809E687F0A42C4B60027414
:100E700001CA35F0FCE433FB09E687F0D2F7A42C75
:100E8000CB35F0FC1908E687F0A42BCC35F0FBE459
:100E900033FD0819E687F0D2E7A42C4ACB35F0CD14
:100EA0003400FC09E687F0D2E7A42DCC35F0FDE450
:100EB00033FA0918E687F0D2F7A42CCD35F0CA34FE
:100EC00000FC08E687F0D2E7D2F7A42ACC35F07A06
:100ED0007E20E70B0ACB33CBCD33CDCC33CC33CB19
:100EE0003350147004ED30E00ED2F1E4CD3DCDCCA2
:100EF0003CCC3B5005DA05C2F1EB547FC63308E623
:100F00003392F0FBE73309E733C39A502D2B701966
:100F10000C0D4C4D70151806E608C333700D20F10A
:100F20000AA2F013F6E418800B4024E4F630F00235
:100F3000768018F618F618F68024D33B14501074F7
:100F4000FFA2F013F6187680E418F618F6800FA2C8
:100F5000F013F618E63303F618ECF618EDF6D0E0C9
:100F6000FDD0E0FCD0E0FBD0E0FA22120DCD700401
:100F700018181822120DDC700D74FFF61819F618E7
:100F800019F61819F622E7548066F6120D93700FC1
:100F9000120D9C70F014F608F608F608F680D112CF
:100FA0000D9C700CF608F608768008E6447F80EC0D
:100FB000120DBC700C120DA860BFE65480F6E480E0
:100FC000BB120DA8700519191980A5E869700C7677
:100FD0003F18768018F618F6E8F922E6CDC0E0183A
:100FE000ECC0E0E633CD33CDD313F6E719FCE719B7
:100FF0001933CC33C3947F400ECD9D502408E65462
:1010000080F6E418F6800FF4043D14501408E6440A
:101010007FF6187680E418F618F6D0E0FCD0E0FDF4
:1010200022CCD313CCFD18E4C6CBC0E018E4C6CA6A
:10103000C0E00808ED08C633E613F618E433C675B9
:10104000F003C3CA97CA09CB97CB199C40047D080B
:10105000802EBD000302111416B6FF050606081601
:1010600018C3CA33CACB33CB33CA27CA09CB37CB51
:10107000193CC37D08803E187D0820E75CC633C656
:10108000CA33CACB33CB33DDF1D5F0EB30E77BCAC3
:1010900097CA09CB974ACB199C406F4B7025E62025
:1010A000E0218066187D08C3CA97CA09CB97CB197F
:1010B0009CD3C633C6CA33CACB33CB3350C9DDE762
:1010C000D5F0E1D3E4C636C608C636C608C636C66D
:1010D00008C636C61818188031C3CA97CA09CB97F4
:1010E000CB199CB34097C633C6CA33CACB33CB3374
:1010F000DD34D5F02EC6A2E0C640C8CA27CA09CB47
:1011000037194A70BECB3CB480B90808E63308E60C
:1011100033601F181818D0E0FAD0E0FBD0E0FCD004
:10112000E0FD22187D08CA27CA09CB37CB193CD36A
:10113000808013F618E4B67F11F618B6FF0EF61885
:10114000C60470D20808768080CAF618F618F680B1
:10115000C5080808EAC0E0EBC0E086F0E7A4FA188A
:101160000986F0E7A42AFA180986F0E7A42AFA18F3
:101170000986F0E7A42AFA1986F0E7A4FBE5F02A2D
:10118000FA190886F0E7A42BFBE5F03AFA1908866D
:10119000F0E7A42BFBE5F03AFA18180986F0E7A46B
:1011A000C5F02BFBE43AFA1908E7C5F0C6A426F609
:1011B000E5F03BFBE43AFA1886F0E7A4F6E5F00820
:1011C00026F6E43B08F6E43A08F6D0E0FBD0E0FA75
:1011D00022E4CFC0E0E4CEC0E0E4CDC0E0E4CCC087
:1011E000E075F020E626F608E633F608E633F60862
:1011F000E633F6181818EC33FCED33FDEE33FEEF52
:1012000033FFC3EC9709ED9709EE9709EF9719198A
:1012100019400FFFEC97FC09ED97FD09EE97FE19B9
:101220001906D5F0BFECF709EDF709EEF709EFF76E
:10123000191919D0E0FCD0E0FDD0E0FED0E0FF228B
:101240006016080808C6C313C618C613C618C61306
:10125000C618C613C6D5E0EA22700908080822603D
:1012600016181818C6C333C608C633C608C633C610
:1012700008C633C6D5E0EA22E627F60809E637F6BF
:101280000809E637F60809E637F622E026F608A34D
:10129000E036F608A3E036F608A3E036F622E026AC
:1012A000F008A3E036F008A3E036F008A3E036F03B
:1012B00022C3E697F60809E697F60809E697F608C6
:1012C00009E697F622C3E096F008A3E096F008A39B
:1012D000E096F008A3E096F022E056F608A3E05668
:1012E000F608A3E056F608A3E056F622E056F0080A
:1012F000A3E056F008A3E056F008A3E056F022E081
:10130000F608A3E0F608A3E0F608A3E0F622E6F06C
:1013100008A3E6F008A3E6F008A3E6F022E0FAA3AB
:10132000E0FBA3E0FCA3E0FD22EAF0A3EBF0A3ECDA
:10133000F0A3EDF022E0F8A3E0F9A3E0FAA3E0FBCC
:1013400022E8F0A3E9F0A3EAF0A3EBF022CAC0E0A0
:10135000E6F0A308DAFAD0E0FA22CAC0E0E0A3C5BA
:1013600082CCC582C583CDC583F0A3C582CCC5829E
:10137000C583CDC583DAE6D0E0CA22C3E498F8E499
:1013800099F91213BC8026C3E49AFAE49BFBE92086
:10139000E7E91213BCE498F8E499F922C3E498F859
:1013A000E499F91213BCE498F8E499F9C3E49AFAC1
:1013B000E49BFB22EB20E7CFE920E7E0B90010BB7C
:1013C0000008E88AF084F8AAF022E4FBC8FA22EBCD
:1013D00070227B10C833C8C933C9335007C39AC3BE
:1013E000DBF280069A50012ADBEAC833F4C8C9331D
:1013F000F4C9FA2275F008E4C833C8C933C933C93F
:101400009AC99B5004C92AC93BD5F0ECFBC833F4F8
:10141000C8E4C9FA22600D08C6A2E713C618C613AD
:10142000C6D5E0F322600C08C6C313C618C613C69F
:10143000D5E0F422700422600D18C6C333C608C676
:1014400033C6D5E0F41822251A10AF08F51A400C5F
:10145000151B8008F51A4002151BD2AF2200C0D020
:10146000251A10AF08F51A500C051B8008F51A5004
:1014700002051BD2AFD0D022251AF58210AF08F595
:101480001A400C151B8008F51A4002151BD2AF85B7
:101490001B8322251AF582E4351BF58322251AF8D1
:1014A000E4351BF922251AFAE4351BFB22251AFC28
:1014B000E4351BFD22E473251AC582C0E0E51B3428
:1014C000FFC583C0E0E51AC3958224F810AF0885F4
:1014D000831B85821A800885831B85821AD2AFCE32
:1014E000F0A3E520F0A3780AE608F0A3DEFAEFF017
:1014F000A3E58124FAF8E608F0A3E608F0A3E608DD
:10150000F0A30808E608F0A3E608F0A3158115810A
:10151000D0E0FED0E0F8158115811581E8C0E0EE3D
:10152000C0E022251AC582C0E0E51B34FFC583C098
:10153000E0E51AC3958224F910AF0885831B8582E4
:101540001A800885831B85821AD2AFCEF0A3E520CE
:10155000F0A3780AE608F0A3DEFAEFF0A3E5812411
:10156000FBF8E608F0A3E608F0A30808E608F0A3F5
:10157000E608F0A315811581D0E0FED0E0F81581D2
:101580001581E8C0E0EEC0E022851B83851A82E069
:10159000A3FEE0A3F520780AE0A3F608DFFAE0A3B3
:1015A000FFE0A3C0E0E0A3C0E0E0A3C0E0E0A3C090
:1015B000E0E0A3C0E010AF0885821A85831B800895
:1015C00085821A85831BD2AFD083D082020C3B85E3
:1015D0001B83851A82E0A3FEE0A3F520780AE0A32E
:1015E000F608DFFAE0A3FFE0A3C0E0E0A3C0E0E07C
:1015F000A3C0E0E0A3C0E010AF0885821A85831B7A
:10160000800885821A85831BD2AFD083D08222C006
:10161000D0251AC582C0E0E51B34FFC583C0E0E5D4
:101620001AC3958224F310AF0885831B85821A8024
:101630000885831B85821AD2AFC8F0A3E9F0A3EA1C
:10164000F0A3EBF0A3790AE709F0A3D8FAECF0A332
:10165000EDF0A3EEF0A3EFF0A3D0E0F0A3D0E0F024
:10166000A3D0E0F0A3E520F0A3E5F0F0A322851BD2
:1016700083851A82E0C0E0A3E0F9A3E0FAA3E0FBCF
:10168000A3780AE0F608A3DFFAE0FCA3E0FDA3E0FC
:10169000FEA3E0FFA3E0C0E0A3E0C0E0A3E0F5D03C
:1016A000A3E0F520A3E0A3F5F010AF0885831B8528
:1016B000821A800885831B85821AD2AFD082D0839C
:1016C000D0E0F8D0E0327404800674028002740125
:1016D000C0E0F404121478D0E012134D2274048098
:1016E0000474028000CCC0E0EDC0E0E51AC39CCCDD
:1016F000AD1B50011D10AF068C1A8D1B80068C1A75
:101700008D1BD2AF12135AD0E0FDD0E0FC22D08363
:10171000D082E9C0E0E493A3C386F0C5F095F0F968
:1017200008E493A386F0C5F095F0700BE493A3C38F
:10173000994005E9048002A3E475F002A42582F52E
:1017400082E5F03583F583D0E0F9E493A3C0E0E4CB
:1017500093C0E022D083D082ECC0E0EDC0E0E493FF
:10176000A3FCE493A3FDED4C600D1217A0EC24FF45
:10177000FCED34FFFD80EFE493A3FCE493A3FDEDC7
:101780004C600D1217DFEC24FFFCED34FFFD80EF01
:10179000D0E0FDD0E0FCE493A3C0E0E493C0E022FD
:1017A000C0E0C3E49396087401939618400FE49345
:1017B00066700808740193661870007019A3A3C3BB
:1017C000E49396087401939618A3A3400DD0E0D03B
:1017D000E0D0E0021790A3A3A3A3A3A3D0E022C06C
:1017E000E0C0F088F0E4936670080874019366180E
:1017F0007000A8F0A3A3700BD0F0D0E0D0E0D0E050
:10180000021790A3A3D0F0D0E022FFFFC0E074F253
:1018100012160FA2AFE433FED2AFE589A2E7502241
:1018200053897F90028FE06403701790820A12162A
:10183000DD7A087B009008A5E0F912328874041262
:10184000145DC2C5751C00EEA2E092AF7F010216C6
:101850006EC0E0C0D0E8C0E0E9C0E0C082C083A2B2
:10186000AFE433F8D2AFE58AA2E3500F538AF79082
:101870000284E02401F0A3E03400F0C2EB751C0008
:10188000E8A2E092AFD083D082D0E0F9D0E0F8D0E7
:10189000D0D0E032C0E0C0D0E8C0E0E9C0E0A9A804
:1018A000D2AFC2C153AFFE538DF7751C00E9A2E75A
:1018B000E433F8E9A2E792AF80CF74F5121523EA7A
:1018C000FEEBFFEE2434F8EF3400F9880A890BEEC2
:1018D0002435F582EF3400F583E0F8EE2437F58205
:1018E000EF3400F583E0F50CEC850CF0A4FCAAF0D5
:1018F000850CF0EDA42AFDE82CF8E43DF97A257B6F
:10190000001213BCEA850A82850B83F05407F87431
:1019100001B800028004C333D8FCC0E0E013131305
:10192000541FF8EE28F8EF3400F9E8245DF582E959
:101930003400F583D0E0F8E0586008EE2434F582F6
:10194000EF801EEE2436F582EF3400F583E0F5F0EB
:10195000EA84A8F0EE28F8EF3400F9E82438F5829C
:10196000E93400F583E0F97F040215CF74F5121510
:1019700023EAFEEBFFEE2434F582EF3400F583E03A
:10198000C0E0EE2435F582EF3400F583D0E0F08E30
:10199000828F83A3A3A3A3A3A3A3C082C0838E82A9
:1019A0008F83A3A3A3A3A3E0F8A3E0F9D083D082FD
:1019B000E0C398F50AA3E099F50BEE2480F582EFD9
:1019C0003400F583E064017069EE2481F582EF3420
:1019D00000F583E0F8A3E0F98E828F83A3A3A3A38D
:1019E000A3A3A3E0FCA3E0FD8E828F83A3A3A3A304
:1019F000A3E0FAA3E0FBC3EA9CEB9D5027C3EC985D
:101A0000ED99402EC3EA98EB9950277C117D05EEA5
:101A1000FAEFFB122B6EEE2480F582EF3400F58393
:101A2000E4F0800EC3EA98EB9940E0C3EC98ED999E
:101A300050D9EE2434F8EF3400F9E8FCE9FDEE2447
:101A400035F582EF3400F583E0F8EE2437F582EFC8
:101A50003400F583E0F50CE50A850CF0A4F50AAA3C
:101A6000F0850CF0E50BA42AF50BE8250AF8E4351F
:101A70000BF97A257B001213BCEA8C828D83F0541B
:101A800007F87401B800028004C333D8FCC0E0E05A
:101A9000131313541FF8EE28F8EF3400F9E8245D0F
:101AA000F582E93400F583D0E0F8E0586008EE24D0
:101AB00034F582EF801EEE2436F582EF3400F58394
:101AC000E0F5F0EA84A8F0EE28F8EF3400F9E82415
:101AD00038F582E93400F583E0F9122369021967C9
:101AE000C082C083851A82851B83E0F8A3E0F9C316
:101AF000EA9CEB9D5012C3EC98ED994019C3EA980B
:101B0000EB99501279018010C3EA98EB9940F5C324
:101B1000EC98ED9950EE7900D083D08222EAC39CF4
:101B2000FAEB9DFB22FFFFFF8521878522C622C09D
:101B3000E0C0D0E8C0E0E9C0E0EAC0E0EBC0E0EC23
:101B4000C0E0EDC0E0C00AC00BC00CC00DC082C038
:101B500083C0F0759B00906182E0A2E64003021C06
:101B60000DE591A2E64003021C0D7591BF9003D6CE
:101B7000E064057008122CA6122CB28003122CAC63
:101B8000752100122D0CE99003D7F07900122D0079
:101B9000122AE47A017B009003D5E0F9123180909B
:101BA0007803E064426003021C56900573E014F071
:101BB0006003021C56C2AF121BBA00782AD0E0F6AE
:101BC00018D0E0F6E59F5407F970059081DE800398
:101BD0009081D6780A1212FFE9C4C0E07829E65550
:101BE0000AF50A08E6550BF50B740B780A12142552
:101BF000D0E0250AF8906270E0A2E740F8E8C3332D
:101C0000906272F0906270E0D2E0F08049E0A2E56C
:101C10005024E591A2E5501E7591DF9003D6E06453
:101C20000D70139003F8E004F064287002E4F07A79
:101C300000E0F9122D7E906181E0A2E35009E5E910
:101C4000A2E3500375E9F7A3E0A2E75009E591A2EA
:101C5000E7500375917FD0F0D083D082D00DD00CA7
:101C6000D00BD00AD0E0FDD0E0FCD0E0FBD0E0FA11
:101C7000D0E0F9D0E0F8D0D0D0E032C0E0C0D0C0A1
:101C800082C083906183E0A2E05009E5BFA2E050EA
:101C90000375BFFEE0A2E15009E5BFA2E150037564
:101CA000BFFDE0A2E25009E5BFA2E2500375BFFB11
:101CB000E0A2E35009E5BFA2E3500375BFF7E0A23D
:101CC000E45009E5BFA2E4500375BFEFE0A2E55080
:101CD00009E5BFA2E5500375BFDFE0A2E65009E5C4
:101CE000BFA2E6500375BFBFD083D0828088C0E01A
:101CF000C0D0E8C0E0E9C0E0EAC0E0EBC0E0ECC082
:101D0000E0EDC0E0C0F0E5A7A2E6500FE5A1A2E635
:101D1000500953A7BF75A1BF121D53E5A7A2E550F7
:101D20000CE5A1A2E5500653A7DF75A1DFE5A7A248
:101D3000E15009E5A1A2E1500375A1FDE5A7A2E2EA
:101D4000500CE5A1A2E2500653A7FB75A1FBD0F011
:101D5000021C6474F81215237521019003D6E06407
:101D6000067015122C3A8A828B83A3A3A3A3A3A384
:101D7000E0FAA3E0FB122C94A2AFE433FED2AF90C2
:101D800003DCE0640170187A207B009003D5E0F951
:101D90001232947A207B009003D5E0F912318690BC
:101DA0006182E0D2E6F0900572E0602185C6228073
:101DB000169003DBE064017008E5C654F84405F5AD
:101DC000C653BEFC121B287401652160E4EEA2E03C
:101DD00092AF7F010215CFFF8E238F248582288545
:101DE0008327851A82851B83E0CEA3E0CF852882D6
:101DF000852783EBC9EAC8EDCBECCA75F010C3E8C0
:101E000033C8E933C9EA33CAEB33CBC3EA9EF526BC
:101E1000EB9FF525B35004AB25AA26EC33CCED336C
:101E2000CDD5F0DAAE23AF242274EB12152374FA69
:101E30001214478A0A8B0B8C168D179003D6E02458
:101E4000F7C394055006908236021F8B122C3A8AF3
:101E50000C8B0DAE0CAF0DEE4F7003021F88AC0A59
:101E6000AD0B851A82851B83AA82AB83122CC48E8C
:101E7000828F83A3A3780A1212FF908232780A120B
:101E800012D9851A82851B83780E1212FF90823236
:101E9000780E1212D9780A790E120C68501F780A3F
:101EA000790E1212B19081B6780A120C88404785DB
:101EB0000A12850B13850C14850D158041850E12B1
:101EC000850F138510148511157812790A1212B135
:101ED0009081B67812120C88501C75120075130090
:101EE0007514007515017812790E1212B1781279F5
:101EF0000A121278800890823678121212FF740942
:101F000078121212599081BA780A1212FF78127957
:101F10000A1211D18E828F83A3A3A3A3A3A3E0F8F7
:101F2000A3E0F97AD07B031213BC880A890BE4F58D
:101F30000CF50D7812790A1212787404121493E0D9
:101F4000F8A3E0F97AD07B031213BCE8FA8A0AE41A
:101F5000F50B7812790A120C6850077812790A1278
:101F600012B19003D6E06408600AE064066005E000
:101F70006405701C9081BE7812120C8850129081FA
:101F8000C2781212128B800890820278121212FF0D
:101F9000851682851783781212130E740612145D4B
:101FA0007F0E0215CF74F7121523122CD6900570F0
:101FB000E064017010906245E4F0A3F053F4F34341
:101FC000FE0C5390F3122C82E5C654804449F5C6AA
:101FD000E59E547F644970F8906185740FF0900518
:101FE0006EE0F47002A3E0604E90056FE0600814AC
:101FF000601B14602E8040750A01750B0090056E01
:10200000E0780A121434E50AF45280802A750A0135
:10201000750B0090056EE0780A121434E50AF4524C
:10202000908014750A01750B0090056EE0780A1215
:102030001434E50AF452A079007F020215CF74F738
:10204000121523E9FEEAFF74016E700C7A807B00A2
:102050009003D5E0F91231809032F8E493F46008EF
:10206000E493F9122AD8800953C680E59E547F7004
:10207000FA122C88900570E064017003122AF09027
:10208000056EE0F47002A3E0604B90056FE060081D
:1020900014601A14602C803D750A01750B009005C0
:1020A0006EE0780A121434E50A42808028750A012D
:1020B000750B0090056EE0780A121434E50A429020
:1020C0008013750A01750B0090056EE0780A1214F2
:1020D00034E50A42A0122CD6122C3A8A0A8B0BA89D
:1020E0000AA90BE8496015E5E170FCE82414F582C3
:1020F000E93400F583E0F46003E0F5E174016F700A
:102100000A7A019003D5E0F912320A02203974F1FB
:102110001215238A0A8B0B8C0C8D0D740F121493DD
:10212000780E1212FF908232780A1212D9908232FF
:10213000780E1212D9780A790E120C685015780AA6
:10214000790E1212B19081B6780A120C8840157976
:10215000018013780E790A1212B19081B6780E12AE
:102160000C8840EB79007F080215CF74ED1215231F
:102170008A0A8B0B8C0C8D0D7413121493780E122B
:1021800012FF908232780A1212D9908232780E129F
:1021900012D9780E790A120C684011780A790E1259
:1021A00012B1AA0AAB0BAC0CAD0D802275120075F2
:1021B00013007514007515017812790E1212B1789A
:1021C00012790A121278AA12AB13AC14AD157F0C57
:1021D0000215CF908232780A1212FF8A828B83789E
:1021E0000A1212EC7F040215CF74F51215238C82AB
:1021F0008D83780A1212FF8A828B83780A1212C5A5
:10220000EA2404F8EB3400F98C828D83A3A3A3A302
:10221000E0FCA3E0FD88828983C3E09CF0A3E09DFD
:10222000F088828983C3E09420A3E0944E402290FA
:10223000823A780A1212FF8A828B83780A12129EDF
:102240008A828B83A3A3A3A3E02420F0A3E0344ECF
:10225000F0808074F5121523E9FE900528E0FAA3BA
:10226000E0FBEEC333F8E433F974F928F5827480A7
:1022700039F583E02AF50AA3E03BF50B780A12163C
:10228000CA90822612131D121DD8740212145D8A80
:102290000A8B0B8C0C8D0D7410780A121240AA0A4E
:1022A000AB0B7F040215CF74F11215238A0E8B0F2E
:1022B0008C108D11740F121493E0FAA3E0FB7411CB
:1022C000121493E0F50AA3E0F50B7413121493E0D3
:1022D000FEA3E0FF780A1216CAEA2401F50AEB34DD
:1022E00000F50BE4F50CF50D780E790A12115190FA
:1022F00081CE780A1212FF780E790A121151AA0EB5
:10230000AB0FAC10AD11121DD8740212145D8B0B03
:10231000EA450B60047A0180027A00EC2AFCED3475
:1023200000FDECF8EDF97A717B021213BC880A8982
:102330000BE4F50CF50D8E828F83780A12130EECE8
:10234000F8EDF97A717B021213BC8A0A8B0B7405C3
:10235000780A1214348E828F83A3A3A3A3E50AF014
:10236000A3E50BF07F080215CFC082C083E990601F
:1023700000F0D083D08222C0E0C0D0E8C0E0E9C045
:10238000E0A9A8D2AFC2C7751C00E9A2E7E433F800
:10239000E9A2E792AFD0E0F9D0E0F8D0D0D0E032B7
:1023A000120C3E7BA807120C3EC7A807120C3E5920
:1023B000FE06120C3ED6FE06120C3E01FF06120C63
:1023C0003E20FF06120C3E33FF06120C3E47FF066E
:1023D000120C3E0DA907120C3ED9FF05120C3EF05F
:1023E000FF05120C3E4DFF04120C3E61FF04120C5F
:1023F0003E7E3F00120C3EA23F00120C3EC03F004A
:10240000120C3ECC3F00120C3EF53F00120C3E7AFF
:10241000A707120C3E83A707120C3E9EA807120CBA
:102420003EBAA807120C3E79A507120C3E99A507E3
:10243000120C3ED7A507120C3E8C9E07120C3EA331
:102440009E07120C3ED29E07120C3E0B9F07120CE9
:102450003E339F07120C3E619F07120C3E789F0788
:10246000120C3E8F9F07120C3EA59F07120C3ECC0C
:102470009F07120C3EDF9F07120C3EF59F07120CC0
:102480003E08A007120C3E2DA007120C3E53B206C8
:10249000120C3E52B306120C3E87B306120C3EA835
:1024A000B306120C3EB8B306120C3ED9B306120C9A
:1024B0003EE5B406120C3EB2B506120C3E25B60639
:1024C000120C3EABB606120C3EEEB606120C3E25C2
:1024D000B706120C3EABB706120C3E7DB806120CC6
:1024E0003EDBB806120C3EF3B806120C3E6DB90680
:1024F000120C3E70B906120C3E73B906120C3E1A4D
:10250000BA06120C3E32BA06120C3E62BA06120C21
:102510003E82BA06120C3E70BB06120C3E26BC066A
:10252000120C3EA7E806120C3ECFE806120C3EFD48
:10253000E806120C3E34E906120C3E9CE906120C29
:102540003EE5E906120C3E30EA06120C3E6EEA0643
:10255000120C3EABEA06120C3ED9EA06120C3E8083
:10256000EB06120C3E8AEB06120C3E97EB06120CA1
:102570003ECAEB06120C3E8CEC06120C3E98EC06A2
:10258000120C3EB0EC06120C3EBAEC06120C3E5198
:10259000A307120C3E5FA307120C3E77A307120C91
:1025A0003E8FA307120C3EACB705120C3E4AB8058D
:1025B000120C3EC2B805120C3ED7B905120C3E11E2
:1025C000BA05120C3EBABA05120C3E8FBB05120CAE
:1025D0003EF3BC05120C3E4ABD05120C3ED1BD05B2
:1025E000120C3EB8BE05120C3E05BF05120C3E9300
:1025F000BF05120C3EB7BF05120C3E8CC105120C74
:102600003ECDC105120C3EEFC105120C3E70C20555
:10261000120C3E5AC305120C3E20C405120C3EC1DA
:10262000CB06120C3E93CC06120C3E3CCD06120C8F
:102630003E7FCD06120C3E0CCE06120C3E98CE0606
:10264000120C3E79CF06120C3EA8CF06120C3EA407
:10265000D006120C3EECD006120C3EEED106120C47
:102660003E32D206120C3E58D206120C3E08A60785
:10267000120C3E008007120C3E168007120C3E3CE6
:102680008007120C3E648107120C3E6E8107120C0B
:102690003EC78207120C3EC78307120C3ED7DE06E8
:1026A000120C3E0CE006120C3E3FE006120C3E8976
:1026B000E006120C3E47E206120C3E4FA805120C33
:1026C0003EB2A805120C3EF7A905120C3E07AA055A
:1026D000120C3E2AAA05120C3E75AA05120C3E1ACF
:1026E000AB05120C3E10AC05120C3EDAAC05120C18
:1026F0003E52AE05120C3E94AE05120C3E32AF05B2
:10270000120C3E7FAF05120C3EA5AF05120C3E9396
:10271000B105120C3E98B105120C3E79B305120CAE
:102720003ECDB305120C3E2FB405120C3E57B40536
:10273000120C3EFBB405120C3EBDB505120C3EEE6C
:10274000B505120C3EF1B505120C3E39B605120C5A
:102750003E7BB605120C3EE2B605120C3E92920785
:10276000120C3EA59207120C3EBE9207120C3E09B7
:102770009307120C3EE49307120C3E739407120C5D
:102780003EBE9407120C3E00B004120C3E0CB00486
:10279000120C3E45B004120C3E8AB004120C3E41AD
:1027A000B104120C3EC7B104120C3E2CB204120C40
:1027B0003E58B204120C3E91B204120C3EA5B40471
:1027C000120C3E81B604120C3E6CB804120C3EA3EF
:1027D000B904120C3E03BC04120C3EEFBC04120CF4
:1027E0003E35BE04120C3E42BF04120C3E5FBF04D5
:1027F000120C3E97BF04120C3EB1BF04120C3E19DE
:10280000C004120C3EB3C404120C3E54C504120C96
:102810003EA5C504120C3ECCC504120C3E1AC604DB
:10282000120C3E38C604120C3E8CC604120C3E94A8
:10283000C704120C3E1CC804120C3EFDE306120C29
:102840003E07E406120C3ED2E406120C3EEDE4060E
:10285000120C3E13E506120C3E57E506120C3E8F95
:10286000E506120C3EB8E506120C3E31E606120CE7
:102870003E46E606120C3E5BE606120C3E92E6066B
:10288000120C3EA6E606120C3ED7E606120C3E11CE
:10289000E706120C3E3DE706120C3E93E706120CCB
:1028A0003EE7E706120C3E30E806120C3E5AE806F8
:1028B000120C3E7FE806120C3E6DFA06120C3E37F3
:1028C000FB06120C3E1AFC06120C3E90FC06120C83
:1028D0003ED2FC06120C3EFFFD06120C3EFC3200FE
:1028E000120C3E253300120C3E3E3300120C3E8388
:1028F0003400120C3E613500120C3E803500120C83
:102900003E0D3600120C3E503600120C3E9D370034
:10291000120C3E3C3800120C3EBB3A00120C3E52E8
:102920003B00120C3E263C00120C3E083D00120CEF
:102930003E743E00120C3E073F00120C3E3FA007C3
:10294000120C3EA8A007120C3EFCA007120C3E235E
:10295000A107120C3ECCF106120C3E39F206120C05
:102960003E84F206120C3E79F306120C3E75F40614
:10297000120C3E5FF506120C3EDFF604120C3E21EF
:10298000F704120C3EFBF704120C3ED4F804120CB0
:102990003ECFF904120C3EAEFA04120C3E1AFB04B0
:1029A000120C3EE1FB04120C3E4CFC04120C3EB334
:1029B000FC04120C3EDEFC04120C3E4FFD04120C13
:1029C0003EE2FD04120C3E4BFE04120C3E60FE047F
:1029D000120C3EA8FE04120C3EC1FE04120C3E2650
:1029E000FF04120C3E29FF04120C3E6E8707120CE6
:1029F0003E968707120C3ED48707120C3E9288073A
:102A0000120C3EFD8807120C3E198907120C3E413C
:102A10008907120C3E718907120C3E808907120C3F
:102A20003EFA8907120C3E208A07120C3ED3D405C9
:102A3000120C3EB0D605120C3EABD805120C3E7EF1
:102A4000D905120C3EC9D905120C3E14DA05120C38
:102A50003E26DA05120C3E66DA05120C3E9BDA05BC
:102A6000120C3EE7DA05120C3E16DB05120C3E395D
:102A7000DB05120C3E86DB05120C3E0FDC05120C4A
:102A80003E1CDE05120C3E07E005120C3E4AE00536
:102A9000120C3EAFE105120C3EF0E105120C3E6354
:102AA000E205120C3EAFE205120C3EDAE205120C12
:102AB0003EC49A06120C3EEF9A06120C3ED6A106B0
:102AC000120C3EFAA306120C3EB5A506120C3E12DD
:102AD000A706120C3E83C804120C3E1AC904120C3D
:102AE0003E47C904120C3E8DC904120C3ECCCA04E8
:102AF000120C3E63CC04120C3EDDCC04120C3EF8EA
:102B0000CC04120C3E6DCD04120C3E9CCE04120C73
:102B10003EF7CF04120C3EF9D004120C3E56D204FC
:102B2000120C3E6FD204120C3ECCD204120C3EAEFC
:102B3000D304120C3EE1D304120C3E51D404120C07
:102B40003ECBD404120C3E1AD504120C3EE6D5043A
:102B5000120C3EEBD604120C3ECAD704120C3E55A2
:102B6000D804120C3EC3D804120C3E37D904120C00
:102B70003E60D904120C3E1FDA04120C3E99DB04AD
:102B8000120C3EB6DB04120C3ED5DB04120C3E6682
:102B9000DC04120C3E8BDC04120C3EB3DC04120C81
:102BA0003E2EDD04120C3E88DD04120C3EDCDE04F9
:102BB000120C3E99DF04120C3E6CE004120C3E0431
:102BC000E305120C3E54E305120C3E60E305120CC3
:102BD0003E3DE405120C3E6DE405120C3EA5E405F5
:102BE000120C3E24E505120C3E5CE505120C3EAECF
:102BF000E505120C3EEBE505120C3E10E805120C43
:102C00003E3CEA05120C3E37EC05120C3E12EE0576
:102C1000120C3EF2FF04120C3E978205120C3EE1AC
:102C20008205120C3EC08805120C3E418A05120C2A
:102C30003EA09005120C3E9B9105120C3ED89105CA
:102C4000120C3EFB9105120C3E3D9205120C3E46C5
:102C50009205120C3E509205120C3E3C9305120C4C
:102C60003E309405120C3E9AE004120C3E12EB0426
:102C7000120C3E18EB04120C3E24F204120C3ED14E
:102C80008307120C3E678407120C3E7D8407120CEA
:102C90003EF78407120C3E4D8507120C3E8B8507CC
:102CA000120C3EE88507120C3E658607120C3E6E3C
:102CB0008607120C3E7A8607120C3E8D8607120C90
:102CC0003EC98607120C3EDF8607120C3E3E870780
:102CD000120C3E21F606120C3E2EF606120C3E4851
:102CE000F606120C3E87F606120C3EC5F606120CCE
:102CF0003E2AF706120C3E3FF706120C3E4AF70634
:102D0000120C3E57F706120C3E6EF706120C3E7C74
:102D1000F706120C3E87F706120C3E93F706120CCC
:102D20003EA2F706120C3EADF706120C3ED0F70697
:102D3000120C3E79F806120C3E89F806120C3EA3DE
:102D4000F806120C3EC0F806120C3EDCF806120C17
:102D50003E01F906120C3E0BF906120C3E1FF90655
:102D6000120C3E3EF906120C3E9FF906120C3EA5CF
:102D7000F906120C3EABF906120C3EB1F906120C24
:102D80003EBDF906120C3EF0F906120C3ED8F005D5
:102D9000120C3E5AF105120C3E03F205120C3E4B8A
:102DA000F305120C3E59F505120C3E3FF605120CC8
:102DB0003E74F605120C3E96F605120C3E3FF705E2
:102DC000120C3E0FF905120C3E38F905120C3EB0FC
:102DD000F905120C3EE2F905120C3EEFF905120C52
:102DE0003E3AFA05120C3E5EFA05120C3EAFFC05A7
:102DF000120C3EB9FD05120C3E15FE05120C3E5597
:102E0000C605120C3E66C705120C3E4AC805120CD8
:102E10003E54C805120C3E76C805120C3E82C80509
:102E2000120C3E26CA05120C3E53CA05120C3E690E
:102E3000CB05120C3EBECB05120C3E0DCD05120C7F
:102E40003EE2CD05120C3E3ECE05120C3EA9CE054B
:102E5000120C3EDECE05120C3E21CF05120C3EEBCD
:102E6000D105120C3E03D205120C3E94D205120C71
:102E70003EA2D205120C3EEFD205120C3EFDD20549
:102E8000120C3E69D305120C3EE4D305120C3E3BF6
:102E9000D405120C3E35A706120C3E57A706120C9D
:102EA0003E68A906120C3E27AC06120C3E51AD0638
:102EB000120C3E0FAE06120C3EFBAE06120C3ED3B9
:102EC0009C07120C3EF89C07120C3E6E9D07120CDC
:102ED0003EA4C406120C3EADC406120C3EB6C40697
:102EE000120C3E8EC506120C3E3FC706120C3E6FFA
:102EF000C706120C3E9AC706120C3ECAC706120C31
:102F00003EF5C706120C3E29C806120C3E55C806EF
:102F1000120C3E98C806120C3EC3C806120C3E0A9C
:102F2000C906120C3E5FC906120C3EA1C906120C5E
:102F30003EFBC906120C3E26CA06120C3E75CA0696
:102F4000120C3EA5CA06120C3ED0CA06120C3EFE5A
:102F5000CA06120C3E21CB06120C3E91A607120C9B
:102F60003EBDA607120C3EEAA607120C3EF4A607C9
:102F7000120C3E04A707120C3E008006120C3EBF46
:102F80008206120C3E718A06120C3E8E8B06120CC3
:102F90003E618D07120C3E9D8D07120C3EC18D07C0
:102FA000120C3EFA8D07120C3E858E07120C3EA9BC
:102FB0008F07120C3E688A07120C3E8D8A07120C8E
:102FC0003EB78A07120C3EC8A707120C3E4896056A
:102FD000120C3E289805120C3EE49905120C3ED1C5
:102FE0009A05120C3E589B05120C3ED29B05120C02
:102FF0003E039C05120C3E7A9F05120C3EF69F057F
:10300000120C3EE7A005120C3E1FA105120C3E62F9
:10301000A105120C3E99A205120C3EEEA205120C5F
:103020003E25A305120C3E97A305120C3EBEA30538
:10303000120C3ED8A305120C3ECAA405120C3EDAAF
:10304000A405120C3E76A605120C3E8DA605120CA8
:103050003EBFA605120C3E10A805120C3E28A40780
:10306000120C3E38A407120C3ED3A407120C3E2AC1
:10307000A907120C3E36A907120C3E3BA907120CF9
:103080003E47A907120C3EE89407120C3EF894073D
:10309000120C3E139507120C3EEF9607120C3E548D
:1030A000A107120C3ED8A107120C3E3EA207120C3B
:1030B0003EF89A07120C3E2E9B07120C3E579B07B8
:1030C000120C3E189C07120C3E879C07120C3EF80F
:1030D0003F00120C3EF79807120C3E519A07120C53
:1030E0003EB29A07120C3ECDD206120C3E0FD3060A
:1030F000120C3E2BD306120C3EFED306120C3EE7FA
:10310000D406120C3EFAD606120C3E61D706120CFB
:103110003E3ED806120C3E11D906120C3E0DA807F1
:10312000120C3E1FA807120C3E55D906120C3E5F2A
:10313000D906120C3E9FD906120C3EE8D906120C95
:103140003E22DA06120C3E7CDA06120C3E9BDA06B0
:10315000120C3EA4DA06120C3EF5DA06120C3E1EE4
:10316000DB06120C3E28DB06120C3E94DB06120C2A
:103170003E22DC06120C3E7BDC06120C3EA9DC066D
:10318000120C3E29DD06120C3E6CDD06120C3EA729
:10319000DD06120C3EB9DD06120C3ED8DD06120C1F
:1031A0003EE1DD06120C3EABDE06120C3E62FE0571
:1031B000120C3EB5FE05120C3E21FF05120C3E8995
:1031C000FF05120C3E279007120C3E519007120C7F
:1031D0003E269107120C3E1A9207120C3E57A20788
:1031E000120C3E95FF06120C3EF59607120C3E2B74
:1031F0009707120C3E649707120C3EBD9807120CFD
:103200003EDEA407120C3EF4A407120C3EFEA407F7
:10321000120C3E48A507120C3E91BC06120C3E4E05
:10322000BD06120C3E89BD06120C3EB1BD06120C45
:103230003E13BE06120C3E5FBE06120C3EC3BE0617
:10324000120C3E3DBF06120C3E3FC006120C3EF271
:10325000C106120C3E74C206120C3ED9C206120CF4
:103260003EF0C206120C3EF9C306120C3E37C406ED
:10327000120C3E4FED06120C3E68ED06120C3E0994
:10328000EE06120C3E49EE06120C3E62EE06120CE1
:103290003E95EE06120C3EE2EE06120C3E16EF06CE
:1032A000120C3E58EF06120C3E62F106120C3E73F1
:1032B0008D06120C3EE79006120C3E639206120C2D
:1032C0003EBA9206120C3ED79206120C3E55930659
:1032D000120C3EE09406120C3EC49506120C3E51B0
:1032E0009906120C3E219A06120C3E48A807120CB1
:1032F0003EEFA807FFFFFFFFFFFFFFFFC082C08375
:1033000090035A74FFF0A3F0A3F0A3F0A3F0A3740A
:103310009FF0A3E4F0A37420F090035914F0D0833D
:10332000D082020C3B74F61214B7E9FE123ECA605A
:10333000081235F1741A1235DB7F0202158974EE1A
:103340001214B7890CEAFEEBFF8C0A8D0B90076C08
:10335000E06003023451E9333354FC04F50D740783
:10336000250DFA7B001231508A0E8B0FAC0EAD0F7B
:10337000EC4D70030234518C828D837401F0A37480
:10338000FFF0EC2402F8ED3400F9880E890FEC24EC
:10339000040808ED3400F9850E82850F83E8F0A358
:1033A000E91234727404123472A3741312347DE57A
:1033B0000D12347DA3E50CF0750D00023441850D2E
:1033C00082858210751100E510C333FAE433FBEEF9
:1033D0002AF8EF3BF988128913740278101214341A
:1033E000A810A911851282851383E0F510C0101270
:1033F000345BD0E0F0851282851383A3E0F510C022
:1034000010123456D0E0F0E50A2AFAE50B3BFB8AAD
:10341000828B83E0F510C010123456A3D0E012372F
:10342000FAA3E0C0E0850E82850F83E028FAA3E0CE
:10343000398A82F583A3A3A3A3A3A3A3D0E0F005B5
:103440000DE50DC3950C50030233BEECFAED123EB0
:10345000C07F0A02158912345BA322850E82850F74
:1034600083E028F510A3E039851082F583A3A3A398
:10347000A32212347622123757123CC42212347619
:10348000A3A32274EE1214B78A0A8B0B890D8C1039
:103490008D1190076BE0700990076DE070030235A5
:1034A0004D900332E0600302354D898285820E75AE
:1034B0000F00E92407FAE43400FB1231508A128B22
:1034C00013AE12AF13EE4F700302355E7418650A27
:1034D00070047420650B600C7417650A7004742006
:1034E000650B701090076DE0600AF50C8E828F837B
:1034F0007492800C90076BE0F50C8E828F83749130
:10350000F0A3740E12364A8E828F83A3A3F08E82AC
:103510008F83123C1BEE2405F8EF3400F9E8FAE93A
:10352000FBEE24070808EF123811F0780E1216CAC5
:10353000AC10AD118A828B83E0FAA3E012377B12C4
:10354000145DEEFAEFFBA90C12315C8011781012B9
:1035500016CAAC0D790E122904740212145D0234DD
:103560005174F61214B7E9FE8C0A8D0B780A121604
:10357000CAEEFC79FF122904740212145D02333979
:1035800074F51214B7890CEAFEEBFF90076BE0604C
:1035900036900332E070307A06123ECC60388A8270
:1035A0008B837491F0A3740F123B37E50C12364AEB
:1035B0008A828B83A3A3A3123BFCEEF0A3EFF090CF
:1035C000076B123EC4800FEEFCEFFD890AAA0A7B4E
:1035D00000790F1228FE7F03021589123B3F740108
:1035E000123609123769EEF0900769E0F912315C82
:1035F00022123EE4FCA3E0F5838C827404123609A7
:10360000FCA3E0F5838C82A322123F002274F71200
:1036100014B774FC121447EA851A82851B8312368C
:103620004AC0E07401121493D0E0F07402121493B3
:10363000ECF07403121493ED123F727A0412290A0B
:10364000740412145D7F01021589F0900336E022A4
:1036500074F01214B7890B8A0C8B0D8C0A7410123B
:103660001493E0F50EA3E0F50F7407250AFA74FF32
:10367000650B6004780380027802E82AFA7B001266
:1036800031508A108B11AE10AF11EE4F700302371C
:10369000528E828F837401F0A374FFF0EE24020A2D
:1036A0000AEF3400FBEE2404F8EF123804E50B12A5
:1036B00037FAE02402123A24A90D74FF650B603139
:1036C0007403250A12364AC0E0123760D0E0123780
:1036D0008BE50C12378BA3E9F0850A0C750D007889
:1036E0000C1216CAAC0EAD0F8A828B83E0240680C2
:1036F000557402250A123757C0E0123760D0E01225
:103700003782E0C0E012376DD0E0123782A3E0C00C
:10371000E012376DA3D0E0123797E50C123797A36C
:10372000E9F0850A0CE50C24FDF50CE434FFF50DF9
:10373000780C1216CAE50E2403FCE50F3400FD8A4E
:10374000828B83E0240812377212145DEEFAEF12B6
:103750003EC07F08021589F0850E82850F83E02226
:10376000123764228A828B83E01238352212376442
:10377000A322FAA3E0340012377B22FB12312C740F
:103780000222F0850E82850F83A32212378F221228
:103790003821A3A3A3A32212378FA3A32274F2126A
:1037A00014B7890C8A0DECFEEDFF7407250DFA1293
:1037B0003E546041123E6C0A0AFBE50A24040808E4
:1037C000E50B123804E50C1237FA12382FA3E50D79
:1037D000F0601BF50E750F00780E1216CAEEFCEFA6
:1037E000FD8A828B83E0240312377212145DAA0AC9
:1037F000AB0B123EC17F060215891237FE22F08AFA
:10380000828B832212381112381D740412381DA3C2
:10381000223400F98A828B83E8F0A3E9221238214E
:1038200022F08A828B83123CC3227F1002158912F8
:103830003CBFA322E0123CC4A3A3A32274E8121449
:10384000B789178A0E8B0F8C168D15741812149366
:10385000E0F518A3E0F519741A121493E0FEA3E042
:10386000FF741C121493E0F50AA3E0F50B741E120A
:103870001493123CCC7420121493E0F51490076B4F
:10388000E0700302392A7A157B001231508A108BBE
:1038900011EA45117003023A21123AA07401F0EACC
:1038A0002408FAEB3400FBE5102403123E4BE51725
:1038B0007018E4F0751206F51378121216CAAC18D7
:1038C000AD1912377C12145D800C7431F07C067DCA
:1038D000007900123144851082851183A3A3A3A32C
:1038E000E50EF0A3E50F123A64E516123A64A3E57B
:1038F00015F0E510240E123E4BEEF0A3EFF0E510AC
:103900002410123E4B123C1EE5102412123E4BE5D1
:103910000CF0A3E50DF0E5102414123E4BE514F075
:10392000AA10AB1190076B023A1E900361E0A2E56A
:103930004003023A21900359E0A2E04003023A21F9
:103940007A1A7B001231508A128B13EA45137003E6
:10395000023A21123A4DF510EB3400F511123A44B7
:10396000851082851183E8F0A3E9123A7F7404126E
:103970003A7FA3743E123A8E7413123A8EA37401E6
:10398000123A94E517123A94A3E50EF0E50FF50EFE
:10399000851082851183123B2CE50E123AB4E51690
:1039A000123AB4A3E515F0750E06750F00780E12E5
:1039B00016CAAC18AD19851082851183E02409124E
:1039C000377212145D851082851183E0240F123A3C
:1039D00033123A722410123A24EF123A722411125E
:1039E0003A3EF0E50BF50A851082851183E024123A
:1039F000123A3E123A722413123A38F0E50DF50CE1
:103A0000851082851183E02414123A38123A722408
:103A100015123A24E514F0AA12AB13900769123E6E
:103A2000C402382A123A2822F8A3E03400F9888226
:103A3000898322123A28EE22123A28E50C22123A01
:103A400028E50A22EA2404F8EB3400F922123A515C
:103A500022123A55228A828B837401F0A374FFF0FC
:103A6000EA240222F0851082851183A3A3A3A3A3D5
:103A7000A322123A7622F0851082851183E0221269
:103A80003A8322123A8722123A76123CC422123A20
:103A900083A3A322123A9822123A87A3A3A3A322B4
:103AA0008A828B837491123AAA22F0A3743E123751
:103AB000FEA3A322123A98A3A3A32274F41214B76C
:103AC000EAFEEBFF890A90076BE060237A06123E5C
:103AD000CC60548A828B837491F0A37405123B37B7
:103AE000E41237FA123C02E50AF090076B80359039
:103AF000035AE0A2E450307A0B123ECC6029123512
:103B0000F17405123B3B7404123B3BA3E4123B4CA3
:103B1000EE123B4CA3EFF088828983123B2CE50A1E
:103B2000F0900769123EC47F04021589123B3022CF
:103B3000123834A3A3A322123AAE22123B3F221220
:103B40003F00FCA3E0F5838C82A3A322123B3FA39A
:103B5000A32274F01214B78A0A8B0BECFEEDFF74EB
:103B600010121493123CCC7412121493E0F50EA3AD
:103B7000E0F50F90076BE0603E900359E0A2E25041
:103B8000787A0C123ECC6071123AA07403123B3763
:103B9000A3E4F0123C168A828B83A3A3A3123C02F7
:103BA000A3A3A3E50CF0A3E50D123BFCA3A3A31272
:103BB0003E6190076B803F900361E0A2E5503A9030
:103BC0000359E0A2E250327A11123ECC602B123E31
:103BD000D4743EF0A3740AF0A37403F0A3E4F012CB
:103BE0003C1DA3EEF0A3EFF0A3E50CF0A3E50DF070
:103BF000123E63900769123EC4023752123AAEA3D6
:103C0000A322123C0622A3A3A3EEF0A3EF1237FED9
:103C1000A3A3A3A3A3228A828B83A3A3A3A3E50ABE
:103C2000F0A3E50BF02274F01214B7890FEAFEEB53
:103C3000FF8C0E7410121493E0F50AA3E0F50B74D8
:103C400012121493123CCC90035BE0A2E350677A0B
:103C50000F123ECC6060123A4DFCEB3400FD123A7C
:103C6000448C828D83E8F0A3E9F08C828D83123C32
:103C7000B9123CDE740C123CDEA37408123CF0E571
:103C80000F123CF0A3EE123CF6EF123CF6A3E50E49
:103C9000123D02E50AF0E50BF50A123CD4E50A12E2
:103CA0003D02A3A3E50CF0E50DF50C123CD4A3A353
:103CB000E50CF0123EC1023752123CBF74042212CE
:103CC0003CC322E0F8A3E0F583888222E0F50CA350
:103CD000E0F50D228C828D83123B30A3A322123C8F
:103CE000E222123CE622F08C828D83123CC3A32296
:103CF000123CE2A3A322123CFA22123CE6A3A3A3A5
:103D0000A322123CFAA3A32274EC1214B78A0E8BDE
:103D10000F8C108D117414121493123CCC850C82EC
:103D2000F583A385821285831390076DE060757A11
:103D30000F7B001231508A0A8B0BAE0AAF0BEE4F8D
:103D40007003023E468E828F837492F0A3743EF01D
:103D50008E828F83A3A37405F08E828F83123E61BF
:103D6000750A08750B00780A1216CAAC10AD11EE70
:103D70002405FAEF12377512145D850C82850D83C8
:103D8000E0FA851282851383E0F9EAF8EE240DF556
:103D900082EF123E4FE8F0A3E9F0EEFAEFFB900756
:103DA0006D023E43900361E0A2E55008900359E0A4
:103DB000A2E44006122A9C023E467A14123E547037
:103DC00003023E46123E6CF9EA2404FAEB3400FB8F
:103DD00088828983EAF0A3EB123609FEA3E0FF8E06
:103DE000828F837404F0A3743EF0A3740DF0A37467
:103DF00005F0123E63A3AE82AF83750E08750F0007
:103E0000780E1216CAAC10AD11EEFAEF12377B1213
:103E1000145DEE2408FEEF3400FF850C82850D83CF
:103E2000E08E828F83F085120C85130DA30EAF8375
:103E3000850C82850D83E08E828F83F0AA0AAB0BFE
:103E4000900769123EC47F0C021589F582E5113492
:103E500000F583227B001231508A0A8B0BEA450B56
:103E600022A3A3A3E50EF0A3E50FF022123A51F826
:103E7000EB34002274F41214B7EAFEEBFF890A8CCB
:103E80000B90076DE060127A07123ECC602F123F54
:103E90005AE50BF090076D802190035AE0A2E7509D
:103EA0001C7A0B123ECC6015123ED47408F0A37439
:103EB00004123F4F123C20900769123EC4023B2778
:103EC000FB900769E0F912315C227A087B0012311D
:103ED00050EA4B22123EE4F8A3E0F9888289837409
:103EE00004F0A322123A55F8EB3400F9EA2404FC5A
:103EF000EB3400FD88828983ECF0A3ED123F0022B1
:103F0000F088828983E02274F41214B7EAFEEBFF92
:103F1000890A90076DE060127A07123ECC602D127C
:103F20003F5A7401F090076D801F90035FE0A2E795
:103F3000501A7A0A123ECC6013123ED47430F0A3A9
:103F40007403123F4FF0900769123EC4023B27F002
:103F5000A3E50AF0A3EEF0A3EF228A828B8374928A
:103F6000123AAA74081237FE123C06E50A123C0DFA
:103F7000A322F0851A82851B83AC82AD8322C08286
:103F8000C083E9F890098CE0F4700EE8F090028D9F
:103F9000EAF0A3EBF0790180027900D083D08202AD
:103FA0000C3B123FAD89CF43CB10020C3B43FE10BC
:103FB00043F41043F52075CB8275CE2475CD642271
:103FC00053FEEF53F4EF43F601020C3BC082C08373
:103FD00090098BE0F91223F49082461216DD9002CC
:103FE0008DE0FAA3E0FB90098CE0F91232887404AA
:103FF00012145D80A680ABFF851C87C2AF020C3B0C
:020000040002F8
:10300000C082C083E9900A4BF002B28474F71214B4
:10301000B7E99002F4F07C2C7D037AFF7BFF122845
:10302000149002F574FFF0A3F0A3E4F0A3F0790587
:1030300012279C9002F4E0F91226C47A2C7B281205
:1030400029EE02BF9274F41214B78A0A8B0BEB5468
:103050008060309002F4E0F91231688A0C8B0DAE7A
:103060000CAF0DEE4F60138E828F83E064B070035F
:103070001227B4EEFAEFFB123156AA0AE50B648070
:10308000FB80047A007B0002B25374F21214B7740E
:10309000FC121447EAFEEBFF741212149312C47967
:1030A000EE4F700302B12D7402121493EEF0A3EFF1
:1030B00012B48EECF0A3ED12B48EAA82AB8312266A
:1030C000BEE9F50C706AE50A450B60648E828F8359
:1030D00012C45FEE4F60567A067B001231F28A0E00
:1030E0008B0FA80EA90FE8497005750C1380418855
:1030F000828983E412B13AEEF0A3EF12C48AE50AA2
:10310000F0A3E50BF09002FA12B1C19002FA70053B
:1031100012BF3C801B12BF2A8003EAFCEBFD8C82AD
:103120008D8312B1C170F38C828D8380E3750C02A4
:10313000A90C740412145D02C679F0A312C430A362
:103140002274F21214B7890CE975F017A4FEAFF0DF
:103150009002F9E4F09002F712B1C1600A1231F85E
:103160009002F7E4F0A3F0EEFAEFFB1231F28A0AD4
:103170008B0BEA450B602FEEFCEFFD79001231441A
:103180009002F7E50AF0A3E50BF07B00800812B18E
:10319000ABE4F0A3F00BEBC3950C40F2E50C90020E
:1031A000F9F079008002791302C679EB75F017A463
:1031B000F8A9F09002F7E028FAA3E0398A82F583B3
:1031C0002212BBCEEA4B2274F41214B7740C121400
:1031D0009312C454FEE9FF750A00750B00800CE5DC
:1031E0000A2401F50AE50B3400F50BC3E50A9CE55A
:1031F0000B9D5032850A0C850B0D7403780C12144C
:1032000034EA250CF8EB350DF988828983A3A3A352
:10321000A3A3A312C011EE650C7003EF650D70BF80
:10322000E8FAE9FB80047A007B00802774F412142A
:10323000B77900EAA2E0501B750AA4750B81780AE1
:103240001216CA7C047D007A4D7B0A1227967402FE
:1032500012145D7F04021589C082C0839002FA12A5
:10326000B28B601C88828983A3A3E06A7003A3E009
:103270006B8882898370E8A3A3A3A312BBCA8004CE
:103280007A007B00D083D082020C3B12C75FE849F2
:103290002274EE1214B774FC121447EAFEEBFF8599
:1032A0001A82851B83E4F0A3F0EE240212BF1CEE09
:1032B000240512C437EE2404F510EF12B843E024BD
:1032C000FE603924FC604624FE605224FE605E24C9
:1032D000FE700302B3A424FE700302B40824FE703F
:1032E0000302B41724FE700302B42624FC70030208
:1032F000B43524FE700302B44402B4819003137405
:1033000017F0A3E412B49612243C02B481851A8209
:10331000851B83AC82AD831227BA02B451851A8211
:10332000851B83AC82AD831227C002B451850E0A7F
:10333000850F0B7402121493AC82AD83850A8285CB
:103340000B8312BBCA1226E28A0E8B0FAC0EAD0F96
:10335000EC4D603BE4F50EF50F780E1216CA750EB3
:1033600013750F03780E1216CA750E14750F0378B5
:103370000E1216CA74081214931216E112C78312A1
:10338000145DE9F50E700B12BBC0122454800F754A
:103390000E01850A82850B8312B48412BF3C850E10
:1033A0000A02B4547402121493AC82AD83850E8267
:1033B000850F8312B995603C850E82850F83A3A388
:1033C0001216E175121375130378121216CA7512CC
:1033D0001475130378121216CA7408121493121675
:1033E000E112C78312145DE9F50B700B12BBC0121A
:1033F000245A800F750B01850E82850F8312B484C9
:1034000012BF3C850B0A804C851A82851B83AC82D7
:10341000AD831227C6803A851A82851B83AC82ADA4
:10342000831227CC802B851A82851B83AC82AD83C7
:103430001227D2801C851A82851B83AC82AD831231
:1034400027D8800D851A82851B83AC82AD83122715
:10345000DEE9F50AE50A60298E828F83A3E0641411
:10346000601F851082851183E090031312B48E12C1
:10347000C75B90031412BF3CE50AA312B496122452
:103480003602BE2B12C75F851A82851B8322F08508
:103490001A82851B8322F07C137D03850C82850DA7
:1034A0008312BBCE2274EE1214B774FC1214478A36
:1034B0000C8B0D8C108D11EA2405F50AEB3400F508
:1034C0000B7C157D0079007A137B03123144E50AE9
:1034D0002402F50EE50B12C43A851A82851B8385FA
:1034E000821285831378121216CA850A82850B838D
:1034F000A3A3A3A312B98C1216CAE50A2405F512D8
:10350000E50B3400F51378121216CA850E82850F6A
:103510008312BCE11226DC740612145D8A128B132E
:10352000AE12AF13E50C2402F50CE50D12BF1FEE31
:103530004F700302B6638017740212149312BBCA51
:1035400088828983EAF0A3EBF0900313E004F09003
:103550000313E0C39405400302B663E4F512F513C8
:1035600078121216CA7512FC75130278121216CA56
:103570007512FD75130278121216CA74061214938E
:103580001216E17910EEFCEFFD12C78512145DE909
:10359000705E850A82850B83A3A3A3A3A3A3A3E0E4
:1035A000F89002FCE068704812B98C1216CA7CFDD3
:1035B0007D02E50A2408FAE50B3400FB12313E7463
:1035C0000212145DE960298E828F83A3A3A3A31244
:1035D000BBCA900313E0F51274027812121434740B
:1035E000142512F58274033513F583EAF0A3EBF08A
:1035F000740212149385821285831378121216CAEC
:1036000074021214931216E1850E82850F8312BB89
:10361000F012145D8A128B13AE12AF13900313E0F5
:10362000F5127513007402781212143474132512F3
:10363000F874033513F988828983A312B1C170032A
:1036400002B52FE82403080808E93400F9EE4F60BA
:103650000302B5388882898374FFF0A3F0900313C6
:10366000E004F0900313E0600A12BBC01224487912
:1036700000800B850A82850B8312BF33790A02BE54
:103680002B74EA1214B774FE1214478C148D15EAC9
:103690002405F50EEB12C76D12C463750A00750B95
:1036A00000EA2402F512EB3400F513851A82851B1B
:1036B0008385820C85830D780C1216CA850E82854F
:1036C0000F83A3A3A3A312B8591216CAE50E2405AB
:1036D000F50CE50F12BF1F780C1216CA850E8285F5
:1036E0000F8312B85D1226DC740612145D8A0C8BEF
:1036F0000DEA450D700302B7FEEA2404F510EB1243
:10370000B84312C4638A828B83A3A3A3E0F9851212
:103710008285138312BBD4600302B7FEE4F516F56D
:103720001778161216CA7516FC7517027816121637
:10373000CA7516FD75170278161216CA7406121489
:10374000931216E17913AC0CAD0D851282851383AB
:1037500012C78B12145DE9F50B600302B7FE9002ED
:10376000FCE0F8E50A7009E02402900314F08014EC
:10377000900314E0FCE82402FAE43400FBEA6C70E5
:1037800001EB707E850A82AA8212B983941412B961
:103790007B506B851082851183E0C0E074152A127E
:1037A000B83AD0E0F0050A851082851183A3E0C005
:1037B000E0850A0C7415250C12B83AD0E0F0050A21
:1037C0009002FC12B8591216CA7CFD7D02850A0CC3
:1037D0007415250C12B84D12145D9002FCE0250AF8
:1037E000F50A74FF6E700374FF6F6012EE24010E11
:1037F000EF3400FFE50AC39414500302B6ABE50AA8
:10380000601312BBDE85128285138312BBCA122499
:103810004E79008014E50B7003750B0A85148285C0
:103820001583EEF0A3EFF0A90B740212145D7F0E66
:10383000021589850A0E7415250EF582740334006D
:10384000F583223400F511851082F58322FA740382
:103850003400FB12312C74022212C49922A3A31249
:10386000B8632212BF2AFDEEFAEFFB2274EE1214A7
:10387000B774FE1214478C108D11EA2405F50EEB77
:1038800012C43A750D00900313E4F0F50CEA24021B
:10389000F50AEB3400F50B8044900313E0FA900234
:1038A000FCE0F812B983941712B97B400D90031312
:1038B000E0F87416C3989002FCF012B98C1216CA84
:1038C0007CFD7D0274142AFA740312B85012145D40
:1038D0009002FCE0F8900313E028F0050CE50E24BC
:1038E00016F582E50F12B83EE0F8E50CC398507467
:1038F000900313E0C39416506BE50CC333F8E43324
:10390000F9E50E28FEE50F39FF851A82851B83AC89
:1039100082AD838E828F8312B9957008750D011266
:10392000BF2F8050E4F512F51378121216CA7512E3
:10393000FC75130278121216CA7512FD75130278FF
:10394000121216CA74061214931216E17916850A19
:1039500082850B8312C78B12145DE9F50D7003028B
:10396000B89980BB7C137D03850A82850B8312BBCB
:10397000CA122460A90D740202BE2DE99400C36529
:10398000D03322EA28F8E43400F9E822E0F5127591
:10399000130078122212BE228A128B13AC12AD13BE
:1039A000EC4D2274EA1214B774FC1214478A0E8B81
:1039B0000F8C148D15EA2405F50CEB12BF1F750A48
:1039C00000750B00E50C2402F512E50D3400F5132B
:1039D000740212149385821085831178101216CA0E
:1039E000850C82850D83A3A3A3A312C43F1216CA1C
:1039F000E50C2405F510E50D3400F51178101216CC
:103A0000CA85128285138312BF2512BBC41226DC1D
:103A1000740612145D8A108B11AE10AF11E50E24DE
:103A200002F510E50F3400F511803888828983741F
:103A3000FFF0050A12B83374FFF0050A9002FCE0AB
:103A4000F50E750F00780E1216CA7CFD7D02850AF0
:103A50000E7415250E12B84D12145D9002FCE0256F
:103A60000AF50AEE4F60278E828F83A3A3A3E0F9A5
:103A700085108285118312BBD4EE240412C437E969
:103A80006027850E82850F8312BBB612BF3CE50A04
:103A9000700302BB9C12BBDE85108285118312BBB2
:103AA000CA122466790002BBB1E4F516F517781640
:103AB0001216CA7516FC75170278161216CA7516F4
:103AC000FD75170278161216CA740812149312168E
:103AD000E17911EEFCEFFD85108285118312C78B11
:103AE00012145DE9F50B709A850A82AA82EA9002A7
:103AF000FC7009E02404900314F08025E0F89003A2
:103B000014E0F516E82404FCE43400FDEC651670BE
:103B100001ED708112B983941212B97B400302BA8D
:103B200095850E82850F83E0C0E074152A12B83A9D
:103B3000D0E0F0050A850E82850F83A3E0C0E01275
:103B4000B833D0E012BBF985820E85830F780E1250
:103B500016CA74041214931216E185128285138317
:103B600012BBF012145D8A0E8B0FAE0EAF0F850ADA
:103B70000E7415250EF874033400F9EE4F7003022D
:103B8000BA2B851A82851B83E08882898312BBF950
:103B9000A3E0C0E012B833D0E002BA39E50B7003FD
:103BA000750B0A850C82850D8312BBB612BF3CA92A
:103BB0000B740402B82B12C75F851482851583220B
:103BC0007C137D03850C82850D8312BBCE22E0FA27
:103BD000A3E0FB2212BBCE1226CAE9F50B2290030A
:103BE00014E0F5F0E50A84900313F07C137D0322C2
:103BF00012B8631226E8740422F0050A851A828539
:103C00001B832274EC1214B774FE1214478A0A8BB9
:103C10000B8C108D11EA2405FEEB3400FF12BE0C54
:103C2000EE241812C437EA450D700302BCAF12BD72
:103C3000F5502912BCD48A128B13EA4513606B79B4
:103C400012AC0CAD0D850A82850B8312BBCA85129E
:103C5000828513831214B5E9F50C7058E4F50CF560
:103C60000D780C1216CA8E828F83A3A3E0F50C7810
:103C70000C1216CAEE240312BF1C780C1216CA8E40
:103C8000828F8312BCE1122802740612145DE9F5DA
:103C90000C7021850E82850F83E0701F850A828556
:103CA0000B8312BBCA12246C8011750C0E8009752F
:103CB0000C018004E50C600312BF2F850E82850F76
:103CC00083E0600479008002A90C740212145D7F05
:103CD0000C021589851A82851B8312BBCE1227F030
:103CE0002212BF2AFD850A82850B8312BBCE227465
:103CF000EE1214B774FE1214478A0A8B0B8C0E8DC9
:103D00000FEA2405FEEB3400FF75100012BE0CEA2A
:103D1000450D700302BDD312BDF5502C12BCD48AE0
:103D2000108B11EA4511604A7912AC0CAD0D850A71
:103D300082850B8312BBCA8510828511831214B54C
:103D4000E9F510600302BDD6850A82850B8312C097
:103D500011AA0CFB12BDE770147AFF7BFF12BDE7BE
:103D6000606C88828983E50CF0A3E50DF0750C008A
:103D7000800775100E805F050C9002F9E0FAE50CE3
:103D8000C39A504AE50C75F017A4FAABF088828903
:103D900083A3A3E02AFAA3E03BFB8A828B8312BFB2
:103DA00025EC4D70D2750C17750D00780C1216CAE3
:103DB000EEFCEFFD12312C740212145DEEFCEFFDEF
:103DC000850A82850B8312BBCA1224728014751077
:103DD00009800375100112C757850E82850F831263
:103DE000BF3CA91002B9761227E48A128B13A812DD
:103DF000A913E84922E50A2402F50AE50B3400F587
:103E00000B8A828B83A3A3A3E0A2E522851A828575
:103E10001B83AC82AD838E828F8312BE228A0C8B71
:103E20000D22E0FAA3E0FB1226E222740412145DD4
:103E30007F0A02158974EC1214B78C128D13EA24D0
:103E400005F50EEB12C43A751100EA2402F50CEBED
:103E500012BF1F850C82F58312BBCA12C8117003F2
:103E600002BF117510008071850E82850F83E0649A
:103E700001704F8E828F83A3A31216E18E828F83EF
:103E8000A3A3A3A3E0F51475150078141216CAEEC7
:103E90002405F514EF3400F51578141216CA12BB78
:103EA000C4122802740612145DE9F5116014850E1F
:103EB00082850F83E4F012C757851282851383121F
:103EC000BF3C7C177D007900EEFAEFFB1231448E87
:103ED000828F83E4F0A3F005109002F9E0F8E5107A
:103EE000C398501EE51075F017A4F8A9F0850A8252
:103EF000850B83A3A312C77712BF25EC4D60030285
:103F0000BE68850A82850B8374FFF0A3F0E511700B
:103F10000612BBC4122478A91102BCCFF50CEF34F1
:103F200000F50D22A312BF2AFD22E0FCA3E0228EA1
:103F3000828F8312C75F851082851183E8F0A3E921
:103F4000F022C082C0839002F5E06A7003A3E06BA8
:103F500070067AF57B0280047A007B0002B28474DA
:103F6000F71214B77F00EF75F003A4F8A9F0EC285E
:103F7000F8ED39F988828983E06A7003A3E06B70F9
:103F800006E8FAE9FB800B0FEFC3940240D87A00F1
:103F90007B007F0102158974F61214B712C54870B0
:103FA000067A007B008007A3A3A3A312BBCA02C6A4
:103FB0000974F21214B7E9FE740E12149312C011B0
:103FC000741012149312C4798C828D83E064027091
:103FD0003BA312C75B88828983E0F50EA3E0F9A8B2
:103FE0000E74026870037429697021750E02750FD2
:103FF00000780E1216CA780A1216CA780C1216CA5F
:10400000EEF9122826740612145D8002790102C6A8
:1040100079E0F50CA3E0F50D2274E81214B774FBF7
:10402000121447E9851A82851B83F08A188B198C34
:10403000108D11741F12149312C4797421121493E9
:1040400012C011742312149312C4637512008C826F
:104050008D83A3A3A3E0A2E4502A741D121493122B
:10406000BCDA8A828B83E5824583700302C125799D
:104070000AAC10AD11AA18AB191214B5E9F512600B
:104080000302C128851082851183E0640260030267
:10409000C3DEA312C75B850A82850B83A3858214C6
:1040A000858315E5102406F50EE51112C43A8882C1
:1040B0008983E0FAA3E0F9EA2400F516E439F5175C
:1040C0007816121754010000280128EDC0070002DD
:1040D00028C4C1032834C10029EEC2012916C30235
:1040E00029BDC20329EEC204297FC3DEC3EE4F708F
:1040F0003E850E82850F8312C454FAE9FB8A828BB7
:1041000083E0850C82850D8312C4901216CA8A82C0
:104110008B83A312BF2AFDAA0AAB0B12312C7402A7
:1041200012145D800375120EA912740502C765751D
:10413000120B80F4EE4F70F7850C82850D837401AD
:10414000F012C469850A82850B83F07C007D0085AE
:104150001082851183A3A3A3A3E02401FAA3E03472
:1041600000FB1226E2EA4B60418A828B83E0240244
:10417000F8850C82850D83E028F0EA2404F8EB34FE
:1041800000F988828983E085148285158312C4A290
:1041900012C4901216CA8A828B8312BF24E50A24A5
:1041A00003FAE50B3400FB02C11B850C82850D83ED
:1041B000E02404F07C047D007900AA14AB151231D0
:1041C0004402C128EE4F600302C12F12C469FEA34E
:1041D000E0FF850C82850D837404F0EE850A8285EC
:1041E0000B83F0EF851482851583F074031214930A
:1041F000AC82AD83EEFAEFFB12C536700302C29AB1
:104200008A828B83A3A312C45F74011214938582E4
:104210001085831178101216CA74051214931216A1
:10422000E17CFF7DFF1226E8740412145D8B11EA15
:1042300045117033850E82850F8312C43F1216CA52
:10424000850E82850F83A31216E17C027D007A65BC
:104250007B82122514740412145DE9700A74011231
:10426000149374FFF0A3F08E828F83E064027034A5
:10427000750E02750F00780E1216CA8E828F831289
:10428000BF24E50A2404FAE50B12B85012145D8528
:104290000C82850D83E0240280097401121493EED0
:1042A000F0A3EFF0740112149312C450F0740112D1
:1042B0001493A312C448A3A3A3F002C128EE4F6035
:1042C0000302C12F850E82850F8312BF25AA18AB6A
:1042D0001912281A850C82850D837402F0EA850A6A
:1042E00082850B83F0851482851583EB80CBEE4F9E
:1042F000600302C12F12C469F8A3E0F9850C82851E
:104300000D837402F0E8850A82850B83F0E9851439
:104310008285158380A3850E82850F8312BBCA1206
:104320003126EAFC8C82A882C39EE49F404BE86E53
:104330007001EF70047C00801F851A82851B83E06A
:10434000FAEE2AFAEF3400FBC3EA98EB940050032C
:10435000E08004EECCC39CFCEC850C82850D83F0E0
:104360008C0C750D00780C1216CA850E82850F8391
:10437000E02EFCA3E03F02C11675120702C128EE31
:104380004F600302C12F850E82850F8312C75B85A4
:104390000C82850D837407F08882898312C44812C9
:1043A000C430E0851482851583F0E82402FAE934EC
:1043B00000FB8A828B8312C44812C48112C450A3AA
:1043C00012C48A12C459F0E82405F8E93400F988C7
:1043D00082898312C459A312C4A2A302C2B6741D57
:1043E00012149312C541700302C12512C75B880ED7
:1043F000890FE8450F700302C1258E128F137812C2
:104400001216CA780C1216CA780A1216CA74061244
:104410001493E0F9AC10AD11AA18AB19850E828582
:104420000F831214B5740612145DE9F51202C12847
:10443000F088828983A322F50EEF3400F50F22E085
:10444000F510751100781022E0850A82850B832211
:1044500012C4A92212C75FE82212C4A9A3A322A3EF
:10446000A3A3A3E0FEA3E0FF22850E82850F83E0D5
:10447000F8A3E0F5838882E022E0F50AA3E0F50BDB
:1044800022A3A3F08A828B83A32212B13CA3A3228E
:10449000F08A828B8312C49922E0F50C750D0078A6
:1044A0000C2212C43012C4A922E0850A82850B8333
:1044B000A3A32274EE1214B774FE1214478A0C8B55
:1044C0000DECFAEDFB7414121493E0F512A3E0F571
:1044D000137416121493E0FE7418121493E0F5107E
:1044E000A3E0F511851A82851B83AC82AD8312C5CA
:1044F00036603E851A82851B8312C541602FA3A3B7
:1045000012C479E50A450B602478101216CA781295
:104510001216CAEEF9AC0EAD0FAA0CAB0D850A82CD
:10452000850B831214B5740412145D8006790E8015
:1045300002790102B9761226E28A0E8B0FEA450F44
:104540002212BBCE12C548221227AE8A828B83E587
:104550008245832274F61214B774FE121447740C49
:1045600012149312C454851A82851B83F0740112AD
:104570001493E9F0E4F50AF50B780A1216CA750AE5
:1045800002780A1216CA740412149385820A85836B
:104590000B780A1216CA122802740612145D7402ED
:1045A00012145D806474F71214B7EAFEEBFF890AF7
:1045B0007C2C7D0312281AEA5402600BA90AEEFA39
:1045C000EFFB1226D68002790102BF9274F6121414
:1045D000B774FF6A700374FF6B701C7B00EB75F09F
:1045E00003A4F8A9F0EC28F8ED39F912C60E0BEB8C
:1045F000C39402501480E61227EA8A0A8B0BA80A99
:10460000A90BE849600312C60E7F02021589888251
:10461000898374FF12B13AE4F02274F61214B712CF
:1046200027EA8A828B83E58245836006A3A3E0FAAA
:1046300080027A007B0080D174F21214B78A0A8B50
:104640000BECFEEDFF740E121493E0F50C12C67E17
:10465000701CEEFCEFFD7AFF7BFF12C67E700479C2
:1046600011801688828983E50AF0A3E50BF0888221
:104670008983A3A3E50CF079007F06021589122730
:10468000EA8A0E8B0FA80EA90FE8492274EE1214C5
:10469000B7EAFEEBFF8C0A8D0B890E74121214938D
:1046A00012C75B741412149312BF2574161214935C
:1046B00012BBCA750F00EC4D600302C74F74026550
:1046C0000E600302C74A8882898312BF2AF9EC244C
:1046D00000F510E439F511EAF4F8EBF4F9EC58F8C8
:1046E000E51159F9E849705DE50A2406F8E50B344F
:1046F00000F9880C890D8882F58312B85F12281A98
:104700008A128B13E51065127004E511651360427F
:1047100078101216CA850C82850D8312B85F122894
:1047200020740212145DE9F50F702778101216CA72
:10473000850A82850B83A3A312B85D122832740206
:1047400012145D800D750F808008750F0D80037544
:104750000F0BA90F02BE308E828F8312C75F22E03B
:10476000F8A3E0F92212145D7F100215893400F5D8
:104770000F850E82F58322E028FEA3E039FF8E82AA
:104780008F83227916850C82850D8312BBCE12276A
:10479000FC74082274F21214B7EAFEEBFF890D7460
:1047A00001650D600E7402650D70637901122A0CAB
:1047B000E9705BEEFAEFFB12C8116047750C0080E0
:1047C0000B7C177D007900123144050C9002F9E052
:1047D000F8E50CC3985021E50C75F017A4F8A9F082
:1047E000850A82850B83A3A3E028FAA3E039FB8A1C
:1047F000828B8312B28B70C9850A82850B8374FF0A
:10480000F0A3F07C2C7D03EEFAEFFB12281402C615
:10481000791227E48A0A8B0BEA450B2274F21214F0
:10482000B78A0A8B0BECFEEDFF740E12149312C0C4
:1048300011900A4BE0F4603D7A097B00123150EA96
:104840004B60328A828B8374B1F0A3E412C483A3D9
:1048500012C481A3E50AF0A3E50B12C878EEF0A319
:10486000EF12C878A3A3E50CF0A3E50DF0900A4B76
:10487000E0F912315C02C679F08A828B83A3A3A38C
:10488000A3A322C082C0839061907404F0A37448F3
:10489000F0A37402F09061807440F09061BC7403E6
:1048A000F09061877419F0906265741BF090619CC0
:1048B000740DF090619A7433F0A37455F09061A078
:1048C000743AF0900570E064017009C2919003DAC7
:1048D000746780059003DA7461F09032F6E4939087
:1048E0006186F09032F8E493F46027E493540FF873
:1048F000906185E0686012E5C654804449F5C6E5DC
:104900009E547F644970F8E8F053C680E59E547F5A
:1049100070FA7905122D6002CAC5C082C083E954BD
:104920000FF9906185E0696012E5C654804449F54D
:10493000C6E59E547F644970F8E9F053C680E59E51
:10494000547F70FA02CAC5C082C083E5A8F853A894
:104950007E906181E4F0A3F0A3F0C2BA539AFEC244
:1049600089759B00C2C275E90075910075BF00751D
:10497000A91175B905906181F0A374C0F0A3E4F0AA
:10498000D2BA439A0174805842A802CAC5C082C0F4
:104990008374F81214479003D8E0F8A3E0F9E849CB
:1049A000700302CABB9003D8E054406023790885A5
:1049B0001A82851B83AA82AB83122BC8851A828533
:1049C0001B83AA82AB8312289E9003D8E054BFF0C9
:1049D000E054806010790C7A947B05122BC8900308
:1049E000D8E0547FF0E0A2E0503190619A7433F047
:1049F000A37455F09061A0743AF0900570E06401E2
:104A00007009C2919003DA746780059003DA7461CB
:104A1000F01228A49003D8E054FEF0E05402603174
:104A200090619A743FF0A3745AF09061A0747FF083
:104A3000900570E064017009D2919003DA7471807E
:104A4000059003DA746AF01228A49003D8E054FDAC
:104A5000F0E0540460139032F4E493906186F01215
:104A600028AA9003D8E054FBF0E054086013903279
:104A7000F5E493906186F01228AA9003D8E054F7E9
:104A8000F0E0541060139032F6E493906186F012D7
:104A900028AA9003D8E054EFF0E05420600A1228CE
:104AA000AA9003D8E054DFF0A3E05401600D122A6D
:104AB000F01228B09003D9E054FEF0740812145D8F
:104AC0008003F0A3F0D083D082020C3B74EC12146C
:104AD000B774F4121447851A82851B83AC82AD83A8
:104AE00075838275823E740412135A9032F493F4E3
:104AF000600302CC59907808E0C39402500302CCC2
:104B0000397404121493AC82AD83758381758277F6
:104B1000740812135A851A82851B83858214858333
:104B2000157404121493AC82AD837510FF7511FFD8
:104B30007FFF7E00750E48750F78801574086E70C3
:104B40000302CBCC74096E700302CBCC740A6E6086
:104B50007B850E82850F83780A1212FF8C828D83EB
:104B6000A90BE50CC9F888127418780A121240E5EE
:104B700012450AF8C3E098A3E099850E82850F8359
:104B8000780A1212FF40188C828D837418780A12EA
:104B90001240E512450AF8E0C398F8A3E0801C74BF
:104BA00018780A121240E512450AFAE9FB8C828D48
:104BB00083E0F8A3E0F9EAC398F8EB99F9C3E89524
:104BC00010E99511500688108911EEFF0EE50E24AC
:104BD00004F50EE50F3400F50FEEC39413500302F5
:104BE000CB3C74FF6510700474FF651160238F0A5D
:104BF0007402780A1214347448250AF582747835E0
:104C00000BF583780A1212FF851482851583E50A55
:104C1000F0EC24020C0CED3400FD85148285158324
:104C2000A3858214858315740C121493E5826C702D
:104C300003E5836D600302CB2A750A01750B0078CA
:104C40000A1216CA7402121493AC82AD837ABD7B29
:104C50000C1230A2740212145D740C12145D7F0CDD
:104C6000021589C082C0839061AE7468F0A3746A33
:104C7000F090624574FBF0A304F053F4FD43FE0290
:104C80009005707401F09061A0E0643A90619A70B0
:104C9000237433F0A37455F09061A0743AF074015A
:104CA00064017009C2919003DA746780289003DA76
:104CB00074618021743FF0A3745AF09061A0747FF6
:104CC000F0740164017009D2919003DA7471800567
:104CD0009003DA746A02CAC47F04021589C082C0D4
:104CE00083900522E06401700A900527E060047952
:104CF0000C8002790002CAC5C082C08375E1F190C0
:104D00000525E060551460081460591460518059FD
:104D1000122B0290051BE0F97A1C7B05122CE29005
:104D2000822E12131D122D189081F612131D122CB3
:104D3000EE900526E0F9122CFA7901122D54900517
:104D400019E02416F8A3E03400F988828983741AE4
:104D5000F0A3742BF0790002CAC5122B0880B4129C
:104D60002B0E80AF122B1480AA791280EA74F412F1
:104D700014B775D90D90050AE0A2E0E4331313F8D7
:104D800090051BE0C4333354C0484401F5D9781969
:104D9000790588828983A3A3A3E0F5D988828983D2
:104DA000A3A882A983E8641F7003E9640570E3780F
:104DB0000A790588828983A3E0F5D988828983A34B
:104DC000A882A983E864107003E9640570E575E1C1
:104DD0009590050AE0F97A0B7B05122CE8900A6D94
:104DE00074AEF0A3742AF0A37410F0A3742CF0A393
:104DF0007410F0A3742CF0A37410F0A3742CF0A31F
:104E000074B4F0A3742AF0A37410F0A3742CF0A36C
:104E100074CCF0A3742AF0900A7B7410F0A3742C65
:104E2000F0A37410F0A3742CF0A37410F0A3742CEE
:104E3000F0A37410F0A3742CF0A37410F0A3742CDE
:104E4000F0A37410F0A3742CF0900519E0F8A3E01F
:104E5000F5838882A3A3780A1212FF90822A780A27
:104E600012128B908232780A1212D9900519E0241E
:104E70000EF8A3E03400F988828983780A12130EB1
:104E8000900519E02414F8A3E03400F9888289839E
:104E90007413F09003D67402F002CCD8C082C083A1
:104EA00090052BE02407F5D990051BE0C43333545B
:104EB000C0F5D97819790588828983A3A3A3E0F581
:104EC000D988828983A3A882A983E8641F7003E933
:104ED000640570E390052BE0601F78197905FAE806
:104EE0002413F582E93400F583E0F5D988828983BB
:104EF000A3A882A9831AEA70E690054BE02407F57F
:104F0000D990051BE0C4333354C04404F5D9781953
:104F1000790588828983A3A3A3E0F5D98882898350
:104F2000A3A882A983E8641F7003E9640570E39075
:104F3000054BE0601F78197905FAE82433F582E91A
:104F40003400F583E0F5D988828983A3A882A983F8
:104F50001AEA70E675E195900A6D74BAF0A3742AA6
:104F6000F0A37410F0A3742CF0A37410F0A3742CAD
:104F7000F0A37410F0A3742CF0A374B4F0A3742AFB
:104F8000F0A37410F0A3742CF0A374CCF0A3742AD3
:104F9000F0900A7B7410F0A3742CF0A37410F0A3AB
:104FA000742CF0A37410F0A3742CF0A37410F0A36D
:104FB000742CF0A37410F0A3742CF0A37410F0A35D
:104FC000742CF090823A12131D900519E0240EF80B
:104FD000A3E03400F988828983121329900519E02F
:104FE0002414F8A3E03400F9888289837412F090C5
:104FF00003D6740102CAC4C082C08390052BE0248A
:1050000007F5D990051BE0C4333354C04402F5D9E9
:105010007819790588828983A3A3A3E0F5D98882CA
:105020008983A3A882A983E8641F7003E9640570DB
:10503000E390052BE0601F78197905FAE82413F551
:1050400082E93400F583E0F5D988828983A3A882B8
:10505000A9831AEA70E675E195900A6D74C6F0A30B
:10506000742AF0A374C6F0A3742AF0A374C6F0A344
:10507000742AF0A374C6F0A3742AF0A374C6F0A334
:10508000742AF0A374C6F0A3742AF0A374CCF0A31E
:10509000742AF0900A7B7410F0A3742CF0A374109F
:1050A000F0A3742CF0A37410F0A3742CF0A374106C
:1050B000F0A3742CF0A37410F0A3742CF0A374105C
:1050C000F0A3742CF090823A12131D900519E0247D
:1050D0000EF8A3E03400F988828983121329900521
:1050E00019E02414F8A3E03400F988828983741449
:1050F000F09003D6740402CAC4C082C08390052B0A
:10510000E02407F5D990051BE0C4333354C04406AE
:10511000F5D97819790588828983A3A3A3E0F5D905
:1051200088828983A3A882A983E8641F7003E96445
:105130000570E390052BE0601F78197905FAE824E3
:1051400013F582E93400F583E0F5D988828983A3D9
:10515000A882A9831AEA70E690054BE02407F5D9E6
:1051600090051BE0C4333354C04404F5D978197951
:105170000588828983A3A3A3E0F5D988828983A3C4
:10518000A882A983E8641F7003E9640570E39005B1
:105190004BE0601F78197905FAE82433F582E93489
:1051A00000F583E0F5D988828983A3A882A9831AB0
:1051B000EA70E675E195900A6D74C0F0A3742AF068
:1051C000A37410F0A3742CF0A37410F0A3742CF04B
:1051D000A37410F0A3742CF0A37410F0A3742CF03B
:1051E000A37410F0A3742CF0A374CCF0A3742AF071
:1051F000900A7B7410F0A3742CF0A37410F0A374C5
:105200002CF0A37410F0A3742CF0A37410F0A3740A
:105210002CF0A37410F0A3742CF0A37410F0A374FA
:105220002CF090823A12131D900519E0240EF8A379
:10523000E03400F988828983121329900519E0244B
:1052400014F8A3E03400F9888289837415F0900380
:10525000D6740302CAC4C082C083900519E0F8A3C3
:10526000E0F5838882A3A3A3A3A3A3E402CAC27424
:10527000F71214B7900404E0F875F004A4C8AAF07B
:105280002AF9740628F8740439F9E82405FAE9348F
:1052900000FB8A828B83E0FCA3E0FD88828983A3E4
:1052A000A3A3A3A3A3A3A3A3ECF0A3EDF0888289F7
:1052B00083A3A3A3A3A3A3A3E024FFF8A3E034FF45
:1052C000F98A828B83E8F0A3E902D51474F71214EB
